:100000000C940B030C9428030C9428030C942803E1
:100010000C94E90E0C94120F0C943B0F0C94640F8B
:100020000C9428030C94CA0D0C94F30D0C941C0E24
:100030000C94970E0C94450E0C946E0E0C94C00EFE
:100040000C944F0D0C94780D0C94A10D0C94280376
:100050000C9428030C9428030C9428030C94280374
:100060000C9428030C9428030C9428030C94280364
:100070000C9428030C9428030C942803076342363D
:10008000B79BD8A71A39685618AEBAAB558C1D3C29
:10009000B7CC5763BD6DEDFD753EF6177231BF00ED
:1000A0000000803F08000000BE922449123EABAA27
:1000B000AA2ABECDCCCC4C3E00000080BEABAAAA82
:1000C000AA3E00000000BF000000803F00000000CA
:1000D00000084178D3BB4387D1133D190E3CC3BD03
:1000E0004282AD2B3E68EC8276BED98FE1A93E4CB0
:1000F00080EFFFBE01C4FF7F3F00000000006E6183
:100100006E00696E660000407A10F35A00A0724ECD
:1001100018090010A5D4E80000E87648170000E4AC
:100120000B54020000CA9A3B000000E1F5050000F4
:1001300080969800000040420F000000A086010059
:100140000000102700000000E80300000000640029
:10015000000000000A000000000001000000000094
:100160002C76D888DC674F0823DFC1DFAE59E1B1B8
:10017000B796E5E3E453C63AE651997696E8E6C2C7
:100180008426EB898C9B62ED407C6FFCEFBC9C9FCE
:1001900040F2BAA56FA5F490055A2AF75C936B6CF0
:1001A000F9676DC11BFCE0E40D47FEF520E6B500E4
:1001B000D0ED902E0300943577050080841E080052
:1001C00000204E0A000000C80C333333330F986E02
:1001D00012831141EF8D2114893BE65516CFFEE6BF
:1001E000DB18D1844B381BF77C1D901DA4BBE42485
:1001F000203284725E228100C9F124ECA1E53D2702
:1002000016050100000000000000FA000000E000F8
:10021000E00028FE28FE282454FE5448C4C81026B6
:10022000466C92AA44A000A0C0000000384482009E
:10023000008244380028107C102810107C10100018
:100240000A0C000010101010100006060000040830
:100250001020407C8A92A27C0042FE020042868AE4
:1002600092628482A2D28C182848FE08E4A2A2A23C
:100270009C3C5292920C808E90A0C06C9292926C98
:100280006092929478006C6C0000006A6C00001020
:1002900028448200282828282800824428104080EA
:1002A0008A90604C929E827C7E8888887EFE9292A4
:1002B000926C7C82828244FE82824438FE929292C8
:1002C00082FE909090807C8292925EFE101010FED2
:1002D0000082FE8200040282FC80FE10284482FE1E
:1002E00002020202FE403040FEFE201008FE7C8228
:1002F00082827CFE909090607C828A847AFE9098C4
:100300009462629292928C8080FE8080FC02020253
:10031000FCF8040204F8FC021C02FCC6281028C6E3
:10032000E0100E10E0868A92A2C200FE8282004097
:1003300020100804008282FE00204080402002023B
:100340000202020080402000042A2A2A1EFE1222F5
:10035000221C1C222222041C222212FE1C2A2A2ACF
:1003600018107E908040304A4A4A7CFE1020201EA1
:100370000022BE0200040222BC00FE08142200007B
:1003800082FE02003E2018201E3E1020201E1C224D
:1003900022221C3E28282810102828183E3E102013
:1003A0002010122A2A2A0420FC2202043C02020401
:1003B0003E38040204383C020C023C221408142289
:1003C000300A0A0A3C22262A322200106C820000DF
:1003D00000FE000000826C100008101008100000E1
:1003E0000000007F8181817F7F8383837F7F878778
:1003F000877F7F8F8F8F7F7F9F9F9F7F7FBFBFBFB5
:100400007F7FFFFFFF7F2040FF40206215171565AB
:1004100000FBFB00000000000000C0FF0300E0FF45
:100420000700F0FF0F00F8FF1F0078001E007800A3
:100430001E0078001E0078001E0078001E00780064
:100440001E0078001E0078001E0078001E000000CC
:1004500000000000000080FF0300E0FF0700F0FF45
:100460000F00F8FF1F00F83C1F00783C1E00783C8E
:100470001E00783C1E00783C1E00783C1E00783C34
:100480001E00783C1E00783C1E00783C1E00783C24
:100490001E000000000000000000E0FF0300F0FF6D
:1004A0000700F8FF0F00F8FF1F00783C1E00783CA3
:1004B0001E00783C1E00783C1E00783C1E00783CF4
:1004C0001E00783C1E00783C1E00783C1E00783CE4
:1004D0001E000000000000000000F8FF0300F8FF0D
:1004E0000F00F8FF1F00F8FF1F0000001E000000B3
:1004F0001E0000801F0000F01F0000FF0F00E0FF43
:100500000700F0FF0000F80F0000F800000078007E
:10051000000078000000F8FF1F00F8FF1F00F0FF48
:100520001F00E0FF1F000000000000000000F8FFB7
:100530001F00F8FF1F00F8FF1F00F8FF1F007800E2
:100540001E00783C1E00783C1E00783C1E00783C63
:100550001E00783C1E00783C1E00F87E1F00F8FF4D
:100560001F00F0FF0F00E0E70300000000000000A4
:100570003800EEFF6C002A8045003A0047FC03FF7C
:100580006CFC83FF3900DEFF0B7CD0810BFCD0813B
:100590000BC0D0810BFCD0810B7CDEFF0B0082FFF7
:1005A000397002FF6CF83A0047DC2A8045CCEEFF38
:1005B0006CCC000038000000000C00001E0C000095
:1005C0001E0000001E0000001E0000001E00F8FFBC
:1005D0001F00F8FF1F00F8FF1F00F8FF1F000000BA
:1005E0001E0000001E0000001E0000001E00000093
:1005F0005E000000400000007C00000040000000A1
:10060000400000007C0000003000000010000000EE
:10061000300000007C0011241FBECFEFD8E0DEBF09
:10062000CDBF11E0A0E0B1E0ECE4FAE402C0059037
:100630000D92AE35B107D9F722E0AEE5B1E001C0C9
:100640001D92A237B207E1F70E944B030C942425B8
:100650000C9400008FE00E94E009882311F082E0F2
:1006600008950E94400381E00895ECE7F0E0908156
:100670008295880F880F807C9F73982B90830895B4
:100680008FE180937C00EAE7F0E087E0808380815F
:100690008068808308950E944D0D0E943F0D0E9446
:1006A000D31980E090E008950F931F9385E00E9496
:1006B000ED098823C1F080E460E00E94510400E06D
:1006C000802F60E00E94FC0310E080E061E00E9467
:1006D00051041F5F1038C9F70F5F043089F783E0BA
:1006E00060E00E943F041F910F9108950F931F93A4
:1006F00085E00E94E009882311F082E07AC00E9420
:100700009C04182F0E945F0A1150123008F06DC02F
:100710008150823008F069C00E946C048EEA60E06B
:100720000E94510482EA60E00E94510480EA60E085
:100730000E94510400E513ECC8010197F1F780EC29
:1007400060E00E9451048FE260E00E94510481E861
:1007500060E00E94510486E160E00E94510482E260
:1007600060E00E945104C8010197F1F78FEA60E050
:100770000E94510486EA60E00E94510485EA60E02C
:100780000E94510480E090E028E833E1F9013197BC
:10079000F1F7019643E0883E9407C1F783EB60E0F0
:1007A0000E94510480E460E00E94510483E060E014
:1007B0000E94FC0383E060E00E943F041092080264
:1007C00010920A021092090284E091E090936F0265
:1007D00080936E0288E10E941E040E94540384EA02
:1007E00060E00E94510481E004C085E00E94D009CD
:1007F00087E01F910F910895FF920F931F93082F89
:10080000F62E85E00E94ED098823A1F01F2D1F77A9
:100810000370802F806B60E00E94510412951F705E
:10082000812F806160E00E9451048F2D8F7060E005
:100830000E9451041F910F91FF9008951F93182F4C
:1008400085E00E94ED098823C1F087E00E94DE0464
:1008500082E06AE00E942F0582E061EB0E942F0592
:10086000612F113208F060E282E00E942F0589EECC
:100870008A95F1F787E00E94DE041F9108950F9397
:100880001F93082F162F85E00E94ED09882331F071
:1008900003701F7710930602009307021F910F91B8
:1008A00008950F931F93082F162F85E00E94ED09DE
:1008B000882379F0112319F0113021F402C02B980C
:1008C00001C02B9A86E08A95F1F780E0602F0E94A4
:1008D0002F051F910F910895239A089586E00E9495
:1008E000E009882311F082E008950E94850481E0E8
:1008F00008951F93182F86E00E94ED09882319F0B0
:10090000812F0E948E041F910895559A569A80E275
:100910000E944B1080E40E944B100895282F85FF01
:1009200004C08BB190E289278BB926FF04C08BB13C
:1009300090E489278BB9089582E00E94E00988231A
:1009400011F082E008950E943E0580E062ED70E1C2
:100950000E94D50481E06AEC70E10E94D50482E037
:1009600062EC70E10E94D50486E06AED70E10E94BD
:10097000D50483E06AEB70E10E94D50484E06AEB61
:1009800070E10E94D50485E06AEB70E10E94D50415
:1009900087E06AEB70E10E94D5048FEF80930B0231
:1009A00087E00E94DE0481E00895E82FF0E0EE0F7A
:1009B000FF1FE355FE4F7183608308951F93182F27
:1009C00082E00E94ED09882309F447C0912F9770B7
:1009D00080910B02981709F440C090930B0285B1E7
:1009E000887F892B85B9933011F1943028F49130A8
:1009F00051F0923090F40CC0953019F19530E0F040
:100A0000963021F50FC0E091AF01F091B00122C006
:100A1000E091AD01F091AE011DC0E091B101F09106
:100A2000B20118C0E091B901F091BA0113C0E09190
:100A3000B301F091B4010EC0E091B501F091B6019F
:100A400009C0E091B701F091B80104C0E091BB0189
:100A5000F091BC01309709F009951F9108951F93FB
:100A6000162F0E94DE0482E00E94ED09882321F007
:100A70001EBD0DB407FEFDCF1F910895259A26983F
:100A8000279A209A219A229A08952F923F924F9264
:100A90005F926F927F928F929F92AF92BF92CF920E
:100AA000DF92EF92FF920F931F93DF93CF930F92FA
:100AB000CDB7DEB7582E962E442E3901C9821501C6
:100AC000CE88DF88A88CB98C6A8D7B8D81E09816E2
:100AD00019F1981628F092E0991609F070C03EC0FE
:100AE00080E0B7010E94760780E0642DA3019801A1
:100AF0000981EE24E39473E4C72E72E0D72E0E949E
:100B00003608552009F05BC000D00F92EDB7FEB754
:100B10001182338222821CC081E00E94760781E02C
:100B2000682DA60195010C8DEE24E39493E4C92E63
:100B300092E0D92E0E943608552009F040C000D01E
:100B40000F92EDB7FEB791828D8D9E8D9383828338
:100B50000E9473090F900F900F9031C0C7010E943F
:100B6000980700D083E492E0EDB7FEB792838183CB
:100B7000842DB301A8012981082D76016501AC8C73
:100B8000882483940E94C9080F900F905520B9F4CF
:100B900000D000D00F92ADB7BEB71196EDB7FEB73B
:100BA0009182FD01328221828D8D9E8D948383837B
:100BB0000E9473090F900F900F900F900F900F905D
:100BC000CF91DF911F910F91FF90EF90DF90CF9029
:100BD000BF90AF909F908F907F906F905F904F905D
:100BE0003F902F9008954F925F927F928F929F92A5
:100BF000AF92BF92CF92DF92EF92FF920F931F932B
:100C0000DF93CF93CDB7DEB7562F942E7C2CAA89D5
:100C1000BB89CC88DD886E897F89988D813009F405
:100C200045C0813030F1823009F066C0513071F03A
:100C3000513020F0523009F05FC011C080E0B701A0
:100C40000E94760780E0692DA80106C081E00E941D
:100C5000760781E0682DA6010E9401074DC0C701FB
:100C60000E949807892DB801482D96010E94180707
:100C700043C0EDB7FEB739970FB6F894FEBF0FBE6D
:100C8000EDBF4DB65EB60894411C511CB283A183E2
:100C9000F201D382C282758364839683898D9A8D93
:100CA0009087878380E0652FC72C1CC0EDB7FEB707
:100CB00039970FB6F894FEBF0FBEEDBFADB6BEB606
:100CC0000894A11CB11CB283A183F501D382C28216
:100CD0007583648396831086178281E0652FC72C05
:100CE000AA24BB240E9445058DB79EB709960FB66E
:100CF000F8949EBF0FBE8DBFCF91DF911F910F91D2
:100D0000FF90EF90DF90CF90BF90AF909F908F902B
:100D10007F905F904F90089587E00E94E0098823BC
:100D200011F082E008950E94C60981E0809342029A
:100D300010920C0210920D0210920F0210920E02ED
:100D400010921102109210021092130210921202CD
:100D500010921502109214021092170210921602AD
:100D6000109219021092180210921B0210921A028D
:100D700010921D0210921C0210921F0210921E026D
:100D8000109221021092200210922302109222024D
:100D9000109225021092240210922A0210922B0225
:100DA00010922C0210922D0210922F0210923002FB
:100DB00010923102109232021092330210923402D9
:100DC00010923502109237021092360210923902B8
:100DD0001092380210923B0210923A0210923D0299
:100DE00010923C02109227021092260210922902C1
:100DF0001092280210924102109240021092420278
:100E00000895EF92FF920F931F93182F062F7A01E8
:100E100060E00E94D507812F602F0E94B607812FC6
:100E2000B7010E94EA071F910F91FF90EF9008957C
:100E3000CF92DF92EF92FF920F931F93C82E7B0108
:100E4000D42E890182E060E00E94D5078C2D6D2DA3
:100E50000E94CB07C701B8010E9417081F910F918C
:100E6000FF90EF90DF90CF9008952EEF803792079C
:100E700014F480E79EEFFC0181E0E139F80714F0FB
:100E8000E0E9F1E09B018EEF6037780714F420E78A
:100E90003EEFA90121E04139520714F040E951E049
:100EA0008F2F881F8827881F252F221F2227221F68
:100EB00091E09093420280932F0220933002CF0161
:100EC000F7FF03C0909581959F4F9A0157FF03C08C
:100ED000309521953F4F90930F0280930E023093EF
:100EE000110220931002109242020895482F81E0CF
:100EF00080934202CB0123E0693E720710F088EE36
:100F000093E0413071F0413018F0423071F405C087
:100F1000909317028093160208C090931702809353
:100F200016029093190280931802109242020895BB
:100F300021E020934202AC0183E0493E580710F0C3
:100F400048EE53E09B0183E0693E780710F028EEFD
:100F500033E0F8945093170240931602309319022D
:100F6000209318027894109242020895982F81E0FD
:100F700080934202913051F0913018F0923041F458
:100F800003C060932F0204C060932F02609330026D
:100F900010924202089591E090934202EFE2F2E053
:100FA00081936083109242020895982F81E080938C
:100FB0004202913051F0913018F0923041F403C068
:100FC00060930C0204C060930C0260930D021092B7
:100FD00042020895482F81E080934202CB0121E034
:100FE0006139720710F080E991E0413061F04130E1
:100FF00018F04230C9F40EC0F89490930F02809319
:101000000E02789411C0F89490931102809310020C
:1010100078940AC0F89490930F0280930E029093F4
:101020001102809310027894109242020895AC014C
:1010300081E080934202F894CB0121E0613972078C
:1010400010F080E991E090931102809310029A01D0
:1010500081E04139580710F020E931E030930F0268
:1010600020930E0278941092420208958F929F92DC
:10107000AF92BF92CF92DF92EF92FF920F931F93A6
:10108000CF93DF93182FF62E4A015901E60187E02E
:101090000E94ED09882309F46FC0812F61E00E944E
:1010A000D507812FB401A5010E94B412812F6F2DA5
:1010B0000E94B607812F602F0E949F12812FB401DA
:1010C0000E947712C114D10499F0113049F0113007
:1010D00018F0123069F406C0188210923E0208C05F
:1010E000198204C01882198210923E0210923F02A7
:1010F000D0934102C0934002EE20B9F58EE591E015
:101100009093410280934002812FB5010E94EA072B
:10111000812F0E946212113071F0113018F01230DC
:1011200059F512C010925E0110923E0280915E014C
:101130008823E1F321C010925F0110923F02809159
:101140005F018823E1F318C010925E0110925F01E5
:1011500010923E0210923F0280915E018823E1F3DB
:1011600080915F018823C1F307C0812FB5010E94E0
:10117000EA07812F0E946212DF91CF911F910F9198
:10118000FF90EF90DF90CF90BF90AF909F908F90A7
:1011900008953F924F925F926F927F928F929F92AB
:1011A000AF92BF92CF92DF92EF92FF920F931F9375
:1011B000DF93CF93CDB7DEB7982E2B013A01322EB5
:1011C000B02E0C891D8987E00E94ED09882309F45F
:1011D00053C082E061E00E94D50780E0B201A30124
:1011E0000E94B41281E0B701A6010E94B412892DB9
:1011F0006B2D0E94CB0780E0632D0E949F1281E03F
:101200006A2D0E949F12C201B7010E94921201151D
:10121000110539F0F8011082118210923E021092ED
:101220003F0210934102009340028820F1F480E6CF
:1012300091E09093410280934002C301B6010E9465
:10124000170882E00E946212109260011092610100
:1012500010923E0210923F02809160018823E1F3D8
:10126000809161018823C1F307C0C301B6010E94C8
:10127000170882E00E946212CF91DF911F910F91B7
:10128000FF90EF90DF90CF90BF90AF909F908F90A6
:101290007F906F905F904F903F9008950F931F93B2
:1012A000182F062F662349F460E070E00E94EA07D9
:1012B000812F60E070E00E94771281E0809342020B
:1012C000113051F0113018F0123041F403C0009386
:1012D0002A0204C000932A0200932B0210924202B9
:1012E0001F910F910895CF92DF92EF92FF920F938B
:1012F0001F93DF93CF93CDB7DEB71B8587E00E94A6
:10130000ED098823D1F1113061F0113018F012305D
:10131000A1F511C0EC85FD85809143028823E1F39E
:1013200006C0EC85FD85809144028823E1F3309767
:1013300021F1099522C0CC84DD84EE84FF8400E095
:1013400010E0002351F480914302882331F0C1144E
:10135000D10411F0F601099501E0112351F48091B7
:101360004402882331F0E114F10411F0F7010995EA
:1013700011E0002331F3112321F3CF91DF911F916D
:101380000F91FF90EF90DF90CF9008953A9A3B9A9B
:101390003C9A3D9A3E9A3F9A88B1837088B90895E5
:1013A000853160F4E82FF0E0EF50FE4F8081882314
:1013B00029F0808181508083808108958FEF089586
:1013C000853110F080E00895E82FF0E0EF50FE4FF7
:1013D00080818F5F808381500895853110F080E097
:1013E0000895E82FF0E0EF50FE4F8081811181E0F9
:1013F00008951F93182F80916301882341F08091F5
:101400006A01882399F01092630110926A010E9488
:101410002E0A8093620184E691E061E040E028E2D8
:1014200030E00E940C0C81E0809363019091620196
:10143000133018F0133079F409C0E12FF0E0E050D8
:10144000FF4F8081892341F081E006C091FF03C0F6
:10145000892F817001C080E01F9108950F931F9321
:1014600081E00E94ED09882311F400E024C087E0A8
:101470000E94DE0482E06AE00E942F0582E062EBB7
:101480000E942F0518EC812F8A95F1F782E060E029
:101490000E94E310082F812F8A95F1F782E060E027
:1014A0000E94E3101A95F1F787E00E94DE0488E8B5
:1014B00093E10197F1F7802F1F910F910895DF932A
:1014C000CF9300D00F92CDB7DEB781E00E94E00944
:1014D000882311F082E011C00E949C048150823068
:1014E00040F40E949E0BCE0101960E946C1381E095
:1014F00004C081E00E94D00987E00F900F900F9008
:10150000CF91DF9108950F931F938230B1F0833014
:1015100028F4882341F08130F1F40AC0833091F03F
:101520008430C9F414C070935C0260935B0213C0F2
:1015300070935E0260935D020EC0709360026093D0
:101540005F0209C0709362026093610204C07093ED
:1015500064026093630260915D0270915E0240914B
:101560005F0250916002209161023091620200910D
:1015700063021091640280915B0290915C020E9470
:10158000C40A1F910F9108954F925F926F927F92BC
:101590008F929F92AF92BF92CF92DF92EF92FF9283
:1015A0000F931F93CF93DF93EC017B013A01290145
:1015B00081E00E94ED09882309F4AFC087E00E9412
:1015C000DE0489EE8A95F1F782E06AE00E942F0539
:1015D00082E060EB0E942F058090510290905202B1
:1015E0008C169D0648F080914702909148024E016A
:1015F000C817D90708F44C01A0905302B0905402C8
:10160000AE14BF0448F08091490290914A025701FC
:10161000E816F90608F45C01C0905502D090560215
:10162000C614D70448F080914B0290914C0263019C
:101630006816790608F46C01E0905702F0905802A1
:10164000E414F50448F080914D0290914E0272012D
:101650004816590608F47C01C0915902D0915A02EB
:10166000C017D10748F080914F0290915002E801D5
:101670000817190708F4EC0190925C0280925B0253
:10168000B0925E02A0925D02D0926002C0925F02B0
:10169000F0926202E0926102D0936402C09363020E
:1016A00019EE812F8A95F1F782E0692D0E942F05AE
:1016B00082E0682D0E942F05812F8A95F1F782E044
:1016C0006B2D0E942F0582E06A2D0E942F05812F2D
:1016D0008A95F1F782E06D2D0E942F0582E06C2D36
:1016E0000E942F05812F8A95F1F782E06F2D0E94CD
:1016F0002F0582E06E2D0E942F05812F8A95F1F72C
:1017000082E06D2F0E942F0582E06C2F0E942F0532
:101710001A95F1F787E00E94DE04DF91CF911F91C7
:101720000F91FF90EF90DF90CF90BF90AF909F9080
:101730008F907F906F905F904F90089510925C0211
:1017400010925B0210925E0210925D021092600293
:1017500010925F0210926202109261021092640273
:101760001092630280E991E09093480280934702CF
:1017700090934A028093490290934C0280934B02CB
:1017800090934E0280934D029093500280934F02AB
:1017900084E398E090935202809351029093540214
:1017A000809353029093560280935502909358026F
:1017B0008093570290935A028093590208950F9391
:1017C0001F93DF93CF93CDB7DEB729970FB6F89469
:1017D000DEBF0FBECDBF8C0188E00E94ED098823DB
:1017E00011F491E00DC0CE01019661E040E0980156
:1017F0000E940C0C982F882319F48F818823E9F319
:10180000892F29960FB6F894DEBF0FBECDBFCF91BA
:10181000DF911F910F910895EF92FF920F931F9305
:10182000CF93DF93EC01F62EE42E890188E00E942D
:10183000ED09882311F481E026C084E090E00E9445
:101840004B22FC01009711F482E01DC0F982F0FCEC
:101850001E8281E0E81619F4898184608983898178
:10186000886089831B830A831D830C83D183C08393
:101870001382128281E08093CD01CF010E944A0C35
:101880001092CD0180E0DF91CF911F910F91FF90D9
:10189000EF900895CF92DF92EF92FF920F931F93F4
:1018A000CF93DF93EC0180916502882339F4D093C4
:1018B0006702C09366020E94E61347C0C0906602AA
:1018C000D090670200E010E0EE24FF2437C0A8812A
:1018D000B981FD0164817581F60140815181FA0170
:1018E000848195819B01281B390B37FF0FC0861B14
:1018F000970B95838483DB82CA82012B29F4D093D2
:101900006702C093660221C0F7010CC0F601828114
:1019100093812115310549F4FD01158214829B83C1
:101920008A83F601D383C28310C0FD0135832483EB
:101930000097B9F30F5F1F4F76016C01809165022C
:1019400090E00817190718F2ECCF809165028F5FBD
:1019500080936502DF91CF911F910F91FF90EF90DF
:10196000DF90CF9008958CE00E94E009882311F069
:1019700082E008958BE00E94ED098823A1F40E9483
:10198000F712813081F480E00E94A91388EE93E081
:1019900024EF31E0F9013197F1F70197D9F70E946F
:1019A0003C0D81E008958CE00E94D00987E0089505
:1019B000EF92FF920F931F938CE00E94ED09882312
:1019C00009F452C00E941513139A81E28A95F1F727
:1019D00013980B98EE24FF2487010CC0039B0AC0C8
:1019E00082E48A95F1F780B186958695869580FF89
:1019F00026C00FC00894E11CF11C011D111D80E2DE
:101A0000E81681EAF80687E0080780E0180731F752
:101A100022C00E941F13EE24FF24870102C0039BF3
:101A20000EC00894E11CF11C011D111D90E2E91685
:101A300091EAF90697E0090790E0190781F70E94FB
:101A4000271380E090E2E91691EAF90697E009078A
:101A500090E0190708F081E00B9A1398813021F08B
:101A60000E94F1129C0102C020E030E0C9011F91E8
:101A70000F91FF90EF9008950B9A139808950E948C
:101A800055130E945C100E948D0F0E94CA130E9481
:101A90009C040E945F0A78940895000008951F92A4
:101AA0000F920FB60F9211242F933F934F935F9392
:101AB0006F937F938F939F93AF93BF93EF93FF9316
:101AC000E0918D01F0918E01309709F00995FF9119
:101AD000EF91BF91AF919F918F917F916F915F91A6
:101AE0004F913F912F910F900FBE0F901F9018951F
:101AF0001F920F920FB60F9211242F933F934F9383
:101B00005F936F937F938F939F93AF93BF93EF9365
:101B1000FF93E0918F01F0919001309709F00995C2
:101B2000FF91EF91BF91AF919F918F917F916F91B5
:101B30005F914F913F912F910F900FBE0F901F908B
:101B400018951F920F920FB60F9211242F933F9367
:101B50004F935F936F937F938F939F93AF93BF93B5
:101B6000EF93FF93E0919101F0919201309709F08A
:101B70000995FF91EF91BF91AF919F918F917F91C7
:101B80006F915F914F913F912F910F900FBE0F90EA
:101B90001F9018951F920F920FB60F9211242F933A
:101BA0003F934F935F936F937F938F939F93AF93E5
:101BB000BF93EF93FF93E0917F01F0918001309705
:101BC00009F00995FF91EF91BF91AF919F918F918E
:101BD0007F916F915F914F913F912F910F900FBE29
:101BE0000F901F9018951F920F920FB60F9211240D
:101BF0002F933F934F935F936F937F938F939F9315
:101C0000AF93BF93EF93FF93E0918101F091820135
:101C1000309709F00995FF91EF91BF91AF919F9196
:101C20008F917F916F915F914F913F912F910F9085
:101C30000FBE0F901F9018951F920F920FB60F9224
:101C400011242F933F934F935F936F937F938F93C1
:101C50009F93AF93BF93EF93FF93E0918301F09134
:101C60008401309709F00995FF91EF91BF91AF91F1
:101C70009F918F917F916F915F914F913F912F91A4
:101C80000F900FBE0F901F9018951F920F920FB6D6
:101C90000F9211242F933F934F935F936F937F93F2
:101CA0008F939F93AF93BF93EF93FF93E09187013F
:101CB000F0918801309709F00995FF91EF91BF915C
:101CC000AF919F918F917F916F915F914F913F91D4
:101CD0002F910F900FBE0F901F9018951F920F928B
:101CE0000FB60F9211242F933F934F935F936F93EF
:101CF0007F938F939F93AF93BF93EF93FF93E09165
:101D00008901F0918A01309709F00995FF91EF91CF
:101D1000BF91AF919F918F917F916F915F914F9103
:101D20003F912F910F900FBE0F901F9018951F920B
:101D30000F920FB60F9211242F933F934F935F93FF
:101D40006F937F938F939F93AF93BF93EF93FF9383
:101D5000E0918501F0918601309709F00995FF9196
:101D6000EF91BF91AF919F918F917F916F915F9113
:101D70004F913F912F910F900FBE0F901F9018958C
:101D80001F920F920FB60F9211242F933F934F93F0
:101D90005F936F937F938F939F93AF93BF93EF93D3
:101DA000FF93E0918B01F0918C01309709F0099538
:101DB000FF91EF91BF91AF919F918F917F916F9123
:101DC0005F914F913F912F910F900FBE0F901F90F9
:101DD00018951F920F920FB60F9211242F933F93D5
:101DE0004F935F936F937F938F939F93AF93BF9323
:101DF000EF93FF93E0917501F0917601309709F030
:101E00000995FF91EF91BF91AF919F918F917F9134
:101E10006F915F914F913F912F910F900FBE0F9057
:101E20001F9018951F920F920FB60F9211242F93A7
:101E30003F934F935F936F937F938F939F93AF9352
:101E4000BF93EF93FF93E0917701F0917801309782
:101E500009F00995FF91EF91BF91AF919F918F91FB
:101E60007F916F915F914F913F912F910F900FBE96
:101E70000F901F9018951F920F920FB60F9211247A
:101E80002F933F934F935F936F937F938F939F9382
:101E9000AF93BF93EF93FF93E0917901F0917A01B3
:101EA000309709F00995FF91EF91BF91AF919F9104
:101EB0008F917F916F915F914F913F912F910F90F3
:101EC0000FBE0F901F9018951F920F920FB60F9292
:101ED00011242F933F934F935F936F937F938F932F
:101EE0009F93AF93BF93EF93FF93E0917B01F091AA
:101EF0007C01309709F00995FF91EF91BF91AF9167
:101F00009F918F917F916F915F914F913F912F9111
:101F10000F900FBE0F901F90189580E10E94E0096E
:101F2000882311F082E00895EDE6F1E0119211921C
:101F300081E0ED3AF807D1F781E00895FF920F9321
:101F40001F93CF93DF93F82E8AE0F816B1F08F1528
:101F500048F0E8E0FE16B9F1EF1538F1F7E0FF16AA
:101F600051F43BC08DE0F81659F0EBE1FE1689F014
:101F7000FCE0FF1641F001E041C01092060203C0F0
:101F8000109206023AC080910702815080930702A6
:101F900034C00E94540314C080E061E00E945104E8
:101FA000809106028F5F809306028091060287FF70
:101FB000F3CF1092060280910702815080930702AE
:101FC00000E011E01CC0809106028823B1F08091EE
:101FD000060286508093060210C081E00E94B41170
:101FE00064EF71E080E090E04DE750E024E630E0FF
:101FF0000E94C01181E00E941B1100E010E080915E
:102000000702609106020E94FC03002351F185E063
:10201000F89EC0011124EC01CD59DE4F8C01085906
:102020001E4FFE01849161E00E9451042196C01769
:10203000D107B9F780E061E00E9451048091060267
:102040008A5F809306028091060290E08C379105AA
:102050003CF01092060280910702815080930702A3
:1020600011E080910702837080930702113059F4C8
:1020700080910802813039F4E0910902F0910A025E
:10208000309709F0099580E090E0DF91CF911F91A2
:102090000F91FF9008951F93182F86E00E94ED097D
:1020A000882319F0812F0E9457101F91089585FDF4
:1020B0005D9886FD5E980895F8940E94B71081E0BF
:1020C0000E94641081E00895813049F0F8948130D5
:1020D00020F18230B1F0833009F045C017C02C9A4E
:1020E00080E8809361001092610080E090E0000041
:1020F000019688329105D9F71092680010926B0012
:10210000089580E88093610083E004C080E88093B4
:10211000610088E08093610028C080E090E00000CA
:1021200001962DE680369207D1F72C9880E090E05A
:10213000000001962DE680369207D1F710927A00C2
:102140008FEF8093640080916800816080936800C5
:1021500080916B00846080936B00789483B781607A
:1021600083BF88950895823008F078940895249A62
:102170002C9A089583E58CBD81E08DBD8DE08A9514
:10218000F1F7089583E58CBD1DBC84EF91E00197C4
:10219000F1F708958FE78CBD1DBC84EF91E00197A6
:1021A000F1F7089583E58CBD81E08DBD8DE08A95C2
:1021B000F1F7089583E58CBD81E08DBD84EF91E05A
:1021C0000197F1F708951F93162F0E94DE0482E015
:1021D0000E94ED09882329F01EBD0DB407FEFDCF36
:1021E0008EB51F9108958AE00E94D009882329F4B2
:1021F00081E00E9416121092BE01089589E00E94AB
:10220000D0098823B9F48091BD01882311F00E9480
:102210005C1282E00E9416128091CB019091CC0159
:10222000009731F00E94E3221092CC011092CB0172
:102230001092BD010895813029F0823029F40E9466
:10224000FE1008950E94F31008950F931F93CF93EB
:10225000DF9380E291E00E944B229C019093CC019D
:102260008093CB01892B11F480E039C08901C0E053
:10227000D0E0BE0180E090E00E940B1F20E030E043
:1022800040EA51E40E946A1E27EF35E740E05FE331
:102290000E94D61F9B01AC0160E070E080E291E4F7
:1022A0000E9443209B01AC01CA01B9012DEC3CEC1A
:1022B00042E851E40E94D61F0E94991F2AE030E0B4
:1022C00040E050E00E94C821F8016193719381932E
:1022D00091938F012196C834D10559F681E0DF91A1
:1022E000CF911F910F9108958AE00E94E009882301
:1022F00011F082E008951092C8011092C70181E0A8
:102300000E94321281E08093BE0108951F9389E0FC
:102310000E94E009882311F082E024C08BE00E9433
:10232000ED098823D9F40E942511182F813011F06E
:1023300086E018C01092BF011092C0011092C10136
:102340001092C2018DE06EE174E10E94F91382E007
:102350000E9432121093BD0181E004C089E00E9406
:10236000D00987E01F910895813021F0823029F053
:1023700084E008950E94741108950E9486110895C2
:102380006F927F928F929F92AF92BF92CF92DF9285
:10239000EF92FF920F931F93CF93DF933B014C017A
:1023A0005A01E9018AE00E94ED09882381F1209712
:1023B00041F19501442737FD4095542FBE01C536A4
:1023C000D10510F064E670E080E090E00E94C82142
:1023D00024E630E040E050E00E94D82179018A01F3
:1023E000C401B3010E942114C7010E94DF0B60E009
:1023F00070E080E090E00E942114C5018E199F09D1
:1024000004C0A114B10419F0C5010E94DF0BDF91D3
:10241000CF911F910F91FF90EF90DF90CF90BF90E1
:10242000AF909F908F907F906F900895823029F4A5
:10243000809181008E7F809381008091BD018130E9
:1024400031F48091BE01813011F400000895809133
:10245000BD01813021F08091BE01813011F45F987F
:1024600057980895982F8091BD01882331F4809169
:10247000BE01882311F4579A5F988091BD0188238B
:10248000D1F49230C1F410928000109281008091BA
:1024900081008860809381008091810081608093B9
:1024A0008100109285001092840081E08093890061
:1024B00080E9809388000895EFE6F0E080818D7FC9
:1024C00080830895982F81E080934202913051F0EB
:1024D000913018F0923041F403C010922A0204C0E7
:1024E00010922A0210922B02109242020895982F05
:1024F00081E080934202913071F0913018F0923077
:1025000071F405C070931F0260931E0208C070939F
:102510001F0260931E0270932102609320021092AA
:102520004202089521E020934202EEE1F2E091831D
:102530008083329671836083109242020895982FAF
:1025400081E080934202913051F0913018F0923046
:1025500041F403C060932C0204C060932C0260938A
:102560002D021092420208950F931F93CF93DF9391
:10257000EB018A01813001F1813018F0823061F580
:102580000DC08091160290911702892B11F080E006
:102590001AC010922302109222021EC080911602CD
:1025A00090911702892B21F080E00E94861404C0CC
:1025B0001092230210922202809118029091190227
:1025C000892B31F081E0BE01A8010E94861404C06D
:1025D0001092250210922402DF91CF911F910F914A
:1025E00008952091450230914602C90108958BE07B
:1025F0000E94E009882311F082E0089589E00E949A
:10260000ED09882369F410924602109245028DE08C
:1026100063EF74E10E94F9130E94341381E008957E
:102620008BE00E94D00982E008952091450230910C
:1026300046021092460210924502C90108958BE0AD
:102640000E94ED09882311F00E94491308958BE040
:102650000E94ED09882311F00E944F13209145023A
:1026600030914602C901089510928000E1E8F0E03F
:102670001082808188608083808181608083109255
:102680008500109284001092890088EC8093880065
:102690000895EFE6F0E08081826080830895EFE6A0
:1026A000F0E080818D7F80830895CF93DF93C0E039
:1026B000D0E08C2F60E00E9464132196C531D105D3
:1026C000C1F7DF91CF910895853128F4E82FF0E02C
:1026D000EF50FE4F608308951F93CF93DF93EC017B
:1026E000009799F181E00E94ED09882351F187E07C
:1026F0000E94DE0418EC812F8A95F1F782E06AE0EF
:102700000E942F0582E064EB0E942F05812F8A959D
:10271000F1F782E060E00E94E3108883812F8A95C0
:10272000F1F782E060E00E94E31089831A95F1F7E7
:1027300082E060E00E94E3108A8387E00E94DE046A
:1027400004C0188219828DE28A83DF91CF911F9194
:1027500008951F93182F81E00E94ED098823C1F08E
:1027600087E00E94DE0488EC8A95F1F782E06AE057
:102770000E942F0582E065EB0E942F0582E0612F09
:102780000E942F0589EE8A95F1F787E00E94DE040A
:102790001F91089588E00E94E009882311F082E0EB
:1027A00008951092650210926702109266021092CC
:1027B000CD011092CE0180E166EF74E10E940D140C
:1027C0000E94EA130E94F31381E0089581E0809350
:1027D000CE01089584B5826084BD85B5846085BDD1
:1027E0008EE487BD0895EEE6F0E08081826080830C
:1027F0000895E82F803268F48051833050F0F0E083
:10280000EE0FFF1FE359FE4F2081318171836083FA
:1028100002C020E030E0C9010895803218F020E0C5
:1028200030E00AC0E82FF0E0EE0FFF1FE359FE4F43
:102830002081318171836083C90108950E9445140C
:102840000895EF92FF920F931F937B018C018AE012
:102850000E94ED098823A1F08091BE01882381F0B8
:10286000D801C701880F991FAA1FBB1F9093CA01E7
:102870008093C901E114F1040105110509F45F9881
:102880001F910F91FF90EF9008958091BF0190915B
:10289000C001A091C101B091C2012091C30130914A
:1028A000C4014091C5015091C601280F391F4A1F2C
:1028B0005B1F2093BF013093C0014093C10150932F
:1028C000C2018091BF019091C001A091C101B0915E
:1028D000C2018851964FA040B040BCF08BB18058E7
:1028E0008BB98091BF019091C001A091C101B091BD
:1028F000C2018851964FA040B0408093BF01909391
:10290000C001A093C101B093C2010895EF92FF925C
:102910000F931F93CF93DF93EB01882321F0813036
:1029200009F05AC02DC09A0140E050E0CA01B90137
:102930000E94C8212091160230911702220F331FE6
:1029400040E050E00E94D82179018A01A801970156
:10295000220F331F441F551FCE01A0E0B0E08217A5
:102960009307A407B50728F0F0922302E092220211
:1029700033C0D695C795D0932302C09322022CC0B2
:102980009A0140E050E0CA01B9010E94C82120919B
:10299000180230911902220F331F40E050E00E94CC
:1029A000D82179018A01A8019701220F331F441F02
:1029B000551FCE01A0E0B0E082179307A407B5072A
:1029C00028F0F0922502E092240206C0D695C79521
:1029D000D0932502C0932402DF91CF911F910F91D4
:1029E000FF90EF9008950E94161508950E94FD141F
:1029F0000E9449150E942215089588E00E94ED0961
:102A0000882311F484E008958091CE01882311F485
:102A100083E008958091CD01882311F082E008952C
:102A20000E9496178130E1F380E00895CF93DF9301
:102A3000C5E4D2E088819981019688839983DF91EA
:102A4000CF9108958091BE01813011F58091C70129
:102A50009091C8012091C9013091CA01280F391FF6
:102A60003093C8012093C7018091C7019091C8019C
:102A7000885E93406CF08BB180588BB98091C70110
:102A80009091C801885E93409093C8018093C701DC
:102A9000089587E00E94ED09882309F4AAC0809177
:102AA000160290911702892B09F180913A029091B8
:102AB0003B022091160230911702820F931F9093D0
:102AC0003B0280933A0280913A0290913B02885EE9
:102AD0009340A4F080913A0290913B02885E93402B
:102AE00090933B0280933A0241E009C080910E022C
:102AF00090910F02909313028093120240E0809114
:102B0000180290911902892B09F180913C02909151
:102B10003D022091180230911902820F931F909369
:102B20003D0280933C0280913C0290913D02885E80
:102B30009340A4F080913C0290913D02885E9340C6
:102B400090933D0280933C0261E009C080911002A5
:102B500090911102909315028093140260E0842FEB
:102B60000E94FA158091360290913702209112024C
:102B700030911302280F391F309337022093360209
:102B80008091360290913702885E934014F440E0C1
:102B90000BC08091360290913702885E93409093EB
:102BA00037028093360241E08091380290913902D9
:102BB0002091140230911502280F391F30933902E9
:102BC000209338028091380290913902885E9340B8
:102BD00014F460E00BC08091380290913902885E55
:102BE0009340909339028093380261E0842F0E94D1
:102BF0003F1608958823F1F020910E0230910F02C4
:102C00008091120290911302281B390B12161306A1
:102C100034F48091120290911302019607C0232B85
:102C200049F0809112029091130201979093130240
:102C300080931202662311F120911002309111024B
:102C40008091140290911502281B390B121613065D
:102C500054F48091140290911502019690931502FC
:102C6000809314020895232B49F0809114029091CF
:102C700015020197909315028093140208950F9303
:102C80001F93182F062F80914202882309F0E7C076
:102C900080912A02882309F05AC0809112029091F3
:102CA0001302892BE9F48091CF01837E8093CF01B9
:102CB0001092330280913E02882309F45DC0609136
:102CC0002C0280E00E944E09E0914002F091410206
:102CD000309709F451C081E0808310923E024CC0CD
:102CE00080910C02813041F480911E0290911F026C
:102CF000019711F411E002C01123F1F1E0913102CA
:102D0000F0E0EE5EFE4F9091CF01937E8081892BA3
:102D10008093CF0180912F02882321F4809131028A
:102D20008F5F03C080913102815080933102809186
:102D3000310283708093310281E08093330280916D
:102D40000C028130C9F480E00E94421715C09091B6
:102D5000CF01937E9093CF01E0913102F0E0EE5EDF
:102D6000FE4F8081892B8093CF0182E080933302D4
:102D7000109213021092120280912B02882309F004
:102D800059C08091140290911502892BE9F4809129
:102D9000CF018F718093CF011092340280913F0256
:102DA000882309F45CC060912D0281E00E944E09E5
:102DB000E0914002F0914102309709F450C081E067
:102DC000818310923F024BC080910D02813041F40B
:102DD0008091200290912102019711F401E002C03C
:102DE0000023E9F1E0913202F0E0EA5EFE4F9091BB
:102DF000CF019F718081892B8093CF018091300218
:102E0000882321F4809132028F5F03C080913202C7
:102E1000815080933202809132028370809332021B
:102E200081E08093340280910D028130C1F40E94D0
:102E3000421715C09091CF019F719093CF01E091FF
:102E40003202F0E0EA5EFE4F8081892B8093CF0151
:102E500082E0809334021092150210921402809145
:102E60003502882331F48FEC91E0612F402F0E94CE
:102E7000041888B183709091CF01892B88B91F9174
:102E80000F910895882321F0813009F04EC027C0AA
:102E900080911E0290911F02892B49F080911E02A1
:102EA00090911F02019790931F0280931E028091C0
:102EB0003E028823D1F520911E0230911F0280919D
:102EC0002202909123022817390779F580E060E00B
:102ED00070E00E94EA0781E080933E0208958091AD
:102EE000200290912102892B49F08091200290913B
:102EF00021020197909321028093200280913F024A
:102F0000882399F42091200230912102809124029B
:102F1000909125022817390741F481E060E070E0C4
:102F20000E94EA0781E080933F020895FF920F9389
:102F30001F93CF93DF9380916502882309F459C0D2
:102F40000091660210916702F801C081D1818C81E5
:102F50009D8101979D838C83181619060CF449C036
:102F6000898180FF05C08E81882311F481E08E83E2
:102F7000898181FF03C0EF81F88509958091650201
:102F80008230A8F0F8018281938190936702809348
:102F9000660213821282E0910000F09101008481A8
:102FA0009581181619063CF0FF24F39405C0109281
:102FB000670210926602FF2480916502815080931F
:102FC000650280916502882311F40E9401188981AD
:102FD00082FF08C08A819B819D838C83C8010E94E7
:102FE0004A0C08C0C8010E94E32289818F7E898330
:102FF00001C0FF248F2DDF91CF911F910F91FF9082
:1030000008951092CE010895FC0180913302823020
:1030100069F48091D30191E089278093D3018823BB
:1030200009F03EC08081837E80833AC08091120285
:1030300090911302C397A4F56623D1F02091120258
:103040003091130280E690E0BC01269FC001279FCB
:10305000900D369F900D1124880F892F881F990B92
:10306000909327028093260281E08093D10118C0BB
:103070008091D1018823A1F08091260290912702AE
:1030800001979093270280932602809126029091C7
:103090002702892B29F48081837E80831092D101BD
:1030A00080913402823069F48091D20191E08927C5
:1030B0008093D201882309F03EC080818F71808384
:1030C00008958091140290911502C397A4F54423AA
:1030D000D1F0209114023091150280E690E0AC010D
:1030E000249FC001259F900D349F900D1124880FBF
:1030F000892F881F990B909329028093280281E0E1
:103100008093D00108958091D0018823A1F080910F
:103110002802909129020197909329028093280216
:103120008091280290912902892B29F480818F7146
:1031300080831092D0010895CF93DF93FC013081FA
:103140002091E701321303C0208121111BC0EC0143
:103150000E9454038881813041F088F0823041F030
:10316000833049F489E391E008C080E291E005C032
:103170008DE291E002C083E491E00E949624888170
:103180008093E701DF91CF910895DC01FB019C91D1
:103190008081981325C011962D913C9112978181C1
:1031A000928128173907E1F413962D913C911497D9
:1031B000838194812817390799F415962D913C91B4
:1031C0001697858196812817390751F417964D91E6
:1031D0005C9118972781308581E04217530709F0E9
:1031E00080E00895CF93DF93EC010E94D80C9C01FE
:1031F000AAE0B0E00E94FA210E940B1F27EE3AE3FA
:103200004DE85CE30E94D61F0E94DC1E6A877B8724
:103210008C879D87DF91CF910895CF93DF93EC0149
:103220009B018091E60181110AC041E061E08DEDD2
:1032300091E00E940C0C81E08093E60111C0809126
:10324000E301882369F080E40E94790480E00E9411
:10325000F909888381E00E94F90989831092E301CA
:10326000DF91CF910895FC0181E0808388EC90E0AC
:10327000928381839483838380E991E0968385831D
:103280009087878308956F927F928F929F92AF92DB
:10329000BF92CF92DF92EF92FF920F931F93CF9343
:1032A000DF93FB01D080F1E0DF124EC0EC0182E041
:1032B000982E988260E082E00E944E091F921F9231
:1032C0001F92DF9290E9692E6F921F9228EC722E66
:1032D0007F921F9286E98F9388248394A12CB12C2E
:1032E000C12C30E9E32EFF24F39408EC10E026E92A
:1032F00030E041E062E080E00E94F3051F921F92FF
:103300001F92DF926F921F927F921F928CE88F9391
:103310002CE830E040E062E080E00E94F305988213
:1033200088EC90E09A8389839C838B8380E991E089
:103330009E838D8398878F838DB79EB742960FB6F5
:10334000F8949EBF0FBE8DBFDF91CF911F910F915B
:10335000FF90EF90DF90CF90BF90AF909F908F90B5
:103360007F906F900895CF93DF93EC0164ED71E04F
:103370000E94C518811114C06F8178858D819E814E
:103380000E9498076B817C8189819A810E94350710
:1033900089E0FE01A4EDB1E001900D928A95E1F77C
:1033A000DF91CF910895CF93DF93CDB7DEB76297CA
:1033B0000FB6F894DEBF0FBECDBF0E946E040E9410
:1033C00076030E948C060E942A030E94B30C81E0BF
:1033D0000E9435031092EA011092E9011092EC016B
:1033E0001092EB011092EE011092ED011092F0019B
:1033F0001092EF011092E80182E591E00E9496247C
:1034000088EB9BE00E94DF0B0E94540362E573E0AF
:1034100080E00E94830A83E0782E98ECE92EF12C5C
:1034200024E6C22ED12C00E911E03BE4A32EB12CFE
:103430004FEA842E912C6DE770E0CE0101960E9438
:103440000D19CE0101960E94F21888EE91E00E94BB
:1034500033198B859C85AD85BE854A97A105B1053D
:1034600078F08B859C85AD85BE85CC97A105B1058F
:1034700038F47092E8019092EC018092EB010EC05A
:103480008B859C85AD85BE85CD97A105B10558F08E
:103490007092E801B092EC01A092EB01F092EA0187
:1034A000E092E90112C08B859C85AD85BE85499768
:1034B000A105B10590F47092E801F092EC01E09260
:1034C000EB01D092EA01C092E9011093EE01009362
:1034D000ED011093F0010093EF01BE016F5F7F4F8C
:1034E00088EE91E00E94431988EE91E00E94B319A2
:1034F000BE016F5F7F4F88EE91E00E949C189BCFCA
:10350000A0E1B0E0E6E8FAE10C9414227C011B0192
:103510006A01FC0117821682838181FF44C39E01E8
:103520002F5F3F4F3901F7019381F10193FD8591A1
:1035300093FF81911F01882309F431C3853239F447
:1035400093FD859193FF81911F01853239F4B70175
:1035500090E00E945A2456016501E5CF10E0512CFD
:10356000912CFFE1F915D8F08B3279F038F48032E4
:1035700079F08332A1F4F92DF0612EC08D3261F023
:10358000803369F4292D21602DC0392D3260932EAE
:10359000892D8460982E2AC0E92DE86015C097FC1B
:1035A0002DC020ED280F2A3088F496FE06C03AE0A0
:1035B000139F200D1124122F19C08AE0589E200D50
:1035C0001124522EE92DE0629E2E10C08E3231F46D
:1035D00096FCE5C2F92DF0649F2E08C08C3621F4CC
:1035E000292D2068922E02C0883641F4F10193FD06
:1035F000859193FF81911F018111B3CF9BEB980FB0
:10360000933020F4992D9061805E07C09BE9980F5C
:10361000933008F066C1992D9F7E96FF16E09F7348
:10362000992E853619F49064992E08C0863621F4B7
:10363000392F3068932E02C01111115097FE07C028
:103640001C3350F444244394410E27E00BC018303F
:1036500038F027E017E005C027E09CE3492E02C0C0
:10366000212F412C560184E0A80EB11CF601608187
:10367000718182819381042DA3010E946C236C01CE
:10368000F981FC87F0FF02C0F3FF06C091FC06C081
:1036900092FE06C000E205C00DE203C00BE201C0CD
:1036A00000E08C858C7019F001115AC29BC297FE04
:1036B00010C04C0CFC85F4FF04C08A81813309F4EE
:1036C0004A94141474F528E0241578F588E0482EFF
:1036D0002CC096FC2AC0812F90E08C159D059CF093
:1036E0003CEFC3163FEFD30674F0892D8068982E07
:1036F0000AC0E2E0F0E0EC0FFD1FE10FF11D808158
:10370000803319F411501111F4CF97FE0EC04424E8
:103710004394410E812F90E0C816D9062CF41C1951
:1037200004C04424439401C010E097FE06C01C145A
:103730001D0434F4C601019605C085E090E002C086
:1037400081E090E001110196112331F0212F30E04A
:103750002F5F3F4F820F931F252D30E08217930775
:1037600014F4581A01C0512C892D897049F4552040
:1037700039F0B70180E290E00E945A245A94F7CFC2
:10378000002329F0B701802F90E00E945A2493FC77
:1037900009C0552039F0B70180E390E00E945A2417
:1037A0005A94F7CF97FE4CC04601D7FE02C0812C39
:1037B000912CC60188199909F301E80FF91FFE87BA
:1037C000ED87960124193109388B2F87012F10E0DE
:1037D0001195019511093FEF8316930629F4B7015E
:1037E0008EE290E00E945A24C814D9044CF08F85D0
:1037F00098898815990524F4ED85FE85818101C09D
:1038000080E3F1E08F1A91082D853E852F5F3F4FB1
:103810003E872D87801691062CF0B70190E00E941C
:103820005A24D9CFC814D90441F49A81963320F48C
:10383000953319F43C8534FF81E3B70190E04EC025
:103840008A81813319F09C859F7E9C87B70190E027
:103850000E945A24111105C094FC18C085E690E01E
:1038600017C0B7018EE290E00E945A241E5F82E0EA
:1038700001E0080FF301E80FF11D8081B70190E02E
:103880000E945A24802F0113F3CFE6CF85E490E005
:10389000B7010E945A24D7FC06C0C114D10441F4D8
:1038A000EC85E4FF05C0D194C194D1088DE201C03C
:1038B0008BE2B70190E00E945A2480E32AE0C2160E
:1038C000D1042CF08F5FFAE0CF1AD108F7CFB701FF
:1038D00090E00E945A24B701C601C0960E945A2463
:1038E00054C1833631F0833779F0833509F056C0FF
:1038F00020C0560132E0A30EB11CF60180818983FD
:1039000001E010E0630112C05601F2E0AF0EB11CFD
:10391000F601C080D18096FE03C0612F70E002C026
:103920006FEF7FEFC6010E944F248C01F92DFF77C6
:1039300014C0560122E0A20EB11CF601C080D18055
:1039400096FE03C0612F70E002C06FEF7FEFC601EB
:103950000E9444248C01F92DF0689F2EF3FD1AC0BB
:10396000852D90E008171907A8F4B70180E290E0D0
:103970000E945A245A94F4CFF60197FC859197FE41
:1039800081916F01B70190E00E945A2451105A941E
:10399000015011090115110579F7F7C0843611F0AE
:1039A000893661F5560197FE09C024E0A20EB11CCC
:1039B000F60160817181828193810AC0F2E0AF0ECD
:1039C000B11CF60160817181072E000C880B990BE8
:1039D000F92DFF769F2E97FF09C0909580957095E1
:1039E00061957F4F8F4F9F4FF0689F2E2AE030E008
:1039F000A3010E94C624C82EC6183FC0092D8537D2
:103A000021F40F7E2AE030E01DC0097F8F3691F04F
:103A100018F4883559F0C3C0803719F0883711F091
:103A2000BEC0006104FF09C0046007C094FE08C066
:103A3000066006C028E030E005C020E130E002C0AA
:103A400020E132E0560107FF09C084E0A80EB11C56
:103A5000F601608171818281938108C0F2E0AF0E2E
:103A6000B11CF6016081718180E090E0A3010E94A9
:103A7000C624C82EC6180F77902E96FE0BC0092DAF
:103A80000E7FC11650F494FE0AC092FC08C0092DA6
:103A90000E7E05C0DC2C092D03C0DC2C01C0D12E0C
:103AA00004FF0DC0FE01EC0DF11D8081803311F487
:103AB000097E09C002FF06C0D394D39404C0802FAE
:103AC000867809F0D39403FD11C000FF06C01C2DB9
:103AD000D51480F4150D1D190DC0D51458F4B70177
:103AE00080E290E00E945A24D394F7CFD51410F4CA
:103AF0005D1801C0512C04FF10C0B70180E390E0B5
:103B00000E945A2402FF17C001FD03C088E790E01D
:103B100002C088E590E0B7010CC0802F867859F08C
:103B200001FF02C08BE201C080E207FD8DE2B70118
:103B300090E00E945A24C11638F4B70180E390E067
:103B40000E945A241150F7CFCA94F301EC0DF11DD5
:103B50008081B70190E00E945A24C110F5CF15C0B2
:103B6000F4E0F51560F584E0581A93FE1FC00111CA
:103B700027C02C8523FF2AC00EEF10E0392D3071AD
:103B8000932EF8018491811124C0552009F4E4CCCE
:103B9000B70180E290E00E945A245A94F6CFF701D0
:103BA0008681978126C08FEF9FEF23C0B70180E207
:103BB00090E00E945A245A945110F8CFD8CF512C3B
:103BC000B701802F90E00E945A24D3CF02E011E089
:103BD000D5CF91108052B70190E00E945A240F5F18
:103BE0001F4FCFCF23E0251510F483E0BDCF512C1C
:103BF000C0CF6096E2E10C9430225058BB27AA2730
:103C00000E94151E0C945F1F0E94511F38F00E94E5
:103C1000581F20F039F49F3F19F426F40C944E1FDE
:103C20000EF4E095E7FB0C94481FE92F0E94701FEB
:103C300058F3BA17620773078407950720F079F4E1
:103C4000A6F50C94921F0EF4E0950B2EBA2FA02D22
:103C50000B01B90190010C01CA01A0011124FF2739
:103C6000591B99F0593F50F4503E68F11A16F04034
:103C7000A22F232F342F4427585FF3CF4695379533
:103C80002795A795F0405395C9F77EF41F16BA0BF8
:103C9000620B730B840BBAF09150A1F0FF0FBB1FA6
:103CA000661F771F881FC2F70EC0BA0F621F731FEF
:103CB000841F48F4879577956795B795F7959E3F4C
:103CC00008F0B0CF9395880F08F09927EE0F9795DD
:103CD000879508950E947E1E0C945F1F0E94581FB6
:103CE00058F00E94511F40F029F45F3F29F00C94D6
:103CF000481F51110C94931F0C944E1F0E94701F6B
:103D000068F39923B1F3552391F3951B550BBB270A
:103D1000AA2762177307840738F09F5F5F4F220F4F
:103D2000331F441FAA1FA9F335D00E2E3AF0E0E846
:103D300032D091505040E695001CCAF72BD0FE2F90
:103D400029D0660F771F881FBB1F26173707480724
:103D5000AB07B0E809F0BB0B802DBF01FF279358DC
:103D60005F4F3AF09E3F510578F00C94481F0C9439
:103D7000931F5F3FE4F3983ED4F38695779567955C
:103D8000B795F7959F5FC9F7880F911D9695879511
:103D900097F90895E1E0660F771F881FBB1F621730
:103DA00073078407BA0720F0621B730B840BBA0BEE
:103DB000EE1F88F7E09508950E94781F88F09F57BE
:103DC00098F0B92F9927B751B0F0E1F0660F771F3F
:103DD000881F991F1AF0BA95C9F714C0B13091F035
:103DE0000E94921FB1E008950C94921F672F782FC4
:103DF0008827B85F39F0B93FCCF3869577956795FA
:103E0000B395D9F73EF490958095709561957F4F65
:103E10008F4F9F4F0895E89409C097FB3EF490950B
:103E20008095709561957F4F8F4F9F4F9923A9F093
:103E3000F92F96E9BB279395F69587957795679522
:103E4000B795F111F8CFFAF4BB0F11F460FF1BC066
:103E50006F5F7F4F8F4F9F4F16C0882311F096E9F9
:103E600011C0772321F09EE8872F762F05C06623A7
:103E700071F096E8862F70E060E02AF09A95660F60
:103E8000771F881FDAF7880F9695879597F9089519
:103E900097F99F6780E870E060E008959FEF80ECFD
:103EA000089500240A9416161706180609060895A0
:103EB00000240A9412161306140605060895092E06
:103EC0000394000C11F4882352F0BB0F40F4BF2B75
:103ED00011F460FF04C06F5F7F4F8F4F9F4F0895B5
:103EE00057FD9058440F551F59F05F3F71F04795AB
:103EF000880F97FB991F61F09F3F79F08795089590
:103F0000121613061406551FF2CF4695F1DF08C0AE
:103F1000161617061806991FF1CF869571056105CB
:103F200008940895E894BB2766277727CB0197F973
:103F300008950E94781FA8F19E57B0F1985160F043
:103F400039F1983070F5092E9927660F771F881F71
:103F5000991F0A94D1F71CC0BB27993F4CF4B111AB
:103F6000B1E0B62B672F782F8827985FB1F708C08C
:103F7000869577956795B79508F4B1609395C1F7E5
:103F8000BB0F30F411F460FF03C06F5F7F4F8F4FA2
:103F90003EF490958095709561957F4F8F4F9F4F20
:103FA000089568940C94931F0C94921F0E94E91F2B
:103FB0000C945F1F0E94511F38F00E94581F20F080
:103FC000952311F00C94481F0C944E1F11240C944F
:103FD000931F0E94701F70F3959FC1F3950F50E0DF
:103FE000551F629FF001729FBB27F00DB11D639FAB
:103FF000AA27F00DB11DAA1F649F6627B00DA11D51
:10400000661F829F2227B00DA11D621F739FB00DF6
:10401000A11D621F839FA00D611D221F749F332766
:10402000A00D611D231F849F600D211D822F762FFF
:104030006A2F11249F5750409AF0F1F088234AF0DC
:10404000EE0FFF1FBB1F661F771F881F9150504048
:10405000A9F79E3F510580F00C94481F0C94931FC4
:104060005F3FE4F3983ED4F3869577956795B795CF
:10407000F795E7959F5FC1F7FE2B880F911D9695E9
:10408000879597F90895FA01EE0FFF1F30962105E5
:104090003105A1F16115710561F48038BFE39B071B
:1040A00049F168949038810561F08038BFEF9B0733
:1040B00041F099234AF5FF3FE1053105210519F14A
:1040C000E8940894E795D901AA2329F4AB2FBE2FD1
:1040D000F85FD0F310C0FF5F70F4A695E0F7F739F2
:1040E00050F019F0FF3A38F49F779F930DD00F905E
:1040F00007FC9058089546F00C944E1F60E070E065
:1041000080E89FE308954FE79F775F934F933F9336
:104110002F930E943E212F913F914F915F910E94DA
:10412000D61F0C949B2029F416F00C94481F0C9475
:10413000921F0C944E1F0E94781FA8F39638A0F788
:1041400007F80F92E8942BE33AEA48EB5FE70E9406
:10415000EC1F0F920F920F924DB75EB70F920E9415
:104160008621ECE7F0E00E94CD204F915F91EF9126
:10417000FF91E595EE1FFF1F49F0FE57E0684427C9
:10418000EE0F441FFA95E1F74195550B0E9400216F
:104190000F9007FE0C94F4200895DF93CF931F93A4
:1041A0000F93FF92EF92DF927B018C01689406C01F
:1041B000DA2EEF010E94E91FFE01E894A5912591F6
:1041C000359145915591A6F3EF010E94151EFE0110
:1041D0009701A801DA9469F7DF90EF90FF900F91B3
:1041E0001F91CF91DF9108959B01AC0160E070E0D9
:1041F00080E89FE30C946A1E0C94481F0C94BA212B
:104200000E94781FD8F39923C9F3940F511DA3F38B
:104210009150504094F059F0882332F0660F771F88
:10422000881F91505040C1F79E3F51052CF7880FD1
:10423000911D9695879597F908955F3FACF0983E4C
:104240009CF0BB27869577956795B79508F4B16084
:104250009395C1F7BB0F58F711F460FFE8CF6F5F7C
:104260007F4F8F4F9F4FE3CF0C94931F16F00C940A
:10427000BA210C944E1F68940C94481F0E94781F1A
:10428000A8F39923C1F3AEF3DF93CF931F930F935A
:10429000FF92C92FDD2788232AF02197660F771F09
:1042A000881FDAF720E030E040E85FEB9FE38839D1
:1042B00020F0803E38F021968F770E94FE1DE4EAC0
:1042C000F0E004C00E94FE1DE1EDF0E00E94CD2070
:1042D0008B01BE01EC01FB2E6F5771097595771F9D
:1042E000880B990B0E940D1F28E132E741E35FE341
:1042F0000E94E91FAF2D9801AE01FF900F911F9111
:10430000CF91DF910E94151E0C945F1FFA01DC0112
:10431000AA0FBB1F9B01AC01BF5728F422273327EC
:104320004427507820C0B75190F4AB2F0024469515
:1043300037952795011CA395D2F3002071F0220F29
:10434000331F441FB395DAF30ED00C94FD1D61307A
:104350007105A0E88A07B94630F49B01AC016627D5
:10436000772788279078309621F020833183428305
:10437000538308959F3F31F0915020F487957795AE
:104380006795B795880F911D9695879597F908952C
:10439000DB018F939F930E940922BF91AF91A29F4F
:1043A000800D911DA39F900DB29F900D1124089533
:1043B000A1E21A2EAA1BBB1BFD010DC0AA1FBB1F29
:1043C000EE1FFF1FA217B307E407F50720F0A21B9B
:1043D000B30BE40BF50B661F771F881F991F1A9408
:1043E00069F760957095809590959B01AC01BD0132
:1043F000CF010895A29FB001B39FC001A39F700D8C
:10440000811D1124911DB29F700D811D1124911DDC
:1044100008950E94FA21A59F900DB49F900DA49F2E
:10442000800D911D112408952F923F924F925F921B
:104430006F927F928F929F92AF92BF92CF92DF92B4
:10444000EF92FF920F931F93CF93DF93CDB7DEB719
:10445000CA1BDB0B0FB6F894DEBF0FBECDBF0994AD
:104460002A88398848885F846E847D848C849B8404
:10447000AA84B984C884DF80EE80FD800C811B8112
:10448000AA81B981CE0FD11D0FB6F894DEBF0FBE41
:10449000CDBFED0108950F931F93CF93DF9382302B
:1044A000910510F482E090E0E0916A02F0916B02D5
:1044B00020E030E0A0E0B0E0309719F14081518178
:1044C0000281138148175907C8F08417950769F4CA
:1044D000109731F012960C93129713961C9327C0E5
:1044E00000936A0210936B0222C02115310519F066
:1044F0004217530718F49A01BD01EF01DF01F801DB
:10450000DBCF21153105F9F0281B390B243031059B
:1045100080F48A819B816115710521F0FB019383F1
:10452000828304C090936B0280936A02FE013296EC
:1045300044C0FE01E20FF31F819391932250310991
:10454000398328833AC02091680230916902232B75
:1045500041F420911C0130911D0130936902209398
:10456000680220911A0130911B012115310541F497
:104570002DB73EB740911E0150911F01241B350BF2
:10458000E0916802F0916902E217F307A0F42E1B94
:104590003F0B2817390778F0AC014E5F5F4F2417A7
:1045A000350748F04E0F5F1F509369024093680231
:1045B0008193919302C0E0E0F0E0CF01DF91CF91D1
:1045C0001F910F910895CF93DF93009709F481C055
:1045D000FC01329713821282A0916A02B0916B02A1
:1045E000109781F420813181820F931F20916802FE
:1045F000309169022817390751F5F0936902E09369
:10460000680267C0ED0120E030E0CE17DF0740F41C
:104610004A815B819E0141155105F1F0EA01F5CF18
:10462000D383C28340815181840F951FC817D90756
:1046300059F488819981840F951F02969183808314
:104640008A819B81938382832115310529F4F0931C
:104650006B02E0936A023DC0E901FB83EA83499162
:104660005991C40FD51FEC17FD0761F4808191812A
:10467000840F951F0296E901998388838281938133
:104680009B838A83E0E0F0E012968D919C911397D2
:10469000009719F0FD01DC01F7CF8D919C911197E6
:1046A0009D012E5F3F4F820F931F20916802309132
:1046B00069022817390769F4309729F410926B02C0
:1046C00010926A0202C013821282B0936902A09310
:1046D0006802DF91CF910895283008F027E0332752
:1046E000DA01990F311D87FD916000966105710512
:1046F00039F432602E5F3D9330E32A95E1F7089557
:104700009F3F30F080387105610509F03C5F3C5FE8
:104710003D93913008F08068911DDF93CF931F93F4
:104720000F93FF92EF92192F987F9695E92F969508
:104730009695E90FFF27E05AFE4F99273327EE247D
:10474000FF24A701E70105900894079428F4360F89
:10475000E71EF81E491F511D660F771F881F991FFE
:104760000694A1F70590079428F4E70EF81E491F58
:10477000561FC11D770F881F991F661F0694A1F74A
:104780000590079428F4F80E491F561FC71FD11D26
:10479000880F991F661F771F0694A1F7059007944D
:1047A00020F4490F561FC71FD81F990F661F771F88
:1047B000881F0694A9F784911095177041F0D6953B
:1047C000C79557954795F794E7941A95C1F7E6E092
:1047D000F1E068941590159135916591959105904A
:1047E0007FE27395E118F10A430B560BC90BD00910
:1047F000C0F7E10CF11E431F561FC91FD01D7EF4E8
:10480000703311F48A95E6CFE894015030F0080F28
:104810000AF40027021708F4202F2395022F7A3379
:1048200028F079E37D932A95E9F710C07D932A95C6
:1048300089F6069497956795379517951794E1181B
:10484000F10A430B560BC90BD00998F023957E91C2
:1048500073957A3308F070E37C932013B8F77E9158
:1048600070617D9330F0839571E37D9370E32A95B9
:10487000E1F71124EF90FF900F911F91CF91DF91FD
:10488000992787FD90950895FC010590615070402F
:104890000110D8F7809590958E0F9F1F0895FC0109
:1048A0006150704001900110D8F7809590958E0F5F
:1048B0009F1F08950F931F93CF93DF93FB012381D5
:1048C00021FD03C08FEF9FEF2CC022FF16C0468151
:1048D0005781248135814217530744F4A081B18167
:1048E0009D012F5F3F4F318320838C932681378139
:1048F0002F5F3F4F3783268314C08B01EC01FB01F0
:104900000084F185E02D0995892BE1F6D8011696F2
:104910008D919C911797019617969C938E9316975D
:10492000CE01DF91CF911F910F9108950F931F93A7
:10493000CF93DF93E0916E02F0916F02238121FF0C
:104940001BC08C01D0E0C0E0F80181918F01609123
:104950006E0270916F02DB011896ED91FC91199730
:10496000882331F00995892B79F3DFEFCFEFECCF76
:104970008AE00995892B19F08FEF9FEF02C08D2FE8
:104980009C2FDF91CF911F910F910895FA01AA27D3
:10499000283051F1203181F1E8946F936E7F6E5F82
:1049A0007F4F8F4F9F4FAF4FB1E03ED0B4E03CD030
:1049B000670F781F891F9A1FA11D680F791F8A1F13
:1049C000911DA11D6A0F711D811D911DA11D20D07A
:1049D00009F468943F912AE0269F11243019305D34
:1049E0003193DEF6CF010895462F4770405D419325
:1049F000B3E00FD0C9F7F6CF462F4F70405D4A3372
:104A000018F0495D31FD4052419302D0A9F7EACF39
:104A1000B4E0A6959795879577956795BA95C9F768
:104A200000976105710508959B01AC010A2E06945B
:104A30005795479537952795BA95C9F7620F731F14
:0C4A4000841F951FA01D0895F894FFCF5F
:104A4C000201030300000002000000009E0F0000A2
:104A5C000000180C041060C08020000072022000BE
:104A6C004578706C6F72696E672E2E2E0041766FD2
:104A7C006964696E672E2E2E00486F6D696E672E05
:104A8C002E2E00556E6B6E6F776E2073746174658D
:0E4A9C0021005374617274696E672E2E2E0015
:00000001FF
