S012000057616C6C466F6C6C6F772E737265630F
S11300000C940B030C9428030C9428030C942803DD
S11300100C943D0F0C94660F0C948F0F0C94B80F36
S11300200C9428030C941E0E0C94470E0C94700E22
S11300300C94EB0E0C94990E0C94C20E0C94140FA9
S11300400C94A30D0C94CC0D0C94F50D0C94280376
S11300500C9428030C9428030C9428030C94280370
S11300600C9428030C9428030C9428030C94280360
S11300700C9428030C9428030C9428030763423639
S1130080B79BD8A71A39685618AEBAAB558C1D3C25
S1130090B7CC5763BD6DEDFD753EF6177231BF00E9
S11300A00000803F08000000BE922449123EABAA23
S11300B0AA2ABECDCCCC4C3E00000080BEABAAAA7E
S11300C0AA3E00000000BF000000803F00000000C6
S11300D000084178D3BB4387D1133D190E3CC3BDFF
S11300E04282AD2B3E68EC8276BED98FE1A93E4CAC
S11300F080EFFFBE01C4FF7F3F00000000006E617F
S11301006E00696E660000407A10F35A00A0724EC9
S113011018090010A5D4E80000E87648170000E4A8
S11301200B54020000CA9A3B000000E1F5050000F0
S113013080969800000040420F000000A086010055
S11301400000102700000000E80300000000640025
S1130150000000000A000000000001000000000090
S11301602C76D888DC674F0823DFC1DFAE59E1B1B4
S1130170B796E5E3E453C63AE651997696E8E6C2C3
S11301808426EB898C9B62ED407C6FFCEFBC9C9FCA
S113019040F2BAA56FA5F490055A2AF75C936B6CEC
S11301A0F9676DC11BFCE0E40D47FEF520E6B500E0
S11301B0D0ED902E0300943577050080841E08004E
S11301C000204E0A000000C80C333333330F986EFE
S11301D012831141EF8D2114893BE65516CFFEE6BB
S11301E0DB18D1844B381BF77C1D901DA4BBE42481
S11301F0203284725E228100C9F124ECA1E53D27FE
S113020016050100000000000000FA000000E000F4
S1130210E00028FE28FE282454FE5448C4C81026B2
S1130220466C92AA44A000A0C0000000384482009A
S1130230008244380028107C102810107C10100014
S11302400A0C00001010101010000606000004082C
S11302501020407C8A92A27C0042FE020042868AE0
S113026092628482A2D28C182848FE08E4A2A2A238
S11302709C3C5292920C808E90A0C06C9292926C94
S11302806092929478006C6C0000006A6C0000101C
S113029028448200282828282800824428104080E6
S11302A08A90604C929E827C7E8888887EFE9292A0
S11302B0926C7C82828244FE82824438FE929292C4
S11302C082FE909090807C8292925EFE101010FECE
S11302D00082FE8200040282FC80FE10284482FE1A
S11302E002020202FE403040FEFE201008FE7C8224
S11302F082827CFE909090607C828A847AFE9098C0
S11303009462629292928C8080FE8080FC0202024F
S1130310FCF8040204F8FC021C02FCC6281028C6DF
S1130320E0100E10E0868A92A2C200FE8282004093
S113033020100804008282FE002040804020020237
S11303400202020080402000042A2A2A1EFE1222F1
S1130350221C1C222222041C222212FE1C2A2A2ACB
S113036018107E908040304A4A4A7CFE1020201E9D
S11303700022BE0200040222BC00FE081422000077
S113038082FE02003E2018201E3E1020201E1C2249
S113039022221C3E28282810102828183E3E10200F
S11303A02010122A2A2A0420FC2202043C020204FD
S11303B03E38040204383C020C023C221408142285
S11303C0300A0A0A3C22262A322200106C820000DB
S11303D000FE000000826C100008101008100000DD
S11303E00000007F8181817F7F8383837F7F878774
S11303F0877F7F8F8F8F7F7F9F9F9F7F7FBFBFBFB1
S11304007F7FFFFFFF7F2040FF40206215171565A7
S113041000FBFB00000000000000C0FF0300E0FF41
S11304200700F0FF0F00F8FF1F0078001E0078009F
S11304301E0078001E0078001E0078001E00780060
S11304401E0078001E0078001E0078001E000000C8
S113045000000000000080FF0300E0FF0700F0FF41
S11304600F00F8FF1F00F83C1F00783C1E00783C8A
S11304701E00783C1E00783C1E00783C1E00783C30
S11304801E00783C1E00783C1E00783C1E00783C20
S11304901E000000000000000000E0FF0300F0FF69
S11304A00700F8FF0F00F8FF1F00783C1E00783C9F
S11304B01E00783C1E00783C1E00783C1E00783CF0
S11304C01E00783C1E00783C1E00783C1E00783CE0
S11304D01E000000000000000000F8FF0300F8FF09
S11304E00F00F8FF1F00F8FF1F0000001E000000AF
S11304F01E0000801F0000F01F0000FF0F00E0FF3F
S11305000700F0FF0000F80F0000F800000078007A
S1130510000078000000F8FF1F00F8FF1F00F0FF44
S11305201F00E0FF1F000000000000000000F8FFB3
S11305301F00F8FF1F00F8FF1F00F8FF1F007800DE
S11305401E00783C1E00783C1E00783C1E00783C5F
S11305501E00783C1E00783C1E00F87E1F00F8FF49
S11305601F00F0FF0F00E0E70300000000000000A0
S11305703800EEFF6C002A8045003A0047FC03FF78
S11305806CFC83FF3900DEFF0B7CD0810BFCD08137
S11305900BC0D0810BFCD0810B7CDEFF0B0082FFF3
S11305A0397002FF6CF83A0047DC2A8045CCEEFF34
S11305B06CCC000038000000000C00001E0C000091
S11305C01E0000001E0000001E0000001E00F8FFB8
S11305D01F00F8FF1F00F8FF1F00F8FF1F000000B6
S11305E01E0000001E0000001E0000001E0000008F
S11305F05E000000400000007C000000400000009D
S1130600400000007C0000003000000010000000EA
S1130610300000007C0011241FBECFEFD8E0DEBF05
S1130620CDBF11E0A0E0B1E0E8EFFBE402C005902B
S11306300D92AC3BB107D9F722E0ACEBB1E001C0BD
S11306401D92A03DB207E1F70E949F030C94FA2586
S11306500C9400008FE00E94340A882311F082E099
S113066008950E94940381E008958FE00E94410A56
S1130670882319F420E030E013C080917A0080646C
S113068080937A0080917A0086FDFCCF30917800C7
S113069020917900922F80E0232F30E0282B392BF2
S11306A0C9010895ECE7F0E090818295880F880FE6
S11306B0807C9F73982B90830895582F809100011C
S11306C08830D8F440917E0021E030E0B90102C0C6
S11306D0660F771F8A95E2F7CB0180958423809378
S11306E07E0080917E00052E02C0220F331F0A94E3
S11306F0E2F7822B80937E000DC020917E0081E082
S113070090E0052E02C0880F991F0A94E2F7282B67
S113071020937E005093000180917C005F71807E65
S1130720852B80937C0008958FE180937C00EAE719
S1130730F0E087E0808380818068808308950E9450
S1130740A10D0E94930D0E94E31A80E090E00895A9
S11307500F931F9385E00E94410A8823C1F080E42F
S113076060E00E94A50400E0802F60E00E94500435
S113077010E080E061E00E94A5041F5F1038C9F713
S11307800F5F043089F783E060E00E9493041F91B7
S11307900F9108950F931F9385E00E94340A8823D4
S11307A011F082E07AC00E94F004182F0E94B30A6C
S11307B01150123008F06DC08150823008F069C0C9
S11307C00E94C0048EEA60E00E94A50482EA60E010
S11307D00E94A50480EA60E00E94A50400E513ECF1
S11307E0C8010197F1F780EC60E00E94A5048FE254
S11307F060E00E94A50481E860E00E94A50486E10F
S113080060E00E94A50482E260E00E94A504C801A1
S11308100197F1F78FEA60E00E94A50486EA60E0A0
S11308200E94A50485EA60E00E94A50480E090E0AF
S113083028E833E1F9013197F1F7019643E0883E66
S11308409407C1F783EB60E00E94A50480E460E0B4
S11308500E94A50483E060E00E94500483E060E00D
S11308600E9493041092660210926802109267022A
S113087085E091E09093CD028093CC0288E10E94C0
S113088072040E94A80384EA60E00E94A50481E047
S113089004C085E00E94240A87E01F910F91089507
S11308A0FF920F931F93082FF62E85E00E94410AB2
S11308B08823A1F01F2D1F770370802F806B60E0C9
S11308C00E94A50412951F70812F806160E00E9430
S11308D0A5048F2D8F7060E00E94A5041F910F91D5
S11308E0FF9008951F93182F85E00E94410A8823E2
S11308F0C1F087E00E94320582E06AE00E9483052D
S113090082E061EB0E948305612F113208F060E2FE
S113091082E00E94830589EE8A95F1F787E00E94C0
S113092032051F9108950F931F93082F162F85E00A
S11309300E94410A882331F003701F7710936402E8
S1130940009365021F910F9108950F931F93082F31
S1130950162F85E00E94410A882379F0112319F0AB
S1130960113021F402C02B9801C02B9A86E08A959D
S1130970F1F780E0602F0E9483051F910F91089585
S1130980239A089586E00E94340A882311F082E0B5
S113099008950E94D90481E008951F93182F86E0DA
S11309A00E94410A882319F0812F0E94E2041F91BA
S11309B00895559A569A80E20E949F1080E40E94FE
S11309C09F100895282F85FF04C08BB190E28927DA
S11309D08BB926FF04C08BB190E489278BB90895A5
S11309E082E00E94340A882311F082E008950E9474
S11309F0920580E066E271E10E94290581E06EE1E2
S1130A0071E10E94290582E066E171E10E942905F5
S1130A1086E06EE271E10E94290583E06EE071E1F7
S1130A200E94290584E06EE071E10E94290585E0B9
S1130A306EE071E10E94290587E06EE071E10E9499
S1130A4029058FEF8093690287E00E94320581E0D7
S1130A500895E82FF0E0EE0FFF1FE55FFD4F71836F
S1130A60608308951F93182F82E00E94410A88230F
S1130A7009F447C0912F977080916902981709F47F
S1130A8040C09093690285B1887F892B85B99330E2
S1130A9011F1943028F4913051F0923090F40CC05C
S1130AA0953019F19530E0F0963021F50FC0E091C2
S1130AB00D02F0910E0222C0E0910B02F0910C02A3
S1130AC01DC0E0910F02F091100218C0E0911702CE
S1130AD0F091180213C0E0911102F09112020EC0BD
S1130AE0E0911302F091140209C0E0911502F09113
S1130AF0160204C0E0911902F0911A02309709F02D
S1130B0009951F9108951F93162F0E94320582E0C4
S1130B100E94410A882321F01EBD0DB407FEFDCFBB
S1130B201F910895259A2698279A209A219A229A05
S1130B3008952F923F924F925F926F927F928F927D
S1130B409F92AF92BF92CF92DF92EF92FF920F9358
S1130B501F93DF93CF930F92CDB7DEB7582E962E07
S1130B60442E3901C9821501CE88DF88A88CB98C3E
S1130B706A8D7B8D81E0981619F1981628F092E021
S1130B80991609F070C03EC080E0B7010E94CA0700
S1130B9080E0642DA30198010981EE24E39471EAB5
S1130BA0C72E72E0D72E0E948A08552009F05BC038
S1130BB000D00F92EDB7FEB71182338222821CC09F
S1130BC081E00E94CA0781E0682DA60195010C8D81
S1130BD0EE24E39491EAC92E92E0D92E0E948A0869
S1130BE0552009F040C000D00F92EDB7FEB79182B6
S1130BF08D8D9E8D938382830E94C7090F900F90E1
S1130C000F9031C0C7010E94EC0700D081EA92E046
S1130C10EDB7FEB792838183842DB301A8012981A6
S1130C20082D76016501AC8C882483940E941D09EB
S1130C300F900F905520B9F400D000D00F92ADB7AB
S1130C40BEB71196EDB7FEB79182FD0132822182C3
S1130C508D8D9E8D948383830E94C7090F900F907E
S1130C600F900F900F900F90CF91DF911F910F91E4
S1130C70FF90EF90DF90CF90BF90AF909F908F90B8
S1130C807F906F905F904F903F902F9008954F9278
S1130C905F927F928F929F92AF92BF92CF92DF9298
S1130CA0EF92FF920F931F93DF93CF93CDB7DEB7ED
S1130CB0562F942E7C2CAA89BB89CC88DD886E891A
S1130CC07F89988D813009F445C0813030F18230BC
S1130CD009F066C0513071F0513020F0523009F003
S1130CE05FC011C080E0B7010E94CA0780E0692D8F
S1130CF0A80106C081E00E94CA0781E0682DA60110
S1130D000E9455074DC0C7010E94EC07892DB80108
S1130D10482D96010E946C0743C0EDB7FEB7399782
S1130D200FB6F894FEBF0FBEEDBF4DB65EB6089485
S1130D30411C511CB283A183F201D382C282758308
S1130D4064839683898D9A8D9087878380E0652F4D
S1130D50C72C1CC0EDB7FEB739970FB6F894FEBF89
S1130D600FBEEDBFADB6BEB60894A11CB11CB283D4
S1130D70A183F501D382C28275836483968310862E
S1130D80178281E0652FC72CAA24BB240E949905F1
S1130D908DB79EB709960FB6F8949EBF0FBE8DBF50
S1130DA0CF91DF911F910F91FF90EF90DF90CF9043
S1130DB0BF90AF909F908F907F905F904F900895D9
S1130DC087E00E94340A882311F082E008950E948B
S1130DD01A0A81E08093A00210926A0210926B02B8
S1130DE010926D0210926C0210926F0210926E02B9
S1130DF01092710210927002109273021092720299
S1130E001092750210927402109277021092760278
S1130E10109279021092780210927B0210927A0258
S1130E2010927D0210927C0210927F0210927E0238
S1130E301092810210928002109283021092820218
S1130E40109288021092890210928A0210928B02E8
S1130E5010928D0210928E0210928F0210929002C4
S1130E6010929102109292021092930210929502A3
S1130E701092940210929702109296021092990284
S1130E801092980210929B0210929A02109285027C
S1130E9010928402109287021092860210929F028E
S1130EA010929E021092A0020895EF92FF920F9367
S1130EB01F93182F062F7A0160E00E942908812FC2
S1130EC0602F0E940A08812FB7010E943E081F91DB
S1130ED00F91FF90EF900895CF92DF92EF92FF92DF
S1130EE00F931F93C82E7B01D42E890182E060E00A
S1130EF00E9429088C2D6D2D0E941F08C701B8017E
S1130F000E946B081F910F91FF90EF90DF90CF909C
S1130F1008952EEF8037920714F480E79EEFFC01CA
S1130F2081E0E139F80714F0E0E9F1E09B018EEF8C
S1130F306037780714F420E73EEFA90121E0413936
S1130F40520714F040E951E08F2F881F8827881F2B
S1130F50252F221F2227221F91E09093A002809325
S1130F608D0220938E02CF01F7FF03C090958195E7
S1130F709F4F9A0157FF03C0309521953F4F90939F
S1130F806D0280936C0230936F0220936E02109274
S1130F90A0020895482F81E08093A002CB0123E0B2
S1130FA0693E720710F088EE93E0413071F04130F1
S1130FB018F0423071F405C0909375028093740266
S1130FC008C0909375028093740290937702809383
S1130FD076021092A002089521E02093A002AC01B1
S1130FE083E0493E580710F048EE53E09B0183E04C
S1130FF0693E780710F028EE33E0F89450937502B8
S1131000409374023093770220937602789410927E
S1131010A0020895982F81E08093A002913051F0AE
S1131020913018F0923041F403C060938D0204C0F3
S113103060938D0260938E021092A002089591E055
S11310409093A002EDE8F2E0819360831092A002F5
S11310500895982F81E08093A002913051F091304F
S113106018F0923041F403C060936A0204C06093A4
S11310706A0260936B021092A0020895482F81E0E7
S11310808093A002CB0121E06139720710F080E95E
S113109091E0413061F0413018F04230C9F40EC0A3
S11310A0F89490936D0280936C02789411C0F89434
S11310B090936F0280936E0278940AC0F894909390
S11310C06D0280936C0290936F0280936E02789409
S11310D01092A0020895AC0181E08093A002F894DC
S11310E0CB0121E06139720710F080E991E090931F
S11310F06F0280936E029A0181E04139580710F023
S113110020E931E030936D0220936C0278941092C0
S1131110A00208958F929F92AF92BF92CF92DF92D6
S1131120EF92FF920F931F93CF93DF93182FF62E16
S11311304A015901E60187E00E94410A882309F423
S11311406FC0812F61E00E942908812FB401A5019D
S11311500E940813812F6F2D0E940A08812F602F8F
S11311600E94F312812FB4010E94CB12C114D10446
S113117099F0113049F0113018F0123069F406C0BA
S1131180188210929C0208C0198204C01882198225
S113119010929C0210929D02D0939F02C0939E02D3
S11311A0EE20B9F58CEB91E090939F0280939E0220
S11311B0812FB5010E943E08812F0E94B612113082
S11311C071F0113018F0123059F512C01092BC01B0
S11311D010929C028091BC018823E1F321C01092FB
S11311E0BD0110929D028091BD018823E1F318C0D6
S11311F01092BC011092BD0110929C0210929D02AB
S11312008091BC018823E1F38091BD018823C1F35F
S113121007C0812FB5010E943E08812F0E94B6129B
S1131220DF91CF911F910F91FF90EF90DF90CF90BE
S1131230BF90AF909F908F9008953F924F925F928E
S11312406F927F928F929F92AF92BF92CF92DF92D2
S1131250EF92FF920F931F93DF93CF93CDB7DEB737
S1131260982E2B013A01322EB02E0C891D8987E06D
S11312700E94410A882309F453C082E061E00E947D
S1131280290880E0B201A3010E94081381E0B7019C
S1131290A6010E940813892D6B2D0E941F0880E06F
S11312A0632D0E94F31281E06A2D0E94F312C201A1
S11312B0B7010E94E6120115110539F0F8011082F8
S11312C0118210929C0210929D0210939F0200932F
S11312D09E028820F1F48EEB91E090939F0280931C
S11312E09E02C301B6010E946B0882E00E94B612FE
S11312F01092BE011092BF0110929C0210929D02A6
S11313008091BE018823E1F38091BF018823C1F35A
S113131007C0C301B6010E946B0882E00E94B612A6
S1131320CF91DF911F910F91FF90EF90DF90CF90BD
S1131330BF90AF909F908F907F906F905F904F90F1
S11313403F9008950F931F93182F062F662349F497
S113135060E070E00E943E08812F60E070E00E942F
S1131360CB1281E08093A002113051F0113018F0BB
S1131370123041F403C00093880204C00093880231
S1131380009389021092A0021F910F910895CF92A9
S1131390DF92EF92FF920F931F93DF93CF93CDB71A
S11313A0DEB71B8587E00E94410A8823D1F1113002
S11313B061F0113018F01230A1F511C0EC85FD85F3
S11313C08091A1028823E1F306C0EC85FD8580911C
S11313D0A2028823E1F3309721F1099522C0CC843D
S11313E0DD84EE84FF8400E010E0002351F480915A
S11313F0A102882331F0C114D10411F0F60109953A
S113140001E0112351F48091A202882331F0E11408
S1131410F10411F0F701099511E0002331F31123D0
S113142021F3CF91DF911F910F91FF90EF90DF9007
S1131430CF9008953A9A3B9A3C9A3D9A3E9A3F9AA5
S113144088B1837088B90895853160F4E82FF0E09D
S1131450E15BFD4F8081882329F080818150808366
S1131460808108958FEF0895853110F080E008950C
S1131470E82FF0E0E15BFD4F80818F5F8083815036
S11314800895853110F080E00895E82FF0E0E15BE5
S1131490FD4F8081811181E008951F93182F809161
S11314A0C101882341F08091C801882399F01092EA
S11314B0C1011092C8010E94820A8093C00182EC8B
S11314C091E061E040E028E230E00E94600C81E0BD
S11314D08093C1019091C001133018F0133079F456
S11314E009C0E12FF0E0EF5FFE4F8081892341F0D6
S11314F081E006C091FF03C0892F817001C080E0A4
S11315001F9108950F931F9381E00E94410A88233D
S113151011F400E024C087E00E94320582E06AE012
S11315200E94830582E062EB0E94830518EC812F00
S11315308A95F1F782E060E00E943711082F812F2D
S11315408A95F1F782E060E00E9437111A95F1F76D
S113155087E00E94320588E893E10197F1F7802F34
S11315601F910F910895DF93CF9300D00F92CDB7C1
S1131570DEB781E00E94340A882311F082E011C0B2
S11315800E94F0048150823040F40E94F20BCE019C
S113159001960E94C01381E004C081E00E94240AE5
S11315A087E00F900F900F90CF91DF9108950F93E4
S11315B01F938230B1F0833028F4882341F08130C6
S11315C0F1F40AC0833091F08430C9F414C07093EC
S11315D0BA026093B90213C07093BC026093BB0259
S11315E00EC07093BE026093BD0209C07093C00226
S11315F06093BF0204C07093C2026093C102609101
S1131600BB027091BC024091BD025091BE02209178
S1131610BF023091C0020091C1021091C2028091B8
S1131620B9029091BA020E94180B1F910F9108956C
S11316304F925F926F927F928F929F92AF92BF92DE
S1131640CF92DF92EF92FF920F931F93CF93DF938A
S1131650EC017B013A01290181E00E94410A8823BF
S113166009F4AFC087E00E94320589EE8A95F1F74C
S113167082E06AE00E94830582E060EB0E948305B9
S11316808090AF029090B0028C169D0648F0809135
S1131690A5029091A6024E01C817D90708F44C017F
S11316A0A090B102B090B202AE14BF0448F0809191
S11316B0A7029091A8025701E816F90608F45C0104
S11316C0C090B302D090B402C614D70448F08091FD
S11316D0A9029091AA0263016816790608F46C01C4
S11316E0E090B502F090B602E414F50448F080915D
S11316F0AB029091AC0272014816590608F47C01C1
S1131700C091B702D091B802C017D10748F08091B8
S1131710AD029091AE02E8010817190708F4EC0134
S11317209092BA028092B902B092BC02A092BB021B
S1131730D092BE02C092BD02F092C002E092BF02FB
S1131740D093C202C093C10219EE812F8A95F1F79A
S113175082E0692D0E94830582E0682D0E94830542
S1131760812F8A95F1F782E06B2D0E94830582E038
S11317706A2D0E948305812F8A95F1F782E06D2DF1
S11317800E94830582E06C2D0E948305812F8A9537
S1131790F1F782E06F2D0E94830582E06E2D0E9496
S11317A08305812F8A95F1F782E06D2F0E948305CE
S11317B082E06C2F0E9483051A95F1F787E00E945E
S11317C03205DF91CF911F910F91FF90EF90DF9041
S11317D0CF90BF90AF909F908F907F906F905F90CD
S11317E04F9008951092BA021092B9021092BC025E
S11317F01092BB021092BE021092BD021092C0025F
S11318001092BF021092C2021092C10280E991E0CC
S11318109093A6028093A5029093A8028093A702B6
S11318209093AA028093A9029093AC028093AB0296
S11318309093AE028093AD0284E398E09093B0025B
S11318408093AF029093B2028093B1029093B4025A
S11318508093B3029093B6028093B5029093B8023A
S11318608093B70208950F931F93DF93CF93CDB75F
S1131870DEB729970FB6F894DEBF0FBECDBF8C013B
S113188088E00E94410A882311F491E00DC0CE0142
S1131890019661E040E098010E94600C982F882333
S11318A019F48F818823E9F3892F29960FB6F894C8
S11318B0DEBF0FBECDBFCF91DF911F910F91089571
S11318C0EF92FF920F931F93CF93DF93EC01F62EC9
S11318D0E42E890188E00E94410A882311F481E002
S11318E026C084E090E00E940B23FC01009711F4D1
S11318F082E01DC0F982F0FC1E8281E0E81619F432
S11319008981846089838981886089831B830A83B0
S11319101D830C83D183C0831382128281E0809360
S11319202B02CF010E949E0C10922B0280E0DF91CB
S1131930CF911F910F91FF90EF900895CF92DF9276
S1131940EF92FF920F931F93CF93DF93EC0180915B
S1131950C302882339F4D093C502C093C4020E9401
S11319603A1447C0C090C402D090C50200E010E011
S1131970EE24FF2437C0A881B981FD0164817581FB
S1131980F60140815181FA01848195819B01281BD4
S1131990390B37FF0FC0861B970B95838483DB823B
S11319A0CA82012B29F4D093C502C093C40221C07A
S11319B0F7010CC0F601828193812115310549F4A8
S11319C0FD01158214829B838A83F601D383C2832B
S11319D010C0FD01358324830097B9F30F5F1F4FB7
S11319E076016C018091C30290E00817190718F280
S11319F0ECCF8091C3028F5F8093C302DF91CF91BC
S1131A001F910F91FF90EF90DF90CF9008958CE09D
S1131A100E94340A882311F082E008958BE00E942A
S1131A20410A8823A1F40E944B13813081F480E0A1
S1131A300E94FD1388EE93E024EF31E0F901319721
S1131A40F1F70197D9F70E94900D81E008958CE099
S1131A500E94240A87E00895EF92FF920F931F9348
S1131A608CE00E94410A882309F452C00E94691341
S1131A70139A81E28A95F1F713980B98EE24FF24C8
S1131A8087010CC0039B0AC082E48A95F1F780B1F8
S1131A9086958695869580FF26C00FC00894E11C24
S1131AA0F11C011D111D80E2E81681EAF80687E0A9
S1131AB0080780E0180731F722C00E947313EE2450
S1131AC0FF24870102C0039B0EC00894E11CF11C93
S1131AD0011D111D90E2E91691EAF90697E0090744
S1131AE090E0190781F70E947B1380E090E2E916E9
S1131AF091EAF90697E0090790E0190708F081E0F8
S1131B000B9A1398813021F00E9445139C0102C066
S1131B1020E030E0C9011F910F91FF90EF900895EC
S1131B200B9A139808950E94A9130E94B0100E9462
S1131B30E10F0E941E140E94F0040E94B30A7894DC
S1131B400895000008951F920F920FB60F9211246A
S1131B502F933F934F935F936F937F938F939F93B1
S1131B60AF93BF93EF93FF93E091EB01F091EC01FE
S1131B70309709F00995FF91EF91BF91AF919F9133
S1131B808F917F916F915F914F913F912F910F9022
S1131B900FBE0F901F9018951F920F920FB60F92C1
S1131BA011242F933F934F935F936F937F938F935E
S1131BB09F93AF93BF93EF93FF93E091ED01F09167
S1131BC0EE01309709F00995FF91EF91BF91AF9124
S1131BD09F918F917F916F915F914F913F912F9141
S1131BE00F900FBE0F901F9018951F920F920FB673
S1131BF00F9211242F933F934F935F936F937F938F
S1131C008F939F93AF93BF93EF93FF93E091EF0173
S1131C10F091F001309709F00995FF91EF91BF9190
S1131C20AF919F918F917F916F915F914F913F9170
S1131C302F910F900FBE0F901F9018951F920F9227
S1131C400FB60F9211242F933F934F935F936F938B
S1131C507F938F939F93AF93BF93EF93FF93E09101
S1131C60DD01F091DE01309709F00995FF91EF91C4
S1131C70BF91AF919F918F917F916F915F914F91A0
S1131C803F912F910F900FBE0F901F9018951F92A8
S1131C900F920FB60F9211242F933F934F935F939C
S1131CA06F937F938F939F93AF93BF93EF93FF9320
S1131CB0E091DF01F091E001309709F00995FF917F
S1131CC0EF91BF91AF919F918F917F916F915F91B0
S1131CD04F913F912F910F900FBE0F901F90189529
S1131CE01F920F920FB60F9211242F933F934F938D
S1131CF05F936F937F938F939F93AF93BF93EF9370
S1131D00FF93E091E101F091E201309709F0099528
S1131D10FF91EF91BF91AF919F918F917F916F91BF
S1131D205F914F913F912F910F900FBE0F901F9095
S1131D3018951F920F920FB60F9211242F933F9371
S1131D404F935F936F937F938F939F93AF93BF93BF
S1131D50EF93FF93E091E501F091E601309709F0EC
S1131D600995FF91EF91BF91AF919F918F917F91D1
S1131D706F915F914F913F912F910F900FBE0F90F4
S1131D801F9018951F920F920FB60F9211242F9344
S1131D903F934F935F936F937F938F939F93AF93EF
S1131DA0BF93EF93FF93E091E701F091E80130973F
S1131DB009F00995FF91EF91BF91AF919F918F9198
S1131DC07F916F915F914F913F912F910F900FBE33
S1131DD00F901F9018951F920F920FB60F92112417
S1131DE02F933F934F935F936F937F938F939F931F
S1131DF0AF93BF93EF93FF93E091E301F091E4017C
S1131E00309709F00995FF91EF91BF91AF919F91A0
S1131E108F917F916F915F914F913F912F910F908F
S1131E200FBE0F901F9018951F920F920FB60F922E
S1131E3011242F933F934F935F936F937F938F93CB
S1131E409F93AF93BF93EF93FF93E091E901F091D8
S1131E50EA01309709F00995FF91EF91BF91AF9195
S1131E609F918F917F916F915F914F913F912F91AE
S1131E700F900FBE0F901F9018951F920F920FB6E0
S1131E800F9211242F933F934F935F936F937F93FC
S1131E908F939F93AF93BF93EF93FF93E091D301FD
S1131EA0F091D401309709F00995FF91EF91BF911A
S1131EB0AF919F918F917F916F915F914F913F91DE
S1131EC02F910F900FBE0F901F9018951F920F9295
S1131ED00FB60F9211242F933F934F935F936F93F9
S1131EE07F938F939F93AF93BF93EF93FF93E0916F
S1131EF0D501F091D601309709F00995FF91EF9142
S1131F00BF91AF919F918F917F916F915F914F910D
S1131F103F912F910F900FBE0F901F9018951F9215
S1131F200F920FB60F9211242F933F934F935F9309
S1131F306F937F938F939F93AF93BF93EF93FF938D
S1131F40E091D701F091D801309709F00995FF91FC
S1131F50EF91BF91AF919F918F917F916F915F911D
S1131F604F913F912F910F900FBE0F901F90189596
S1131F701F920F920FB60F9211242F933F934F93FA
S1131F805F936F937F938F939F93AF93BF93EF93DD
S1131F90FF93E091D901F091DA01309709F00995A6
S1131FA0FF91EF91BF91AF919F918F917F916F912D
S1131FB05F914F913F912F910F900FBE0F901F9003
S1131FC0189580E10E94340A882311F082E0089574
S1131FD0EBECF1E01192119282E0EB30F807D1F7CB
S1131FE081E00895FF920F931F93CF93DF93F82E10
S1131FF08AE0F816B1F08F1548F0E8E0FE16B9F162
S1132000EF1538F1F7E0FF1651F43BC08DE0F816F8
S113201059F0EBE1FE1689F0FCE0FF1641F001E017
S113202041C01092640203C0109264023AC08091CD
S1132030650281508093650234C00E94A80314C0D5
S113204080E061E00E94A504809164028F5F809328
S113205064028091640287FFF3CF1092640280913E
S1132060650281508093650200E011E01CC08091FC
S113207064028823B1F080916402865080936402E4
S113208010C081E00E94081264EF71E080E090E0EB
S11320904DE750E024E630E00E94141281E00E94F3
S11320A06F1100E010E080916502609164020E946B
S11320B05004002351F185E0F89EC0011124EC0185
S11320C0CD59DE4F8C0108591E4FFE01849161E009
S11320D00E94A5042196C017D107B9F780E061E0FA
S11320E00E94A504809164028A5F809364028091B7
S11320F0640290E08C3791053CF010926402809168
S1132100650281508093650211E0809165028370BD
S113211080936502113059F480916602813039F45C
S1132120E0916702F0916802309709F0099580E028
S113213090E0DF91CF911F910F91FF9008951F932D
S1132140182F86E00E94410A882319F0812F0E94EB
S1132150AB101F91089585FD5D9886FD5E980895E6
S1132160F8940E940B1181E00E94B81081E0089558
S1132170813049F0F894813020F18230B1F083301D
S113218009F045C017C02C9A80E880936100109232
S1132190610080E090E00000019688329105D9F753
S11321A01092680010926B00089580E8809361009B
S11321B083E004C080E88093610088E0809361003C
S11321C028C080E090E0000001962DE6803692075A
S11321D0D1F72C9880E090E0000001962DE680363F
S11321E09207D1F710927A008FEF80936400809168
S11321F0680081608093680080916B0084608093A4
S11322006B00789483B7816083BF8895089582308A
S113221008F078940895249A2C9A089583E58CBD47
S113222081E08DBD8DE08A95F1F7089583E58CBD3D
S11322301DBC84EF91E00197F1F708958FE78CBD01
S11322401DBC84EF91E00197F1F7089583E58CBDFF
S113225081E08DBD8DE08A95F1F7089583E58CBD0D
S113226081E08DBD84EF91E00197F1F708951F930C
S1132270162F0E94320582E00E94410A882329F029
S11322801EBD0DB407FEFDCF8EB51F9108958AE0E3
S11322900E94240A882329F481E00E946A12109281
S11322A01C02089589E00E94240A8823B9F48091CD
S11322B01B02882311F00E94B01282E00E946A126D
S11322C08091290290912A02009731F00E94A32361
S11322D010922A021092290210921B020895813052
S11322E029F0823029F40E94521108950E94471166
S11322F008950F931F93CF93DF9380E291E00E94A0
S11323000B239C0190932A0280932902892B11F4B8
S113231080E039C08901C0E0D0E0BE0180E090E0F7
S11323200E94CB1F20E030E040EA51E40E942A1FC3
S113233027EF35E740E05FE30E9496209B01AC0164
S113234060E070E080E291E40E9403219B01AC0113
S1132350CA01B9012DEC3CEC42E851E40E949620FC
S11323600E9459202AE030E040E050E00E94882298
S1132370F80161937193819391938F012196C834ED
S1132380D10559F681E0DF91CF911F910F91089506
S11323908AE00E94340A882311F082E008951092A2
S11323A026021092250281E00E94861281E0809329
S11323B01C0208951F9389E00E94340A882311F0B7
S11323C082E024C08BE00E94410A8823D9F40E9451
S11323D07911182F813011F086E018C010921D0277
S11323E010921E0210921F02109220028DE062E7EA
S11323F074E10E944D1482E00E94861210931B0225
S113240081E004C089E00E94240A87E01F910895B6
S1132410813021F0823029F084E008950E94C811AF
S113242008950E94DA1108956F927F928F929F927D
S1132430AF92BF92CF92DF92EF92FF920F931F93CE
S1132440CF93DF933B014C015A01E9018AE00E94DA
S1132450410A882381F1209741F19501442737FDF2
S11324604095542FBE01C536D10510F064E670E0E6
S113247080E090E00E94882224E630E040E050E0D2
S11324800E94982279018A01C401B3010E94751443
S1132490C7010E94330C60E070E080E090E00E948D
S11324A07514C5018E199F0904C0A114B10419F053
S11324B0C5010E94330CDF91CF911F910F91FF90C2
S11324C0EF90DF90CF90BF90AF909F908F907F90D0
S11324D06F900895823029F4809181008E7F8093DB
S11324E0810080911B02813031F480911C02813083
S11324F011F40000089580911B02813021F0809135
S11325001C02813011F45F9857980895982F809198
S11325101B02882331F480911C02882311F4579AFA
S11325205F9880911B028823D1F49230C1F41092F9
S113253080001092810080918100886080938100E6
S113254080918100816080938100109285001092B7
S1132550840081E08093890080E980938800089555
S1132560EFE6F0E080818D7F80830895982F81E0ED
S11325708093A002913051F0913018F0923041F4E0
S113258003C01092880204C010928802109289023B
S11325901092A0020895982F81E08093A0029130B8
S11325A071F0913018F0923071F405C070937D028F
S11325B060937C0208C070937D0260937C027093E8
S11325C07F0260937E021092A002089521E020937E
S11325D0A002ECE7F2E091838083329671836083FA
S11325E01092A0020895982F81E08093A002913068
S11325F051F0913018F0923041F403C060938A0294
S113260004C060938A0260938B021092A002089522
S11326100F931F93CF93DF93EB018A01813001F174
S1132620813018F0823061F50DC080917402909170
S11326307502892B11F080E01AC010928102109269
S113264080021EC08091740290917502892B21F042
S113265080E00E94DA1404C0109281021092800279
S11326608091760290917702892B31F081E0BE014E
S1132670A8010E94DA1404C010928302109282020C
S1132680DF91CF911F910F9108952091A302309172
S1132690A402C90108958BE00E94340A882311F032
S11326A082E0089589E00E94410A882369F4109227
S11326B0A4021092A3028DE067E475E10E944D1418
S11326C00E94881381E008958BE00E94240A82E02E
S11326D008952091A3023091A4021092A4021092B2
S11326E0A302C90108958BE00E94410A882311F0D6
S11326F00E949D1308958BE00E94410A882311F0E3
S11327000E94A3132091A3023091A402C901089549
S113271010928000E1E8F0E010828081886080837C
S113272080818160808310928500109284001092D1
S1132730890088EC809388000895EFE6F0E08081BA
S1132740826080830895EFE6F0E080818D7F80834E
S11327500895CF93DF93C0E0D0E08C2F60E00E9417
S1132760B8132196C531D105C1F7DF91CF910895F2
S1132770853128F4E82FF0E0E15BFD4F6083089594
S11327801F93CF93DF93EC01009799F181E00E94AE
S1132790410A882351F187E00E94320518EC812F09
S11327A08A95F1F782E06AE00E94830582E064EB97
S11327B00E948305812F8A95F1F782E060E00E94F0
S11327C037118883812F8A95F1F782E060E00E94B7
S11327D0371189831A95F1F782E060E00E9437117E
S11327E08A8387E00E94320504C0188219828DE230
S11327F08A83DF91CF911F9108951F93182F81E051
S11328000E94410A8823C1F087E00E94320588ECC7
S11328108A95F1F782E06AE00E94830582E065EB25
S11328200E94830582E0612F0E94830589EE8A95C8
S1132830F1F787E00E9432051F91089588E00E9415
S1132840340A882311F082E008951092C302109292
S1132850C5021092C40210922B0210922C0280E145
S11328606AE475E10E9461140E943E140E944714B8
S113287081E0089581E080932C02089584B58260FC
S113288084BD85B5846085BD8EE487BD0895EEE67C
S1132890F0E08081826080830895E82F803268F4BC
S11328A08051833050F0F0E0EE0FFF1FE553FE4FF0
S11328B0208131817183608302C020E030E0C9014E
S11328C00895803218F020E030E00AC0E82FF0E0EC
S11328D0EE0FFF1FE553FE4F20813181718360832A
S11328E0C90108950E9499140895EF92FF920F93DD
S11328F01F937B018C018AE00E94410A8823A1F086
S113290080911C02882381F0D801C701880F991F88
S1132910AA1FBB1F9093280280932702E114F1049D
S11329200105110509F45F981F910F91FF90EF9035
S1132930089580911D0290911E02A0911F02B091F2
S113294020022091210230912202409123025091D1
S11329502402280F391F4A1F5B1F20931D02309346
S11329601E0240931F025093200280911D029091F9
S11329701E02A0911F02B09120028851964FA040E0
S1132980B040BCF08BB180588BB980911D029091FE
S11329901E02A0911F02B09120028851964FA040C0
S11329A0B04080931D0290931E02A0931F02B09327
S11329B020020895EF92FF920F931F93CF93DF931A
S11329C0EB01882321F0813009F05AC02DC09A010F
S11329D040E050E0CA01B9010E94882220917402AB
S11329E030917502220F331F40E050E00E9498227C
S11329F079018A01A8019701220F331F441F551F33
S1132A00CE01A0E0B0E082179307A407B50728F031
S1132A10F0928102E092800233C0D695C795D0939C
S1132A208102C09380022CC09A0140E050E0CA01A8
S1132A30B9010E9488222091760230917702220FF8
S1132A40331F40E050E00E94982279018A01A801D6
S1132A509701220F331F441F551FCE01A0E0B0E0A1
S1132A6082179307A407B50728F0F0928302E09237
S1132A70820206C0D695C795D0938302C093820282
S1132A80DF91CF911F910F91FF90EF9008950E94D5
S1132A906A1508950E9451150E949D150E9476158D
S1132AA0089588E00E94410A882311F484E008957F
S1132AB080912C02882311F483E0089580912B02E5
S1132AC0882311F082E008950E94EA178130E1F32F
S1132AD080E00895CF93DF93C3EAD2E0888199819F
S1132AE0019688839983DF91CF91089580911C0288
S1132AF0813011F5809125029091260220912702C0
S1132B0030912802280F391F309326022093250282
S1132B108091250290912602885E93406CF08BB1DF
S1132B2080588BB98091250290912602885E93404B
S1132B309093260280932502089587E00E94410A1B
S1132B40882309F4AAC08091740290917502892B9C
S1132B5009F1809198029091990220917402309128
S1132B607502820F931F909399028093980280912B
S1132B70980290919902885E9340A4F08091980203
S1132B8090919902885E9340909399028093980261
S1132B9041E009C080916C0290916D0290937102A2
S1132BA08093700240E08091760290917702892BA5
S1132BB009F180919A0290919B02209176023091C2
S1132BC07702820F931F90939B0280939A028091C5
S1132BD09A0290919B02885E9340A4F080919A029D
S1132BE090919B02885E934090939B0280939A02FB
S1132BF061E009C080916E0290916F02909373021C
S1132C008093720260E0842F0E944E168091940299
S1132C10909195022091700230917102280F391F12
S1132C20309395022093940280919402909195029E
S1132C30885E934014F440E00BC08091940290911C
S1132C409502885E9340909395028093940241E0AC
S1132C5080919602909197022091720230917302B2
S1132C60280F391F30939702209396028091960281
S1132C7090919702885E934014F460E00BC08091B9
S1132C80960290919702885E934090939702809366
S1132C90960261E0842F0E94931608958823F1F030
S1132CA020916C0230916D028091700290917102BA
S1132CB0281B390B1216130634F48091700290917C
S1132CC07102019607C0232B49F080917002909104
S1132CD0710201979093710280937002662311F13F
S1132CE020916E0230916F02809172029091730272
S1132CF0281B390B1216130654F48091720290911A
S1132D007302019690937302809372020895232BA9
S1132D1049F080917202909173020197909373022B
S1132D208093720208950F931F93182F062F80919A
S1132D30A002882309F0E7C080918802882309F063
S1132D405AC08091700290917102892BE9F48091AC
S1132D502D02837E80932D021092910280919C0219
S1132D60882309F45DC060918A0280E00E94A20970
S1132D70E0919E02F0919F02309709F451C081E0E6
S1132D80808310929C024CC080916A02813041F48D
S1132D9080917C0290917D02019711F411E002C0B0
S1132DA01123F1F1E0918F02F0E0ED5EFE4F90917E
S1132DB02D02937E8081892B80932D0280918D0238
S1132DC0882321F480918F028F5F03C080918F024A
S1132DD0815080938F0280918F02837080938F0241
S1132DE081E08093910280916A028130C9F480E08D
S1132DF00E94961715C090912D02937E90932D02F8
S1132E00E0918F02F0E0ED5EFE4F8081892B80938C
S1132E102D0282E08093910210927102109270024E
S1132E2080918902882309F059C08091720290919F
S1132E307302892BE9F480912D028F7180932D0206
S1132E401092920280919D02882309F45CC06091E3
S1132E508B0281E00E94A209E0919E02F0919F0200
S1132E60309709F450C081E0818310929D024BC0D9
S1132E7080916B02813041F480917E0290917F02B7
S1132E80019711F401E002C00023E9F1E0919002FE
S1132E90F0E0E95EFE4F90912D029F718081892BB5
S1132EA080932D0280918E02882321F480919002D8
S1132EB08F5F03C080919002815080939002809133
S1132EC0900283708093900281E0809392028091BB
S1132ED06B028130C1F40E94961715C090912D02A7
S1132EE09F7190932D02E0919002F0E0E95EFE4F15
S1132EF08081892B80932D0282E08093920210922C
S1132F0073021092720280919302882331F48DE24D
S1132F1092E0612F402F0E94581888B183709091DD
S1132F202D02892B88B91F910F910895882321F0D0
S1132F30813009F04EC027C080917C0290917D02BF
S1132F40892B49F080917C0290917D0201979093A6
S1132F507D0280937C0280919C028823D1F520918C
S1132F607C0230917D028091800290918102281729
S1132F70390779F580E060E070E00E943E0881E066
S1132F8080939C02089580917E0290917F02892B08
S1132F9049F080917E0290917F02019790937F0285
S1132FA080937E0280919D02882399F420917E0271
S1132FB030917F0280918202909183022817390711
S1132FC041F481E060E070E00E943E0881E080937B
S1132FD09D020895FF920F931F93CF93DF938091E7
S1132FE0C302882309F459C00091C4021091C50298
S1132FF0F801C081D1818C819D8101979D838C834F
S1133000181619060CF449C0898180FF05C08E8109
S1133010882311F481E08E83898181FF03C0EF81CD
S1133020F88509958091C3028230A8F0F801828165
S113303093819093C5028093C40213821282E0911B
S11330400000F091010084819581181619063CF066
S1133050FF24F39405C01092C5021092C402FF2409
S11330608091C30281508093C3028091C30288235C
S113307011F40E945518898182FF08C08A819B81BE
S11330809D838C83C8010E949E0C08C0C8010E94C5
S1133090A32389818F7E898301C0FF248F2DDF9133
S11330A0CF911F910F91FF90089510922C020895D3
S11330B0FC0180919102823069F48091310291E0A7
S11330C0892780933102882309F03EC08081837E62
S11330D080833AC08091700290917102C397A4F5E5
S11330E06623D1F0209170023091710280E690E065
S11330F0BC01269FC001279F900D369F900D11247F
S1133100880F892F881F990B9093850280938402DE
S113311081E080932F0218C080912F028823A1F0B0
S11331208091840290918502019790938502809307
S113313084028091840290918502892B29F48081F4
S1133140837E808310922F0280919202823069F4F0
S11331508091300291E0892780933002882309F01E
S11331603EC080818F718083089580917202909116
S11331707302C397A4F54423D1F0209172023091D5
S1133180730280E690E0AC01249FC001259F900D5E
S1133190349F900D1124880F892F881F990B9093C9
S11331A087028093860281E080932E0208958091A5
S11331B02E028823A1F080918602909187020197C4
S11331C09093870280938602809186029091870271
S11331D0892B29F480818F71808310922E020895A7
S11331E0CF92DF92EF92FF920F931F93CF93DF93CF
S11331F0FC01308120914502321303C0208121114A
S113320091C0EB018C010E94A803F80180818130F8
S113321059F108F483C0823009F451C0833009F0B5
S113322079C08FE791E00E946C254E815F816885AB
S113323079858A819B81AC81BD817F936F935F93F4
S11332404F93BF93AF939F938F9389E891E09F939C
S11332508F930E9456258DB79EB70A960FB6F894A1
S11332609EBF0FBE8DBF5AC081E291E00E946C25C3
S1133270CA84DB84EC84FD844E815F816885798512
S11332808A819B81AC81BD81FF92EF92DF92CF92C4
S11332907F936F935F934F93BF93AF939F938F935A
S11332A08EE291E09F938F930E9456258DB79EB72F
S11332B00E960FB6F8949EBF0FBE8DBF2FC080E54B
S11332C091E00E946C25CA84DB84EC84FD844E81E9
S11332D05F81688579858A819B81AC81BD81FF92FC
S11332E0EF92DF92CF927F936F935F934F93BF934D
S11332F0AF939F938F938CE591E09F938F930E945C
S11333005625EDB7FEB73E960FB6F894FEBF0FBE36
S1133310EDBF04C080EA91E00E946C25F801808131
S113332080934502DF91CF911F910F91FF90EF9011
S1133330DF90CF900895DC01FB019C91808198136C
S113334025C011962D913C91129781819281281765
S11333503907E1F413962D913C911497838194815C
S11333602817390799F415962D913C911697858164
S113337096812817390751F417964D915C91189747
S11333802781308581E04217530709F080E00895D2
S1133390CF93DF93EC010E942C0D9C01AAE0B0E0D6
S11333A00E94BA220E94CB1F27EE3AE34DE85CE369
S11333B00E9496200E949C1F6A877B878C879D872A
S11333C0DF91CF910895CF93DF93EC0186E00E94C3
S11333D05D030E943503BC0180E090E00E94CB1F96
S11333E020E030E040EA50E40E94962020E030E003
S11333F040E85AE30E9496206A837B838C839D83F2
S113340087E00E945D030E943503BC0180E090E0E8
S11334100E94CB1F20E030E040EA50E40E94962056
S113342020E030E040E85AE30E9496206E837F83D8
S113343088879987DF91CF910895CF93DF93EC012B
S11334409B018091440281110AC041E061E08BE359
S113345092E00E94600C81E08093440211C080914C
S11334604102882369F080E40E94CD0480E00E9438
S11334704D0A888381E00E944D0A8983109241029B
S1133480DF91CF910895FC0181E0808388EC90E086
S1133490928381839483838380E991E096838583F7
S11334A09087878308956F927F928F929F92AF92B5
S11334B0BF92CF92DF92EF92FF920F931F93CF931D
S11334C0DF93FB01D080F1E0DF124EC0EC0182E01B
S11334D0982E988260E082E00E94A2091F921F92B7
S11334E01F92DF9290E9692E6F921F9228EC722E40
S11334F07F921F9286E98F9388248394A12CB12C08
S1133500C12C30E9E32EFF24F39408EC10E026E903
S113351030E041E062E080E00E9447061F921F9283
S11335201F92DF926F921F927F921F928CE88F936B
S11335302CE830E040E062E080E00E944706988298
S113354088EC90E09A8389839C838B8380E991E063
S11335509E838D8398878F838DB79EB742960FB6CF
S1133560F8949EBF0FBE8DBFDF91CF911F910F9135
S1133570FF90EF90DF90CF90BF90AF909F908F908F
S11335807F906F900895CF93DF93EC0162E372E034
S11335900E949B19811114C06F8178858D819E8151
S11335A00E94EC076B817C8189819A810E94890742
S11335B089E0FE01A2E3B2E001900D928A95E1F761
S11335C0DF91CF910895CF93DF93CDB7DEB76297A4
S11335D00FB6F894DEBF0FBECDBF0E94C2040E9496
S11335E0CA030E94E0060E942A030E94070D81E09C
S11335F00E945203109248021092470210924A020B
S11336001092490210924C0210924B0210924E02F8
S113361010924D02109246028FEA91E00E946C25AE
S113362088EB9BE00E94330C0E94A80360E971E0E0
S113363080E00E94D70A6DE770E0CE0101960E94F7
S11336401D1ACE0101960E94E319CE0101960E9433
S1133650C81986E492E00E94431ABE016F5F7F4F4F
S113366086E492E00E94531A86E492E00E94C31A10
S1133670BE016F5F7F4F86E492E00E94F018DBCFBB
S1133680A0E1B0E0E6E4FBE10C94D4227C011B0150
S11336906A01FC0117821682838181FF44C39E0163
S11336A02F5F3F4F3901F7019381F10193FD85911C
S11336B093FF81911F01882309F431C3853239F4C2
S11336C093FD859193FF81911F01853239F4B701F0
S11336D090E00E941A2556016501E5CF10E0512CB7
S11336E0912CFFE1F915D8F08B3279F038F480325F
S11336F079F08332A1F4F92DF0612EC08D3261F09E
S1133700803369F4292D21602DC0392D3260932E28
S1133710892D8460982E2AC0E92DE86015C097FC95
S11337202DC020ED280F2A3088F496FE06C03AE01A
S1133730139F200D1124122F19C08AE0589E200DCA
S11337401124522EE92DE0629E2E10C08E3231F4E7
S113375096FCE5C2F92DF0649F2E08C08C3621F446
S1133760292D2068922E02C0883641F4F10193FD80
S1133770859193FF81911F018111B3CF9BEB980F2A
S1133780933020F4992D9061805E07C09BE9980FD7
S1133790933008F066C1992D9F7E96FF16E09F73C3
S11337A0992E853619F49064992E08C0863621F432
S11337B0392F3068932E02C01111115097FE07C0A3
S11337C01C3350F444244394410E27E00BC01830BA
S11337D038F027E017E005C027E09CE3492E02C03B
S11337E0212F412C560184E0A80EB11CF601608102
S11337F0718182819381042DA3010E942C246C0188
S1133800F981FC87F0FF02C0F3FF06C091FC06C0FB
S113381092FE06C000E205C00DE203C00BE201C047
S113382000E08C858C7019F001115AC29BC297FE7E
S113383010C04C0CFC85F4FF04C08A81813309F468
S11338404A94141474F528E0241578F588E0482E79
S11338502CC096FC2AC0812F90E08C159D059CF00D
S11338603CEFC3163FEFD30674F0892D8068982E81
S11338700AC0E2E0F0E0EC0FFD1FE10FF11D8081D2
S1133880803319F411501111F4CF97FE0EC0442463
S11338904394410E812F90E0C816D9062CF41C19CC
S11338A004C04424439401C010E097FE06C01C14D5
S11338B01D0434F4C601019605C085E090E002C001
S11338C081E090E001110196112331F0212F30E0C5
S11338D02F5F3F4F820F931F252D30E082179307F0
S11338E014F4581A01C0512C892D897049F45520BB
S11338F039F0B70180E290E00E941A255A94F7CF7C
S1133900002329F0B701802F90E00E941A2593FC30
S113391009C0552039F0B70180E390E00E941A25D0
S11339205A94F7CF97FE4CC04601D7FE02C0812CB3
S1133930912CC60188199909F301E80FF91FFE8734
S1133940ED87960124193109388B2F87012F10E058
S11339501195019511093FEF8316930629F4B701D8
S11339608EE290E00E941A25C814D9044CF08F8589
S113397098898815990524F4ED85FE85818101C017
S113398080E3F1E08F1A91082D853E852F5F3F4F2C
S11339903E872D87801691062CF0B70190E00E9497
S11339A01A25D9CFC814D90441F49A81963320F446
S11339B0953319F43C8534FF81E3B70190E04EC0A0
S11339C08A81813319F09C859F7E9C87B70190E0A2
S11339D00E941A25111105C094FC18C085E690E0D8
S11339E017C0B7018EE290E00E941A251E5F82E0A4
S11339F001E0080FF301E80FF11D8081B70190E0A9
S1133A000E941A25802F0113F3CFE6CF85E490E0BE
S1133A10B7010E941A25D7FC06C0C114D10441F491
S1133A20EC85E4FF05C0D194C194D1088DE201C0B6
S1133A308BE2B70190E00E941A2580E32AE0C216C7
S1133A40D1042CF08F5FFAE0CF1AD108F7CFB70179
S1133A5090E00E941A25B701C601C0960E941A255B
S1133A6054C1833631F0833779F0833509F056C079
S1133A7020C0560132E0A30EB11CF6018081898377
S1133A8001E010E0630112C05601F2E0AF0EB11C78
S1133A90F601C080D18096FE03C0612F70E002C0A1
S1133AA06FEF7FEFC6010E940F258C01F92DFF7780
S1133AB014C0560122E0A20EB11CF601C080D180D0
S1133AC096FE03C0612F70E002C06FEF7FEFC60166
S1133AD00E9404258C01F92DF0689F2EF3FD1AC075
S1133AE0852D90E008171907A8F4B70180E290E04B
S1133AF00E941A255A94F4CFF60197FC859197FEFB
S1133B0081916F01B70190E00E941A2551105A94D7
S1133B10015011090115110579F7F7C0843611F028
S1133B20893661F5560197FE09C024E0A20EB11C46
S1133B30F60160817181828193810AC0F2E0AF0E47
S1133B40B11CF60160817181072E000C880B990B62
S1133B50F92DFF769F2E97FF09C09095809570955B
S1133B6061957F4F8F4F9F4FF0689F2E2AE030E082
S1133B70A3010E949C25C82EC6183FC0092D853775
S1133B8021F40F7E2AE030E01DC0097F8F3691F0CA
S1133B9018F4883559F0C3C0803719F0883711F00C
S1133BA0BEC0006104FF09C0046007C094FE08C0E1
S1133BB0066006C028E030E005C020E130E002C025
S1133BC020E132E0560107FF09C084E0A80EB11CD1
S1133BD0F601608171818281938108C0F2E0AF0EA9
S1133BE0B11CF6016081718180E090E0A3010E9424
S1133BF09C25C82EC6180F77902E96FE0BC0092D53
S1133C000E7FC11650F494FE0AC092FC08C0092D20
S1133C100E7E05C0DC2C092D03C0DC2C01C0D12E86
S1133C2004FF0DC0FE01EC0DF11D8081803311F401
S1133C30097E09C002FF06C0D394D39404C0802F28
S1133C40867809F0D39403FD11C000FF06C01C2D33
S1133C50D51480F4150D1D190DC0D51458F4B701F1
S1133C6080E290E00E941A25D394F7CFD51410F483
S1133C705D1801C0512C04FF10C0B70180E390E02F
S1133C800E941A2502FF17C001FD03C088E790E0D7
S1133C9002C088E590E0B7010CC0802F867859F007
S1133CA001FF02C08BE201C080E207FD8DE2B70193
S1133CB090E00E941A25C11638F4B70180E390E021
S1133CC00E941A251150F7CFCA94F301EC0DF11D8F
S1133CD08081B70190E00E941A25C110F5CF15C06C
S1133CE0F4E0F51560F584E0581A93FE1FC0011145
S1133CF027C02C8523FF2AC00EEF10E0392D307128
S1133D00932EF8018491811124C0552009F4E4CC48
S1133D10B70180E290E00E941A255A94F6CFF70189
S1133D208681978126C08FEF9FEF23C0B70180E281
S1133D3090E00E941A255A945110F8CFD8CF512CF4
S1133D40B701802F90E00E941A25D3CF02E011E042
S1133D50D5CF91108052B70190E00E941A250F5FD1
S1133D601F4FCFCF23E0251510F483E0BDCF512C96
S1133D70C0CF6096E2E10C94F0225058BB27AA27EA
S1133D800E94D51E0C941F200E94112038F00E941E
S1133D90182020F039F49F3F19F426F40C940E20D7
S1133DA00EF4E095E7FB0C940820E92F0E943020E4
S1133DB058F3BA17620773078407950720F079F45C
S1133DC0A6F50C9452200EF4E0950B2EBA2FA02DDC
S1133DD00B01B90190010C01CA01A0011124FF27B4
S1133DE0591B99F0593F50F4503E68F11A16F040AF
S1133DF0A22F232F342F4427585FF3CF46953795AE
S1133E002795A795F0405395C9F77EF41F16BA0B72
S1133E10620B730B840BBAF09150A1F0FF0FBB1F20
S1133E20661F771F881FC2F70EC0BA0F621F731F69
S1133E30841F48F4879577956795B795F7959E3FC6
S1133E4008F0B0CF9395880F08F09927EE0F979557
S1133E50879508950E943E1F0C941F200E941820ED
S1133E6058F00E94112040F029F45F3F29F00C948F
S1133E70082051110C9453200C940E200E943020E1
S1133E8068F39923B1F3552391F3951B550BBB2785
S1133E90AA2762177307840738F09F5F5F4F220FCA
S1133EA0331F441FAA1FA9F335D00E2E3AF0E0E8C1
S1133EB032D091505040E695001CCAF72BD0FE2F0B
S1133EC029D0660F771F881FBB1F2617370748079F
S1133ED0AB07B0E809F0BB0B802DBF01FF27935857
S1133EE05F4F3AF09E3F510578F00C9408200C94F3
S1133EF053205F3FE4F3983ED4F386957795679516
S1133F00B795F7959F5FC9F7880F911D969587958B
S1133F1097F90895E1E0660F771F881FBB1F6217AA
S1133F2073078407BA0720F0621B730B840BBA0B68
S1133F30EE1F88F7E09508950E94382088F09F5777
S1133F4098F0B92F9927B751B0F0E1F0660F771FB9
S1133F50881F991F1AF0BA95C9F714C0B13091F0AF
S1133F600E945220B1E008950C945220672F782FBC
S1133F708827B85F39F0B93FCCF386957795679574
S1133F80B395D9F73EF490958095709561957F4FE0
S1133F908F4F9F4F0895E89409C097FB3EF4909586
S1133FA08095709561957F4F8F4F9F4F9923A9F00E
S1133FB0F92F96E9BB279395F6958795779567959D
S1133FC0B795F111F8CFFAF4BB0F11F460FF1BC0E1
S1133FD06F5F7F4F8F4F9F4F16C0882311F096E974
S1133FE011C0772321F09EE8872F762F05C0662322
S1133FF071F096E8862F70E060E02AF09A95660FDB
S1134000771F881FDAF7880F9695879597F9089593
S113401097F99F6780E870E060E008959FEF80EC77
S1134020089500240A94161617061806090608951A
S113403000240A9412161306140605060895092E80
S11340400394000C11F4882352F0BB0F40F4BF2BEF
S113405011F460FF04C06F5F7F4F8F4F9F4F08952F
S113406057FD9058440F551F59F05F3F71F0479525
S1134070880F97FB991F61F09F3F79F0879508950A
S1134080121613061406551FF2CF4695F1DF08C029
S1134090161617061806991FF1CF86957105610546
S11340A008940895E894BB2766277727CB0197F9EE
S11340B008950E943820A8F19E57B0F1985160F0FD
S11340C039F1983070F5092E9927660F771F881FEC
S11340D0991F0A94D1F71CC0BB27993F4CF4B11126
S11340E0B1E0B62B672F782F8827985FB1F708C007
S11340F0869577956795B79508F4B1609395C1F760
S1134100BB0F30F411F460FF03C06F5F7F4F8F4F1C
S11341103EF490958095709561957F4F8F4F9F4F9A
S1134120089568940C9453200C9452200E94A92062
S11341300C941F200E94112038F00E94182020F0B7
S1134140952311F00C9408200C940E2011240C9447
S113415053200E94302070F3959FC1F3950F50E0D7
S1134160551F629FF001729FBB27F00DB11D639F25
S1134170AA27F00DB11DAA1F649F6627B00DA11DCB
S1134180661F829F2227B00DA11D621F739FB00D71
S1134190A11D621F839FA00D611D221F749F3327E1
S11341A0A00D611D231F849F600D211D822F762F7A
S11341B06A2F11249F5750409AF0F1F088234AF057
S11341C0EE0FFF1FBB1F661F771F881F91505040C3
S11341D0A9F79E3F510580F00C9408200C945320BD
S11341E05F3FE4F3983ED4F3869577956795B7954A
S11341F0F795E7959F5FC1F7FE2B880F911D969564
S1134200879597F90895FA01EE0FFF1F309621055F
S11342103105A1F16115710561F48038BFE39B0795
S113422049F168949038810561F08038BFEF9B07AD
S113423041F099234AF5FF3FE1053105210519F1C4
S1134240E8940894E795D901AA2329F4AB2FBE2F4B
S1134250F85FD0F310C0FF5F70F4A695E0F7F7396C
S113426050F019F0FF3A38F49F779F930DD00F90D8
S113427007FC9058089546F00C940E2060E070E01E
S113428080E89FE308954FE79F775F934F933F93B1
S11342902F930E94FE212F913F914F915F910E9495
S11342A096200C945B2129F416F00C9408200C94AD
S11342B052200C940E200E943820A8F39638A0F7C0
S11342C007F80F92E8942BE33AEA48EB5FE70E9481
S11342D0AC200F920F920F924DB75EB70F920E94CF
S11342E04622ECE7F0E00E948D214F915F91EF911F
S11342F0FF91E595EE1FFF1F49F0FE57E068442744
S1134300EE0F441FFA95E1F74195550B0E94C02129
S11343100F9007FE0C94B4210895DF93CF931F935D
S11343200F93FF92EF92DF927B018C01689406C099
S1134330DA2EEF010E94A920FE01E894A5912591AF
S1134340359145915591A6F3EF010E94D51EFE01CA
S11343509701A801DA9469F7DF90EF90FF900F912D
S11343601F91CF91DF9108959B01AC0160E070E053
S113437080E89FE30C942A1F0C9408200C947A2262
S11343800E943820D8F39923C9F3940F511DA3F345
S11343909150504094F059F0882332F0660F771F03
S11343A0881F91505040C1F79E3F51052CF7880F4C
S11343B0911D9695879597F908955F3FACF0983EC7
S11343C09CF0BB27869577956795B79508F4B160FF
S11343D09395C1F7BB0F58F711F460FFE8CF6F5FF7
S11343E07F4F8F4F9F4FE3CF0C94532016F00C94C4
S11343F07A220C940E2068940C9408200E94382091
S1134400A8F39923C1F3AEF3DF93CF931F930F93D4
S1134410FF92C92FDD2788232AF02197660F771F83
S1134420881FDAF720E030E040E85FEB9FE388394B
S113443020F0803E38F021968F770E94BE1EE4EA79
S1134440F0E004C00E94BE1EE1EDF0E00E948D2168
S11344508B01BE01EC01FB2E6F5771097595771F17
S1134460880B990B0E94CD1F28E132E741E35FE3FB
S11344700E94A920AF2D9801AE01FF900F911F91CA
S1134480CF91DF910E94D51E0C941F20FA01DC010C
S1134490AA0FBB1F9B01AC01BF5728F42227332767
S11344A04427507820C0B75190F4AB2F0024469590
S11344B037952795011CA395D2F3002071F0220FA4
S11344C0331F441FB395DAF30ED00C94BD1E613034
S11344D07105A0E88A07B94630F49B01AC01662750
S11344E0772788279078309621F020833183428380
S11344F0538308959F3F31F0915020F48795779529
S11345006795B795880F911D9695879597F90895A6
S1134510DB018F939F930E94C922BF91AF91A29F09
S1134520800D911DA39F900DB29F900D11240895AD
S1134530A1E21A2EAA1BBB1BFD010DC0AA1FBB1FA3
S1134540EE1FFF1FA217B307E407F50720F0A21B15
S1134550B30BE40BF50B661F771F881F991F1A9482
S113456069F760957095809590959B01AC01BD01AC
S1134570CF010895A29FB001B39FC001A39F700D06
S1134580811D1124911DB29F700D811D1124911D57
S113459008950E94BA22A59F900DB49F900DA49FE8
S11345A0800D911D112408952F923F924F925F9296
S11345B06F927F928F929F92AF92BF92CF92DF922F
S11345C0EF92FF920F931F93CF93DF93CDB7DEB794
S11345D0CA1BDB0B0FB6F894DEBF0FBECDBF099428
S11345E02A88398848885F846E847D848C849B847F
S11345F0AA84B984C884DF80EE80FD800C811B818D
S1134600AA81B981CE0FD11D0FB6F894DEBF0FBEBB
S1134610CDBFED0108950F931F93CF93DF938230A5
S1134620910510F482E090E0E091C802F091C90293
S113463020E030E0A0E0B0E0309719F140815181F2
S11346400281138148175907C8F08417950769F444
S1134650109731F012960C93129713961C9327C05F
S11346600093C8021093C90222C02115310519F024
S11346704217530718F49A01BD01EF01DF01F80155
S1134680DBCF21153105F9F0281B390B2430310516
S113469080F48A819B816115710521F0FB0193836C
S11346A0828304C09093C9028093C802FE013296AB
S11346B044C0FE01E20FF31F81939193225031090C
S11346C0398328833AC02091C6023091C702232B34
S11346D041F420911D0130911E013093C7022093B3
S11346E0C60220911B0130911C012115310541F4B2
S11346F02DB73EB740911F0150912001241B350B6B
S1134700E091C602F091C702E217F307A0F42E1B52
S11347103F0B2817390778F0AC014E5F5F4F241721
S1134720350748F04E0F5F1F5093C7024093C602EF
S11347308193919302C0E0E0F0E0CF01DF91CF914B
S11347401F910F910895CF93DF93009709F481C0CF
S1134750FC01329713821282A091C802B091C9025F
S1134760109781F420813181820F931F2091C6021A
S11347703091C7022817390751F5F093C702E09327
S1134780C60267C0ED0120E030E0CE17DF0740F439
S11347904A815B819E0141155105F1F0EA01F5CF93
S11347A0D383C28340815181840F951FC817D907D1
S11347B059F488819981840F951F0296918380838F
S11347C08A819B81938382832115310529F4F09397
S11347D0C902E093C8023DC0E901FB83EA83499121
S11347E05991C40FD51FEC17FD0761F480819181A5
S11347F0840F951F0296E9019983888382819381AE
S11348009B838A83E0E0F0E012968D919C9113974C
S1134810009719F0FD01DC01F7CF8D919C91119760
S11348209D012E5F3F4F820F931F2091C60230914E
S1134830C7022817390769F4309729F41092C9027E
S11348401092C80202C013821282B093C702A093CE
S1134850C602DF91CF910895283008F027E033276E
S1134860DA01990F311D87FD91600096610571058C
S113487039F432602E5F3D9330E32A95E1F70895D1
S11348809F3F30F080387105610509F03C5F3C5F63
S11348903D93913008F08068911DDF93CF931F936F
S11348A00F93FF92EF92192F987F9695E92F969583
S11348B09695E90FFF27E05AFE4F99273327EE24F8
S11348C0FF24A701E70105900894079428F4360F04
S11348D0E71EF81E491F511D660F771F881F991F79
S11348E00694A1F70590079428F4E70EF81E491FD3
S11348F0561FC11D770F881F991F661F0694A1F7C5
S11349000590079428F4F80E491F561FC71FD11DA0
S1134910880F991F661F771F0694A1F705900794C7
S113492020F4490F561FC71FD81F990F661F771F02
S1134930881F0694A9F784911095177041F0D695B5
S1134940C79557954795F794E7941A95C1F7E6E00C
S1134950F1E06894159015913591659195910590C4
S11349607FE27395E118F10A430B560BC90BD0098A
S1134970C0F7E10CF11E431F561FC91FD01D7EF462
S1134980703311F48A95E6CFE894015030F0080FA3
S11349900AF40027021708F4202F2395022F7A33F4
S11349A028F079E37D932A95E9F710C07D932A9541
S11349B089F6069497956795379517951794E11896
S11349C0F10A430B560BC90BD00998F023957E913D
S11349D073957A3308F070E37C932013B8F77E91D3
S11349E070617D9330F0839571E37D9370E32A9534
S11349F0E1F71124EF90FF900F911F91CF91DF9178
S1134A00992787FD90950895FC01059061507040A9
S1134A100110D8F7809590958E0F9F1F0895FC0183
S1134A206150704001900110D8F7809590958E0FD9
S1134A309F1F08950F931F93CF93DF93FB0123814F
S1134A4021FD03C08FEF9FEF2CC022FF16C04681CB
S1134A505781248135814217530744F4A081B181E1
S1134A609D012F5F3F4F318320838C9326813781B3
S1134A702F5F3F4F3783268314C08B01EC01FB016A
S1134A800084F185E02D0995892BE1F6D80116966D
S1134A908D919C911797019617969C938E931697D8
S1134AA0CE01DF91CF911F910F910895A0E0B0E066
S1134AB0ECE5F5E20C94E422AE014B5F5F4FFA01A2
S1134AC061917191AF018091CC029091CD020E94CD
S1134AD0401BE2E00C9400230F931F93CF93DF93CA
S1134AE0E091CC02F091CD02238121FF1BC08C0107
S1134AF0D0E0C0E0F80181918F016091CC02709107
S1134B00CD02DB011896ED91FC911997882331F0C1
S1134B100995892B79F3DFEFCFEFECCF8AE0099584
S1134B20892B19F08FEF9FEF02C08D2F9C2FDF91FF
S1134B30CF911F910F910895FA01AA27283051F1BE
S1134B40203181F1E8946F936E7F6E5F7F4F8F4FBA
S1134B509F4FAF4FB1E03ED0B4E03CD0670F781F19
S1134B60891F9A1FA11D680F791F8A1F911DA11DFE
S1134B706A0F711D811D911DA11D20D009F4689437
S1134B803F912AE0269F11243019305D3193DEF6DF
S1134B90CF010895462F4770405D4193B3E00FD095
S1134BA0C9F7F6CF462F4F70405D4A3318F0495D80
S1134BB031FD4052419302D0A9F7EACFB4E0A69563
S1134BC09795879577956795BA95C9F70097610585
S1134BD0710508959B01AC010A2E069457954795DB
S1134BE037952795BA95C9F7620F731F841F951FD0
S10B4BF0A01D0895F894FFCF05
S1134BF81F020103030000000200000000F20F007E
S1134C08000000180C041060C080200000D00220AE
S1134C18004578706C6F72696E672E2E2E006C6575
S1134C2866743A20252E33662072696768743A20C0
S1134C38252E336620646973743A20252E33660062
S1134C4841766F6964696E672E2E2E006C656674F2
S1134C583A20252E33662072696768743A20252E17
S1134C6833662C20646973743A20252E3366004811
S1134C786F6D696E672E2E2E006C6566743A20255A
S1134C882E33662072696768743A20252E336600CD
S1134C98556E6B6E6F776E20737461746521005363
S10F4CA874617274696E672E2E2E000079
S9030000FC
