S0140000536F6E617241766F64696E672E7372656345
S11300000C940B030C9428030C9428030C942803DD
S11300100C94BE0D0C94E70D0C94100E0C94390E38
S11300200C9428030C949F0C0C94C80C0C94F10CA5
S11300300C946C0D0C941A0D0C94430D0C94950DAA
S11300400C94240C0C944D0C0C94760C0C942803F6
S11300500C9428030C9428030C9428030C94280370
S11300600C9428030C9428030C9428030C94280360
S11300700C9428030C9428030C9428030763423639
S1130080B79BD8A71A39685618AEBAAB558C1D3C25
S1130090B7CC5763BD6DEDFD753EF6177231BF00E9
S11300A00000803F08000000BE922449123EABAA23
S11300B0AA2ABECDCCCC4C3E00000080BEABAAAA7E
S11300C0AA3E00000000BF000000803F00000000C6
S11300D000084178D3BB4387D1133D190E3CC3BDFF
S11300E04282AD2B3E68EC8276BED98FE1A93E4CAC
S11300F080EFFFBE01C4FF7F3F00000000006E617F
S11301006E00696E660000407A10F35A00A0724EC9
S113011018090010A5D4E80000E87648170000E4A8
S11301200B54020000CA9A3B000000E1F5050000F0
S113013080969800000040420F000000A086010055
S11301400000102700000000E80300000000640025
S1130150000000000A000000000001000000000090
S11301602C76D888DC674F0823DFC1DFAE59E1B1B4
S1130170B796E5E3E453C63AE651997696E8E6C2C3
S11301808426EB898C9B62ED407C6FFCEFBC9C9FCA
S113019040F2BAA56FA5F490055A2AF75C936B6CEC
S11301A0F9676DC11BFCE0E40D47FEF520E6B500E0
S11301B0D0ED902E0300943577050080841E08004E
S11301C000204E0A000000C80C333333330F986EFE
S11301D012831141EF8D2114893BE65516CFFEE6BB
S11301E0DB18D1844B381BF77C1D901DA4BBE42481
S11301F0203284725E228100C9F124ECA1E53D27FE
S113020016050100000000000000FA000000E000F4
S1130210E00028FE28FE282454FE5448C4C81026B2
S1130220466C92AA44A000A0C0000000384482009A
S1130230008244380028107C102810107C10100014
S11302400A0C00001010101010000606000004082C
S11302501020407C8A92A27C0042FE020042868AE0
S113026092628482A2D28C182848FE08E4A2A2A238
S11302709C3C5292920C808E90A0C06C9292926C94
S11302806092929478006C6C0000006A6C0000101C
S113029028448200282828282800824428104080E6
S11302A08A90604C929E827C7E8888887EFE9292A0
S11302B0926C7C82828244FE82824438FE929292C4
S11302C082FE909090807C8292925EFE101010FECE
S11302D00082FE8200040282FC80FE10284482FE1A
S11302E002020202FE403040FEFE201008FE7C8224
S11302F082827CFE909090607C828A847AFE9098C0
S11303009462629292928C8080FE8080FC0202024F
S1130310FCF8040204F8FC021C02FCC6281028C6DF
S1130320E0100E10E0868A92A2C200FE8282004093
S113033020100804008282FE002040804020020237
S11303400202020080402000042A2A2A1EFE1222F1
S1130350221C1C222222041C222212FE1C2A2A2ACB
S113036018107E908040304A4A4A7CFE1020201E9D
S11303700022BE0200040222BC00FE081422000077
S113038082FE02003E2018201E3E1020201E1C2249
S113039022221C3E28282810102828183E3E10200F
S11303A02010122A2A2A0420FC2202043C020204FD
S11303B03E38040204383C020C023C221408142285
S11303C0300A0A0A3C22262A322200106C820000DB
S11303D000FE000000826C100008101008100000DD
S11303E00000007F8181817F7F8383837F7F878774
S11303F0877F7F8F8F8F7F7F9F9F9F7F7FBFBFBFB1
S11304007F7FFFFFFF7F2040FF40206215171565A7
S113041000FBFB00000000000000C0FF0300E0FF41
S11304200700F0FF0F00F8FF1F0078001E0078009F
S11304301E0078001E0078001E0078001E00780060
S11304401E0078001E0078001E0078001E000000C8
S113045000000000000080FF0300E0FF0700F0FF41
S11304600F00F8FF1F00F83C1F00783C1E00783C8A
S11304701E00783C1E00783C1E00783C1E00783C30
S11304801E00783C1E00783C1E00783C1E00783C20
S11304901E000000000000000000E0FF0300F0FF69
S11304A00700F8FF0F00F8FF1F00783C1E00783C9F
S11304B01E00783C1E00783C1E00783C1E00783CF0
S11304C01E00783C1E00783C1E00783C1E00783CE0
S11304D01E000000000000000000F8FF0300F8FF09
S11304E00F00F8FF1F00F8FF1F0000001E000000AF
S11304F01E0000801F0000F01F0000FF0F00E0FF3F
S11305000700F0FF0000F80F0000F800000078007A
S1130510000078000000F8FF1F00F8FF1F00F0FF44
S11305201F00E0FF1F000000000000000000F8FFB3
S11305301F00F8FF1F00F8FF1F00F8FF1F007800DE
S11305401E00783C1E00783C1E00783C1E00783C5F
S11305501E00783C1E00783C1E00F87E1F00F8FF49
S11305601F00F0FF0F00E0E70300000000000000A0
S11305703800EEFF6C002A8045003A0047FC03FF78
S11305806CFC83FF3900DEFF0B7CD0810BFCD08137
S11305900BC0D0810BFCD0810B7CDEFF0B0082FFF3
S11305A0397002FF6CF83A0047DC2A8045CCEEFF34
S11305B06CCC000038000000000C00001E0C000091
S11305C01E0000001E0000001E0000001E00F8FFB8
S11305D01F00F8FF1F00F8FF1F00F8FF1F000000B6
S11305E01E0000001E0000001E0000001E0000008F
S11305F05E000000400000007C000000400000009D
S1130600400000007C0000003000000010000000EA
S1130610300000007C0011241FBECFEFD8E0DEBF05
S1130620CDBF11E0A0E0B1E0EAE6F9E402C0059034
S11306300D92AE38B107D9F722E0AEE8B1E001C0BF
S11306401D92A23AB207E1F70E949F030C94B324CF
S11306500C9400008FE00E94340A882311F082E099
S113066008950E94940381E008958FE00E94410A56
S1130670882319F420E030E013C080917A0080646C
S113068080937A0080917A0086FDFCCF30917800C7
S113069020917900922F80E0232F30E0282B392BF2
S11306A0C9010895ECE7F0E090818295880F880FE6
S11306B0807C9F73982B90830895582F809100011C
S11306C08830D8F440917E0021E030E0B90102C0C6
S11306D0660F771F8A95E2F7CB0180958423809378
S11306E07E0080917E00052E02C0220F331F0A94E3
S11306F0E2F7822B80937E000DC020917E0081E082
S113070090E0052E02C0880F991F0A94E2F7282B67
S113071020937E005093000180917C005F71807E65
S1130720852B80937C0008958FE180937C00EAE719
S1130730F0E087E0808380818068808308950E9450
S1130740220C0E94140C0E946E1980E090E008951F
S11307500F931F9385E00E94410A8823C1F080E42F
S113076060E00E94A50400E0802F60E00E94500435
S113077010E080E061E00E94A5041F5F1038C9F713
S11307800F5F043089F783E060E00E9493041F91B7
S11307900F9108950F931F9385E00E94340A8823D4
S11307A011F082E07AC00E94F004182F0E94B30A6C
S11307B01150123008F06DC08150823008F069C0C9
S11307C00E94C0048EEA60E00E94A50482EA60E010
S11307D00E94A50480EA60E00E94A50400E513ECF1
S11307E0C8010197F1F780EC60E00E94A5048FE254
S11307F060E00E94A50481E860E00E94A50486E10F
S113080060E00E94A50482E260E00E94A504C801A1
S11308100197F1F78FEA60E00E94A50486EA60E0A0
S11308200E94A50485EA60E00E94A50480E090E0AF
S113083028E833E1F9013197F1F7019643E0883E66
S11308409407C1F783EB60E00E94A50480E460E0B4
S11308500E94A50483E060E00E94500483E060E00D
S11308600E9493041092380210923A0210923902B4
S113087085E091E090939F0280939E0288E10E941C
S113088072040E94A80384EA60E00E94A50481E047
S113089004C085E00E94240A87E01F910F91089507
S11308A0FF920F931F93082FF62E85E00E94410AB2
S11308B08823A1F01F2D1F770370802F806B60E0C9
S11308C00E94A50412951F70812F806160E00E9430
S11308D0A5048F2D8F7060E00E94A5041F910F91D5
S11308E0FF9008951F93182F85E00E94410A8823E2
S11308F0C1F087E00E94320582E06AE00E9483052D
S113090082E061EB0E948305612F113208F060E2FE
S113091082E00E94830589EE8A95F1F787E00E94C0
S113092032051F9108950F931F93082F162F85E00A
S11309300E94410A882331F003701F771093360216
S1130940009337021F910F9108950F931F93082F5F
S1130950162F85E00E94410A882379F0112319F0AB
S1130960113021F402C02B9801C02B9A86E08A959D
S1130970F1F780E0602F0E9483051F910F91089585
S1130980239A089586E00E94340A882311F082E0B5
S113099008950E94D90481E008951F93182F86E0DA
S11309A00E94410A882319F0812F0E94E2041F91BA
S11309B00895559A569A80E20E94200F80E40E947E
S11309C0200F0895282F85FF04C08BB190E289275A
S11309D08BB926FF04C08BB190E489278BB90895A5
S11309E082E00E94340A882311F082E008950E9474
S11309F0920580E067EA7FE00E94290581E06FE9C3
S1130A007FE00E94290582E067E97FE00E942905D2
S1130A1086E06FEA7FE00E94290583E06FE87FE0CB
S1130A200E94290584E06FE87FE00E94290585E0A3
S1130A306FE87FE00E94290587E06FE87FE00E946D
S1130A4029058FEF80933B0287E00E94320581E005
S1130A500895E82FF0E0EE0FFF1FE352FE4F71837D
S1130A60608308951F93182F82E00E94410A88230F
S1130A7009F447C0912F977080913B02981709F4AD
S1130A8040C090933B0285B1887F892B85B9933010
S1130A9011F1943028F4913051F0923090F40CC05C
S1130AA0953019F19530E0F0963021F50FC0E091C2
S1130AB0DF01F091E00122C0E091DD01F091DE015F
S1130AC01DC0E091E101F091E20118C0E091E9015B
S1130AD0F091EA0113C0E091E301F091E4010EC04A
S1130AE0E091E501F091E60109C0E091E701F091A0
S1130AF0E80104C0E091EB01F091EC01309709F0BA
S1130B0009951F9108951F93162F0E94320582E0C4
S1130B100E94410A882321F01EBD0DB407FEFDCFBB
S1130B201F910895259A2698279A209A219A229A05
S1130B3008952F923F924F925F926F927F928F927D
S1130B409F92AF92BF92CF92DF92EF92FF920F9358
S1130B501F93DF93CF930F92CDB7DEB7582E962E07
S1130B60442E3901C9821501CE88DF88A88CB98C3E
S1130B706A8D7B8D81E0981619F1981628F092E021
S1130B80991609F070C03EC080E0B7010E94CA0700
S1130B9080E0642DA30198010981EE24E39473E7B6
S1130BA0C72E72E0D72E0E948A08552009F05BC038
S1130BB000D00F92EDB7FEB71182338222821CC09F
S1130BC081E00E94CA0781E0682DA60195010C8D81
S1130BD0EE24E39493E7C92E92E0D92E0E948A086A
S1130BE0552009F040C000D00F92EDB7FEB79182B6
S1130BF08D8D9E8D938382830E94C7090F900F90E1
S1130C000F9031C0C7010E94EC0700D083E792E047
S1130C10EDB7FEB792838183842DB301A8012981A6
S1130C20082D76016501AC8C882483940E941D09EB
S1130C300F900F905520B9F400D000D00F92ADB7AB
S1130C40BEB71196EDB7FEB79182FD0132822182C3
S1130C508D8D9E8D948383830E94C7090F900F907E
S1130C600F900F900F900F90CF91DF911F910F91E4
S1130C70FF90EF90DF90CF90BF90AF909F908F90B8
S1130C807F906F905F904F903F902F9008954F9278
S1130C905F927F928F929F92AF92BF92CF92DF9298
S1130CA0EF92FF920F931F93DF93CF93CDB7DEB7ED
S1130CB0562F942E7C2CAA89BB89CC88DD886E891A
S1130CC07F89988D813009F445C0813030F18230BC
S1130CD009F066C0513071F0513020F0523009F003
S1130CE05FC011C080E0B7010E94CA0780E0692D8F
S1130CF0A80106C081E00E94CA0781E0682DA60110
S1130D000E9455074DC0C7010E94EC07892DB80108
S1130D10482D96010E946C0743C0EDB7FEB7399782
S1130D200FB6F894FEBF0FBEEDBF4DB65EB6089485
S1130D30411C511CB283A183F201D382C282758308
S1130D4064839683898D9A8D9087878380E0652F4D
S1130D50C72C1CC0EDB7FEB739970FB6F894FEBF89
S1130D600FBEEDBFADB6BEB60894A11CB11CB283D4
S1130D70A183F501D382C28275836483968310862E
S1130D80178281E0652FC72CAA24BB240E949905F1
S1130D908DB79EB709960FB6F8949EBF0FBE8DBF50
S1130DA0CF91DF911F910F91FF90EF90DF90CF9043
S1130DB0BF90AF909F908F907F905F904F900895D9
S1130DC087E00E94340A882311F082E008950E948B
S1130DD01A0A81E08093720210923C0210923D0242
S1130DE010923F0210923E02109241021092400271
S1130DF01092430210924202109245021092440251
S1130E001092470210924602109249021092480230
S1130E1010924B0210924A0210924D0210924C0210
S1130E2010924F0210924E021092510210925002F0
S1130E3010925302109252021092550210925402D0
S1130E4010925A0210925B0210925C0210925D02A0
S1130E5010925F021092600210926102109262027C
S1130E60109263021092640210926502109267025B
S1130E7010926602109269021092680210926B023C
S1130E8010926A0210926D0210926C021092570234
S1130E901092560210925902109258021092710246
S1130EA010927002109272020895EF92FF920F93C3
S1130EB01F93182F062F7A0160E00E942908812FC2
S1130EC0602F0E940A08812FB7010E943E081F91DB
S1130ED00F91FF90EF900895CF92DF92EF92FF92DF
S1130EE00F931F93C82E7B01D42E890182E060E00A
S1130EF00E9429088C2D6D2D0E941F08C701B8017E
S1130F000E946B081F910F91FF90EF90DF90CF909C
S1130F1008952EEF8037920714F480E79EEFFC01CA
S1130F2081E0E139F80714F0E0E9F1E09B018EEF8C
S1130F306037780714F420E73EEFA90121E0413936
S1130F40520714F040E951E08F2F881F8827881F2B
S1130F50252F221F2227221F91E090937202809353
S1130F605F0220936002CF01F7FF03C09095819543
S1130F709F4F9A0157FF03C0309521953F4F90939F
S1130F803F0280933E02309341022093400210922C
S1130F9072020895482F81E080937202CB0123E00E
S1130FA0693E720710F088EE93E0413071F04130F1
S1130FB018F0423071F405C09093470280934602C2
S1130FC008C090934702809346029093490280930D
S1130FD0480210927202089521E020937202AC013B
S1130FE083E0493E580710F048EE53E09B0183E04C
S1130FF0693E780710F028EE33E0F89450934702E6
S11310004093460230934902209348027894109208
S113101072020895982F81E080937202913051F00A
S1131020913018F0923041F403C060935F0204C021
S113103060935F026093600210927202089591E0DF
S113104090937202EFE5F2E0819360831092720252
S11310500895982F81E080937202913051F091307D
S113106018F0923041F403C060933C0204C06093D2
S11310703C0260933D02109272020895482F81E071
S113108080937202CB0121E06139720710F080E98C
S113109091E0413061F0413018F04230C9F40EC0A3
S11310A0F89490933F0280933E02789411C0F89490
S11310B0909341028093400278940AC0F8949093EC
S11310C03F0280933E0290934102809340027894C1
S11310D0109272020895AC0181E080937202F89438
S11310E0CB0121E06139720710F080E991E090931F
S11310F04102809340029A0181E04139580710F07F
S113110020E931E030933F0220933E02789410921C
S1131110720208958F929F92AF92BF92CF92DF9204
S1131120EF92FF920F931F93CF93DF93182FF62E16
S11311304A015901E60187E00E94410A882309F423
S11311406FC0812F61E00E942908812FB401A5019D
S11311500E948911812F6F2D0E940A08812F602F10
S11311600E947411812FB4010E944C11C114D10446
S113117099F0113049F0113018F0123069F406C0BA
S1131180188210926E0208C0198204C01882198253
S113119010926E0210926F02D0937102C09370028B
S11311A0EE20B9F58EE891E090937102809370027D
S11311B0812FB5010E943E08812F0E943711113002
S11311C071F0113018F0123059F512C010928E01DE
S11311D010926E0280918E018823E1F321C0109257
S11311E08F0110926F0280918F018823E1F318C060
S11311F010928E0110928F0110926E0210926F0263
S113120080918E018823E1F380918F018823C1F3BB
S113121007C0812FB5010E943E08812F0E9437111B
S1131220DF91CF911F910F91FF90EF90DF90CF90BE
S1131230BF90AF909F908F9008953F924F925F928E
S11312406F927F928F929F92AF92BF92CF92DF92D2
S1131250EF92FF920F931F93DF93CF93CDB7DEB737
S1131260982E2B013A01322EB02E0C891D8987E06D
S11312700E94410A882309F453C082E061E00E947D
S1131280290880E0B201A3010E94891181E0B7011D
S1131290A6010E948911892D6B2D0E941F0880E0F0
S11312A0632D0E94741181E06A2D0E947411C201A1
S11312B0B7010E9467110115110539F0F801108278
S11312C0118210926E0210926F02109371020093B9
S11312D070028820F1F480E991E090937102809388
S11312E07002C301B6010E946B0882E00E943711AC
S11312F0109290011092910110926E0210926F025E
S1131300809190018823E1F3809191018823C1F3B6
S113131007C0C301B6010E946B0882E00E94371126
S1131320CF91DF911F910F91FF90EF90DF90CF90BD
S1131330BF90AF909F908F907F906F905F904F90F1
S11313403F9008950F931F93182F062F662349F497
S113135060E070E00E943E08812F60E070E00E942F
S11313604C1181E080937202113051F0113018F069
S1131370123041F403C000935A0204C000935A028D
S113138000935B02109272021F910F910895CF9205
S1131390DF92EF92FF920F931F93DF93CF93CDB71A
S11313A0DEB71B8587E00E94410A8823D1F1113002
S11313B061F0113018F01230A1F511C0EC85FD85F3
S11313C0809173028823E1F306C0EC85FD8580914A
S11313D074028823E1F3309721F1099522C0CC846B
S11313E0DD84EE84FF8400E010E0002351F480915A
S11313F07302882331F0C114D10411F0F601099568
S113140001E0112351F480917402882331F0E11436
S1131410F10411F0F701099511E0002331F31123D0
S113142021F3CF91DF911F910F91FF90EF90DF9007
S1131430CF9008953A9A3B9A3C9A3D9A3E9A3F9AA5
S113144088B1837088B90895853160F4E82FF0E09D
S1131450EF5DFD4F8081882329F080818150808356
S1131460808108958FEF0895853110F080E008950C
S1131470E82FF0E0EF5DFD4F80818F5F8083815026
S11314800895853110F080E00895E82FF0E0EF5DD5
S1131490FD4F8081811181E008951F93182F809161
S11314A09301882341F080919A01882399F0109246
S11314B0930110929A010E94820A8093920184E916
S11314C091E061E040E028E230E00E94450B81E0D9
S11314D08093930190919201133018F0133079F4B2
S11314E009C0E12FF0E0EF5FFE4F8081892341F0D6
S11314F081E006C091FF03C0892F817001C080E0A4
S11315001F9108950F931F9381E00E94410A88233D
S113151011F400E024C087E00E94320582E06AE012
S11315200E94830582E062EB0E94830518EC812F00
S11315308A95F1F782E060E00E94B80F082F812FAE
S11315408A95F1F782E060E00E94B80F1A95F1F7EE
S113155087E00E94320588E893E10197F1F7802F34
S11315601F910F910895DF93CF9300D00F92CDB7C1
S1131570DEB781E00E94340A882311F082E011C0B2
S11315800E94F0048150823040F40E94D70ACE01B8
S113159001960E94101281E004C081E00E94240A96
S11315A087E00F900F900F90CF91DF9108951092E4
S11315B08C0210928B0210928E0210928D02109265
S11315C0900210928F021092920210929102109245
S11315D094021092930280E991E0909378028093B0
S11315E0770290937A028093790290937C0280939D
S11315F07B0290937E0280937D029093800280937D
S11316007F0284E398E09093820280938102909316
S11316108402809383029093860280938502909340
S113162088028093870290938A02809389020895A6
S11316300F931F93DF93CF93CDB7DEB729970FB6E0
S1131640F894DEBF0FBECDBF8C0188E00E94410A32
S1131650882311F491E00DC0CE01019661E040E0D1
S113166098010E94450B982F882319F48F818823B1
S1131670E9F3892F29960FB6F894DEBF0FBECDBFCC
S1131680CF91DF911F910F910895EF92FF920F93E5
S11316901F93CF93DF93EC01F62EE42E890188E0AB
S11316A00E94410A882311F481E026C084E090E07E
S11316B00E94C421FC01009711F482E01DC0F9824C
S11316C0F0FC1E8281E0E81619F489818460898324
S11316D08981886089831B830A831D830C83D1835A
S11316E0C0831382128281E08093FD01CF010E94A6
S11316F0830B1092FD0180E0DF91CF911F910F9138
S1131700FF90EF900895CF92DF92EF92FF920F93A4
S11317101F93CF93DF93EC0180919502882339F4D2
S1131720D0939702C09396020E948A1247C0C09039
S11317309602D090970200E010E0EE24FF2437C018
S1131740A881B981FD0164817581F60140815181CF
S1131750FA01848195819B01281B390B37FF0FC047
S1131760861B970B95838483DB82CA82012B29F421
S1131770D0939702C093960221C0F7010CC0F601E2
S1131780828193812115310549F4FD01158214826A
S11317909B838A83F601D383C28310C0FD01358302
S11317A024830097B9F30F5F1F4F76016C0180917A
S11317B0950290E00817190718F2ECCF8091950272
S11317C08F5F80939502DF91CF911F910F91FF90CE
S11317D0EF90DF90CF9008958CE00E94340A882324
S11317E011F082E008958BE00E94410A8823A1F45D
S11317F00E94C611813081F480E00E944D1288EE6F
S113180093E024EF31E0F9013197F1F70197D9F72B
S11318100E94110C81E008958CE00E94240A87E064
S113182008950B9A139808950E94F9110E94310F9C
S11318300E94620E0E946E120E94F0040E94B30A7B
S113184078940895000008951F920F920FB60F9296
S113185011242F933F934F935F936F937F938F93B1
S11318609F93AF93BF93EF93FF93E091BD01F091EA
S1131870BE01309709F00995FF91EF91BF91AF91A7
S11318809F918F917F916F915F914F913F912F9194
S11318900F900FBE0F901F9018951F920F920FB6C6
S11318A00F9211242F933F934F935F936F937F93E2
S11318B08F939F93AF93BF93EF93FF93E091BF01F7
S11318C0F091C001309709F00995FF91EF91BF9114
S11318D0AF919F918F917F916F915F914F913F91C4
S11318E02F910F900FBE0F901F9018951F920F927B
S11318F00FB60F9211242F933F934F935F936F93DF
S11319007F938F939F93AF93BF93EF93FF93E09154
S1131910C101F091C201309709F00995FF91EF914F
S1131920BF91AF919F918F917F916F915F914F91F3
S11319303F912F910F900FBE0F901F9018951F92FB
S11319400F920FB60F9211242F933F934F935F93EF
S11319506F937F938F939F93AF93BF93EF93FF9373
S1131960E091AF01F091B001309709F00995FF9132
S1131970EF91BF91AF919F918F917F916F915F9103
S11319804F913F912F910F900FBE0F901F9018957C
S11319901F920F920FB60F9211242F933F934F93E0
S11319A05F936F937F938F939F93AF93BF93EF93C3
S11319B0FF93E091B101F091B201309709F00995DC
S11319C0FF91EF91BF91AF919F918F917F916F9113
S11319D05F914F913F912F910F900FBE0F901F90E9
S11319E018951F920F920FB60F9211242F933F93C5
S11319F04F935F936F937F938F939F93AF93BF9313
S1131A00EF93FF93E091B301F091B401309709F0A3
S1131A100995FF91EF91BF91AF919F918F917F9124
S1131A206F915F914F913F912F910F900FBE0F9047
S1131A301F9018951F920F920FB60F9211242F9397
S1131A403F934F935F936F937F938F939F93AF9342
S1131A50BF93EF93FF93E091B701F091B8013097F2
S1131A6009F00995FF91EF91BF91AF919F918F91EB
S1131A707F916F915F914F913F912F910F900FBE86
S1131A800F901F9018951F920F920FB60F9211246A
S1131A902F933F934F935F936F937F938F939F9372
S1131AA0AF93BF93EF93FF93E091B901F091BA0123
S1131AB0309709F00995FF91EF91BF91AF919F91F4
S1131AC08F917F916F915F914F913F912F910F90E3
S1131AD00FBE0F901F9018951F920F920FB60F9282
S1131AE011242F933F934F935F936F937F938F931F
S1131AF09F93AF93BF93EF93FF93E091B501F09160
S1131B00B601309709F00995FF91EF91BF91AF911C
S1131B109F918F917F916F915F914F913F912F9101
S1131B200F900FBE0F901F9018951F920F920FB633
S1131B300F9211242F933F934F935F936F937F934F
S1131B408F939F93AF93BF93EF93FF93E091BB0168
S1131B50F091BC01309709F00995FF91EF91BF9185
S1131B60AF919F918F917F916F915F914F913F9131
S1131B702F910F900FBE0F901F9018951F920F92E8
S1131B800FB60F9211242F933F934F935F936F934C
S1131B907F938F939F93AF93BF93EF93FF93E091C2
S1131BA0A501F091A601309709F00995FF91EF91F5
S1131BB0BF91AF919F918F917F916F915F914F9161
S1131BC03F912F910F900FBE0F901F9018951F9269
S1131BD00F920FB60F9211242F933F934F935F935D
S1131BE06F937F938F939F93AF93BF93EF93FF93E1
S1131BF0E091A701F091A801309709F00995FF91B0
S1131C00EF91BF91AF919F918F917F916F915F9170
S1131C104F913F912F910F900FBE0F901F901895E9
S1131C201F920F920FB60F9211242F933F934F934D
S1131C305F936F937F938F939F93AF93BF93EF9330
S1131C40FF93E091A901F091AA01309709F0099559
S1131C50FF91EF91BF91AF919F918F917F916F9180
S1131C605F914F913F912F910F900FBE0F901F9056
S1131C7018951F920F920FB60F9211242F933F9332
S1131C804F935F936F937F938F939F93AF93BF9380
S1131C90EF93FF93E091AB01F091AC01309709F021
S1131CA00995FF91EF91BF91AF919F918F917F9192
S1131CB06F915F914F913F912F910F900FBE0F90B5
S1131CC01F90189580E10E94340A882311F082E065
S1131CD00895EDE9F1E01192119281E0ED3DF807EC
S1131CE0D1F781E00895FF920F931F93CF93DF9371
S1131CF0F82E8AE0F816B1F08F1548F0E8E0FE16E9
S1131D00B9F1EF1538F1F7E0FF1651F43BC08DE05F
S1131D10F81659F0EBE1FE1689F0FCE0FF1641F0ED
S1131D2001E041C01092360203C0109236023AC05C
S1131D308091370281508093370234C00E94A803F7
S1131D4014C080E061E00E94A504809136028F5F98
S1131D50809336028091360287FFF3CF10923602C9
S1131D608091370281508093370200E011E01CC05B
S1131D70809136028823B1F0809136028650809398
S1131D80360210C081E00E94891064EF71E080E0A7
S1131D9090E04DE750E024E630E00E94951081E0A9
S1131DA00E94F00F00E010E080913702609136024B
S1131DB00E945004002351F185E0F89EC0011124D3
S1131DC0EC01CD59DE4F8C0108591E4FFE01849160
S1131DD061E00E94A5042196C017D107B9F780E0FD
S1131DE061E00E94A504809136028A5F80933602E6
S1131DF08091360290E08C3791053CF010923602C7
S1131E008091370281508093370211E0809137022C
S1131E10837080933702113059F4809138028130F5
S1131E2039F4E0913902F0913A02309709F00995BA
S1131E3080E090E0DF91CF911F910F91FF90089582
S1131E401F93182F86E00E94410A882319F0812FDE
S1131E500E942C0F1F91089585FD5D9886FD5E9864
S1131E600895F8940E948C0F81E00E94390F81E05C
S1131E700895813049F0F894813020F18230B1F036
S1131E80833009F045C017C02C9A80E88093610024
S1131E901092610080E090E0000001968832910584
S1131EA0D9F71092680010926B00089580E880932F
S1131EB0610083E004C080E88093610088E080933F
S1131EC0610028C080E090E0000001962DE6803695
S1131ED09207D1F72C9880E090E0000001962DE65F
S1131EE080369207D1F710927A008FEF80936400C6
S1131EF08091680081608093680080916B008460A9
S1131F0080936B00789483B7816083BF889508952C
S1131F10823008F078940895249A2C9A089583E5E1
S1131F208CBD81E08DBD8DE08A95F1F7089583E540
S1131F308CBD1DBC84EF91E00197F1F708958FE704
S1131F408CBD1DBC84EF91E00197F1F7089583E502
S1131F508CBD81E08DBD8DE08A95F1F7089583E510
S1131F608CBD81E08DBD84EF91E00197F1F7089578
S1131F701F93162F0E94320582E00E94410A882393
S1131F8029F01EBD0DB407FEFDCF8EB51F91089537
S1131F908AE00E94240A882329F481E00E94EB103D
S1131FA01092EE01089589E00E94240A8823B9F46E
S1131FB08091ED01882311F00E94311182E00E948A
S1131FC0EB108091FB019091FC01009731F00E948D
S1131FD05C221092FC011092FB011092ED01089515
S1131FE0813029F0823029F40E94D30F08950E9491
S1131FF0C80F08950F931F93CF93DF9380E291E06E
S11320000E94C4219C019093FC018093FB01892BC5
S113201011F480E039C08901C0E0D0E0BE0180E065
S113202090E00E945B1E20E030E040EA51E40E9410
S1132030B31D27EF35E740E05FE30E942B1F9B01B0
S1132040AC0160E070E080E291E40E94981F9B0183
S1132050AC01CA01B9012DEC3CEC42E851E40E9408
S11320602B1F0E94EE1E2AE030E040E050E00E9468
S11320704121F80161937193819391938F0121968A
S1132080C834D10559F681E0DF91CF911F910F91AA
S113209008958AE00E94340A882311F082E00895AA
S11320A01092F8011092F70181E00E94071181E07B
S11320B08093EE0108951F9389E00E94340A8823D7
S11320C011F082E024C08BE00E94410A8823D9F4F5
S11320D00E94FA0F182F813011F086E018C0109278
S11320E0EF011092F0011092F1011092F2018DE0D3
S11320F062EC72E10E949D1282E00E94071110932B
S1132100ED0181E004C089E00E94240A87E01F9168
S11321100895813021F0823029F084E008950E94EE
S1132120491008950E945B1008956F927F928F92D8
S11321309F92AF92BF92CF92DF92EF92FF920F9352
S11321401F93CF93DF933B014C015A01E9018AE0CD
S11321500E94410A882381F1209741F19501442787
S113216037FD4095542FBE01C536D10510F064E605
S113217070E080E090E00E94412124E630E040E0FD
S113218050E00E94512179018A01C401B3010E94E7
S1132190C512C7010E94180B60E070E080E090E077
S11321A00E94C512C5018E199F0904C0A114B1046F
S11321B019F0C5010E94180BDF91CF911F910F9167
S11321C0FF90EF90DF90CF90BF90AF909F908F9053
S11321D07F906F900895823029F4809181008E7FE2
S11321E0809381008091ED01813031F48091EE0182
S11321F0813011F4000008958091ED01813021F0C7
S11322008091EE01813011F45F9857980895982FCA
S11322108091ED01882331F48091EE01882311F43B
S1132220579A5F988091ED018823D1F49230C1F4DC
S113223010928000109281008091810088608093C8
S113224081008091810081608093810010928500DB
S11322501092840081E08093890080E98093880053
S11322600895EFE6F0E080818D7F80830895982FB4
S113227081E080937202913051F0913018F09230E5
S113228041F403C010925A0204C010925A021092F0
S11322905B02109272020895982F81E0809372027B
S11322A0913071F0913018F0923071F405C0709350
S11322B04F0260934E0208C070934F0260934E0227
S11322C0709351026093500210927202089521E0BB
S11322D020937202EEE4F2E091838083329671835C
S11322E06083109272020895982F81E080937202A5
S11322F0913051F0913018F0923041F403C0609362
S11323005C0204C060935C0260935D0210927202EE
S113231008950F931F93CF93DF93EB018A018130CC
S113232001F1813018F0823061F50DC080914602D0
S113233090914702892B11F080E01AC01092530249
S1132340109252021EC08091460290914702892B3E
S113235021F080E00E942A1304C0109253021092CC
S113236052028091480290914902892B31F081E018
S1132370BE01A8010E942A1304C0109255021092B3
S11323805402DF91CF911F910F9108958BE00E9429
S1132390340A882311F082E0089589E00E94410AFA
S11323A0882369F410927602109275028DE067E931
S11323B073E10E949D120E94E41181E008958BE074
S11323C00E94240A82E0089510928000E1E8F0E07F
S11323D010828081886080838081816080831092F4
S11323E08500109284001092890088EC8093880004
S11323F00895CF93DF93C0E0D0E08C2F60E00E947B
S113240008122196C531D105C1F7DF91CF91089506
S1132410853128F4E82FF0E0EF5DFD4F60830895E7
S11324201F93CF93DF93EC01009799F181E00E9411
S1132430410A882351F187E00E94320518EC812F6C
S11324408A95F1F782E06AE00E94830582E064EBFA
S11324500E948305812F8A95F1F782E060E00E9453
S1132460B80F8883812F8A95F1F782E060E00E949B
S1132470B80F89831A95F1F782E060E00E94B80FE3
S11324808A8387E00E94320504C0188219828DE293
S11324908A83DF91CF911F9108951F93182F81E0B4
S11324A00E94410A8823C1F087E00E94320588EC2B
S11324B08A95F1F782E06AE00E94830582E065EB89
S11324C00E94830582E0612F0E94830589EE8A952C
S11324D0F1F787E00E9432051F91089588E00E9479
S11324E0340A882311F082E0089510929502109224
S11324F09702109296021092FD011092FE0180E163
S11325006AE973E10E94B1120E948E120E9497122E
S113251081E0089581E08093FE01089584B582608E
S113252084BD85B5846085BD8EE487BD0895EEE6DF
S1132530F0E08081826080830895E82F803268F41F
S11325408051833050F0F0E0EE0FFF1FE356FE4F52
S1132550208131817183608302C020E030E0C901B1
S11325600895803218F020E030E00AC0E82FF0E04F
S1132570EE0FFF1FE356FE4F20813181718360838C
S1132580C90108950E94E9120895EF92FF920F93F2
S11325901F937B018C018AE00E94410A8823A1F0E9
S11325A08091EE01882381F0D801C701880F991F1B
S11325B0AA1FBB1F9093FA018093F901E114F1045F
S11325C00105110509F45F981F910F91FF90EF9099
S11325D008958091EF019091F001A091F101B091E3
S11325E0F2012091F3013091F4014091F5015091F1
S11325F0F601280F391F4A1F5B1F2093EF01309308
S1132600F0014093F1015093F2018091EF01909118
S1132610F001A091F101B091F2018851964FA040D0
S1132620B040BCF08BB180588BB98091EF01909190
S1132630F001A091F101B091F2018851964FA040B0
S1132640B0408093EF019093F001A093F101B09317
S1132650F2010895EF92FF920F931F93CF93DF93AC
S1132660EB01882321F0813009F05AC02DC09A0172
S113267040E050E0CA01B9010E9441212091460284
S113268030914702220F331F40E050E00E94512155
S113269079018A01A8019701220F331F441F551F96
S11326A0CE01A0E0B0E082179307A407B50728F095
S11326B0F0925302E092520233C0D695C795D0935C
S11326C05302C09352022CC09A0140E050E0CA0168
S11326D0B9010E9441212091480230914902220F00
S11326E0331F40E050E00E94512179018A01A80182
S11326F09701220F331F441F551FCE01A0E0B0E005
S113270082179307A407B50728F0F0925502E092C8
S1132710540206C0D695C795D0935502C09354026F
S1132720DF91CF911F910F91FF90EF9008950E9438
S1132730BA1308950E94A1130E94ED130E94C613B8
S1132740089588E00E94410A882311F484E00895E2
S11327508091FE01882311F483E008958091FD01A6
S1132760882311F082E008950E943A168130E1F343
S113277080E00895CF93DF93C5E7D2E08881998103
S1132780019688839983DF91CF9108958091EE011A
S1132790813011F58091F7019091F8012091F901B0
S11327A03091FA01280F391F3093F8012093F70173
S11327B08091F7019091F801885E93406CF08BB1A1
S11327C080588BB98091F7019091F801885E93400D
S11327D09093F8018093F701089587E00E94410ADD
S11327E0882309F4AAC08091460290914702892B5C
S11327F009F180916A0290916B0220914602309116
S11328004702820F931F90936B0280936A02809118
S11328106A0290916B02885E9340A4F080916A02F0
S113282090916B02885E934090936B0280936A024E
S113283041E009C080913E0290913F02909343028F
S11328408093420240E08091480290914902892B92
S113285009F180916C0290916D02209148023091AF
S11328604902820F931F90936D0280936C028091B2
S11328706C0290916D02885E9340A4F080916C028A
S113288090916D02885E934090936D0280936C02E8
S113289061E009C080914002909141029093450209
S11328A08093440260E0842F0E949E14809166020B
S11328B0909167022091420230914302280F391F00
S11328C030936702209366028091660290916702BA
S11328D0885E934014F440E00BC0809166029091AE
S11328E06702885E9340909367028093660241E09A
S11328F080916802909169022091440230914502CE
S1132900280F391F3093690220936802809168026E
S113291090916902885E934014F460E00BC080914A
S1132920680290916902885E934090936902809353
S1132930680261E0842F0E94E31408958823F1F073
S113294020913E0230913F028091420290914302D5
S1132950281B390B1216130634F48091420290910D
S11329604302019607C0232B49F0809142029091C3
S1132970430201979093430280934202662311F12C
S1132980209140023091410280914402909145028D
S1132990281B390B1216130654F4809144029091AB
S11329A04502019690934502809344020895232B97
S11329B049F0809144029091450201979093450219
S11329C08093440208950F931F93182F062F80912C
S11329D07202882309F0E7C080915A02882309F023
S11329E05AC08091420290914302892BE9F480916C
S11329F0FF01837E8093FF011092630280916E0237
S1132A00882309F45DC060915C0280E00E94A20901
S1132A10E0917002F0917102309709F451C081E0A5
S1132A20808310926E024CC080913C02813041F44C
S1132A3080914E0290914F02019711F411E002C06F
S1132A401123F1F1E0916102F0E0ED5EFE4F90910F
S1132A50FF01937E8081892B8093FF0180915F0227
S1132A60882321F4809161028F5F03C08091610209
S1132A70815080936102809161028370809361022E
S1132A8081E08093630280913C028130C9F480E04C
S1132A900E94E61515C09091FF01937E9093FF016B
S1132AA0E0916102F0E0ED5EFE4F8081892B80931E
S1132AB0FF0182E08093630210924302109242026B
S1132AC080915B02882309F059C08091440290915F
S1132AD04502892BE9F48091FF018F718093FF01F6
S1132AE01092640280916F02882309F45CC06091A3
S1132AF05D0281E00E94A209E0917002F0917102EE
S1132B00309709F450C081E0818310926F024BC06A
S1132B1080913D02813041F48091500290915102A4
S1132B20019711F401E002C00023E9F1E09162028F
S1132B30F0E0E95EFE4F9091FF019F718081892B47
S1132B408093FF0180916002882321F480916202C6
S1132B508F5F03C0809162028150809362028091F2
S1132B60620283708093620281E0809364028091A8
S1132B703D028130C1F40E94E61515C09091FF0119
S1132B809F719093FF01E0916202F0E0E95EFE4FD5
S1132B908081892B8093FF0182E0809364021092EC
S1132BA045021092440280916502882331F48FEF2C
S1132BB091E0612F402F0E94A81688B183709091F4
S1132BC0FF01892B88B91F910F910895882321F063
S1132BD0813009F04EC027C080914E0290914F027F
S1132BE0892B49F080914E0290914F020197909366
S1132BF04F0280934E0280916E028823D1F520917A
S1132C004E0230914F028091520290915302281744
S1132C10390779F580E060E070E00E943E0881E0C9
S1132C2080936E0208958091500290915102892BF5
S1132C3049F0809150029091510201979093510272
S1132C408093500280916F02882399F4209150025E
S1132C5030915102809154029091550228173907FE
S1132C6041F481E060E070E00E943E0881E08093DE
S1132C706F020895FF920F931F93CF93DF93809178
S1132C809502882309F459C0009196021091970285
S1132C90F801C081D1818C819D8101979D838C83B2
S1132CA0181619060CF449C0898180FF05C08E816D
S1132CB0882311F481E08E83898181FF03C0EF8131
S1132CC0F8850995809195028230A8F0F8018281F7
S1132CD09381909397028093960213821282E091DB
S1132CE00000F091010084819581181619063CF0CA
S1132CF0FF24F39405C01092970210929602FF24C9
S1132D008091950281508093950280919502882349
S1132D1011F40E94A516898182FF08C08A819B81D3
S1132D209D838C83C8010E94830B08C0C8010E9444
S1132D305C2289818F7E898301C0FF248F2DDF91DE
S1132D40CF911F910F91FF9008951092FE01089565
S1132D50FC0180916302823069F48091030291E066
S1132D60892780930302882309F03EC08081837EF3
S1132D7080833AC08091420290914302C397A4F5A4
S1132D806623D1F0209142023091430280E690E024
S1132D90BC01269FC001279F900D369F900D1124E2
S1132DA0880F892F881F990B90935702809356029E
S1132DB081E08093010218C0809101028823A1F070
S1132DC080915602909157020197909357028093F5
S1132DD056028091560290915702892B29F48081E2
S1132DE0837E80831092010280916402823069F4B0
S1132DF08091020291E0892780930202882309F0DE
S1132E003EC080818F7180830895809144029091A7
S1132E104502C397A4F54423D1F020914402309194
S1132E20450280E690E0AC01249FC001259F900DEF
S1132E30349F900D1124880F892F881F990B90932C
S1132E4059028093580281E0809300020895809192
S1132E5000028823A1F080915802909159020197B1
S1132E60909359028093580280915802909159028C
S1132E70892B29F480818F71808310920002089538
S1132E808F929F92AF92BF92CF92DF92EF92FF9276
S1132E900F931F93CF93DF93FC013081209117028E
S1132EA0321303C0208121118FC0EB018C010E94D9
S1132EB0A803F8018081813059F108F481C082307F
S1132EC009F457C0833009F077C088E691E00E9486
S1132ED025244E815F81688579858A819B81AC81B7
S1132EE0BD817F936F935F934F93BF93AF939F93F2
S1132EF08F9385E591E09F938F930E940F248DB764
S1132F009EB70A960FB6F8949EBF0FBE8DBF58C0E9
S1132F1081E291E00E9425246A817B818C819D81DC
S1132F202E813F81488559858E809F80A884B984ED
S1132F30CA80DB80EC80FD800E94471D9F938F93A5
S1132F407F936F93BF92AF929F928F92FF92EF9273
S1132F50DF92CF928EE291E09F938F930E940F2491
S1132F608DB79EB70E960FB6F8949EBF0FBE8DBF59
S1132F7027C089E491E00E9425244E815F81688501
S1132F8079858A819B81AC81BD817F936F935F93A7
S1132F904F93BF93AF939F938F9385E591E09F9356
S1132FA08F930E940F24EDB7FEB73A960FB6F894AC
S1132FB0FEBF0FBEEDBF04C082E791E00E9425244E
S1132FC0F801808180931702DF91CF911F910F91B7
S1132FD0FF90EF90DF90CF90BF90AF909F908F9035
S1132FE00895DC01FB019C918081981325C0119602
S1132FF02D913C9112978181928128173907E1F430
S113300013962D913C911497838194812817390745
S113301099F415962D913C911697858196812817E0
S1133020390751F417964D915C9118972781308593
S113303081E04217530709F080E00895CF93DF93AE
S1133040EC0186E00E945D030E943503BC0180E030
S113305090E00E945B1E20E030E040EA50E40E94D1
S11330602B1F20E030E040E85AE30E942B1F6A83C4
S11330707B838C839D8387E00E945D030E943503DC
S1133080BC0180E090E00E945B1E20E030E040EA5A
S113309050E40E942B1F20E030E040E85AE30E94F5
S11330A02B1F6E837F8388879987DF91CF91089543
S11330B0CF93DF93EC019B018091160281110AC02A
S11330C041E061E08DE092E00E94450B81E0809355
S11330D0160211C080911302882369F080E40E94D3
S11330E0CD0480E00E944D0A888381E00E944D0A4D
S11330F0898310921302DF91CF910895FC0181E03E
S1133100808388EC90E0928381839483838380E935
S113311091E0968385839087878308950F931F9307
S1133120CF93DF93EC018B01FB0162817381848176
S1133130958126813781408551850E94471D20E075
S113314030E040E450E40E94E91E181694F583E050
S11331508883F801628173818481958120E030E065
S113316040E05FE30E942B1F20E030E048E452E49B
S11331700E94471D0E94251E7C836B83F801668193
S113318077818085918520E030E040E05FE30E9414
S11331902B1F20E030E048E452E40E94471D0E94C7
S11331A0251E7A83698380E991E09E838D839887C5
S11331B08F83DF91CF911F910F9108956F927F922A
S11331C08F929F92AF92BF92CF92DF92EF92FF9233
S11331D00F931F93CF93DF93FB01D080F1E0DF12B5
S11331E04EC0EC0182E0982E988260E082E00E945A
S11331F0A2091F921F921F92DF9290E9692E6F928B
S11332001F9228EC722E7F921F9286E98F93882456
S11332108394A12CB12CC12C30E9E32EFF24F39428
S113322008EC10E026E930E041E062E080E00E9432
S113323047061F921F921F92DF926F921F927F92F6
S11332401F9282E88F9322E830E040E062E080E061
S11332500E944706988288EC90E09A8389839C8335
S11332608B8380E991E09E838D8398878F838DB7CC
S11332709EB742960FB6F8949EBF0FBE8DBFDF91E6
S1133280CF911F910F91FF90EF90DF90CF90BF905F
S1133290AF909F908F907F906F900895CF93DF931E
S11332A0EC0164E072E00E94F117811114C06F8197
S11332B078858D819E810E94EC076B817C81898158
S11332C09A810E94890789E0FE01A4E0B2E001909E
S11332D00D928A95E1F7DF91CF910895CF93DF9313
S11332E0CDB7DEB72E970FB6F894DEBF0FBECDBFB5
S11332F00E94C2040E94CA030E94E0060E942A039C
S11333000E94EC0B81E00E94520310921A02109268
S1133310190210921C0210921B0210921E021092AB
S11333201D021092200210921F021092180281E8CE
S113333091E00E94252488EB9BE00E94180B0E94D8
S1133340A8036DE770E0CE0101960E945818CE01E3
S113335001960E941E1888E192E00E947E18BE0128
S11333606F5F7F4F88E192E00E948E18BE016F5F0D
S11333707F4F88E192E00E94DE1888E192E00E948B
S11333804E19BE016F5F7F4F88E192E00E944017A3
S1133390D8CFA0E1B0E0EFECF9E10C948D217C01F1
S11333A01B016A01FC0117821682838181FF44C3D9
S11333B09E012F5F3F4F3901F7019381F10193FD86
S11333C0859193FF81911F01882309F431C38532CC
S11333D039F493FD859193FF81911F01853239F46E
S11333E0B70190E00E94D32356016501E5CF10E0B8
S11333F0512C912CFFE1F915D8F08B3279F038F487
S1133400803279F08332A1F4F92DF0612EC08D322F
S113341061F0803369F4292D21602DC0392D32608B
S1133420932E892D8460982E2AC0E92DE86015C05A
S113343097FC2DC020ED280F2A3088F496FE06C094
S11334403AE0139F200D1124122F19C08AE0589ED0
S1133450200D1124522EE92DE0629E2E10C08E32D2
S113346031F496FCE5C2F92DF0649F2E08C08C3629
S113347021F4292D2068922E02C0883641F4F101EE
S113348093FD859193FF81911F018111B3CF9BEB34
S1133490980F933020F4992D9061805E07C09BE9CA
S11334A0980F933008F066C1992D9F7E96FF16E021
S11334B09F73992E853619F49064992E08C0863628
S11334C021F4392F3068932E02C01111115097FE48
S11334D007C01C3350F444244394410E27E00BC02E
S11334E0183038F027E017E005C027E09CE3492EA8
S11334F002C0212F412C560184E0A80EB11CF60114
S11335006081718182819381042DA3010E94E5224F
S11335106C01F981FC87F0FF02C0F3FF06C091FC47
S113352006C092FE06C000E205C00DE203C00BE235
S113353001C000E08C858C7019F001115AC29BC245
S113354097FE10C04C0CFC85F4FF04C08A818133C3
S113355009F44A94141474F528E0241578F588E0E5
S1133560482E2CC096FC2AC0812F90E08C159D0516
S11335709CF03CEFC3163FEFD30674F0892D8068AE
S1133580982E0AC0E2E0F0E0EC0FFD1FE10FF11D00
S11335908081803319F411501111F4CF97FE0EC0BD
S11335A044244394410E812F90E0C816D9062CF48C
S11335B01C1904C04424439401C010E097FE06C0C3
S11335C01C141D0434F4C601019605C085E090E086
S11335D002C081E090E001110196112331F0212F06
S11335E030E02F5F3F4F820F931F252D30E082176D
S11335F0930714F4581A01C0512C892D897049F489
S1133600552039F0B70180E290E00E94D3235A9408
S1133610F7CF002329F0B701802F90E00E94D32335
S113362093FC09C0552039F0B70180E390E00E9473
S1133630D3235A94F7CF97FE4CC04601D7FE02C05D
S1133640812C912CC60188199909F301E80FF91FFF
S1133650FE87ED87960124193109388B2F87012FB6
S113366010E01195019511093FEF8316930629F493
S1133670B7018EE290E00E94D323C814D9044CF021
S11336808F8598898815990524F4ED85FE858181B7
S113369001C080E3F1E08F1A91082D853E852F5FEC
S11336A03F4F3E872D87801691062CF0B70190E09E
S11336B00E94D323D9CFC814D90441F49A819633F4
S11336C020F4953319F43C8534FF81E3B70190E08D
S11336D04EC08A81813319F09C859F7E9C87B701F7
S11336E090E00E94D323111105C094FC18C085E614
S11336F090E017C0B7018EE290E00E94D3231E5FD2
S113370082E001E0080FF301E80FF11D8081B701A9
S113371090E00E94D323802F0113F3CFE6CF85E4FA
S113372090E0B7010E94D323D7FC06C0C114D10492
S113373041F4EC85E4FF05C0D194C194D1088DE235
S113374001C08BE2B70190E00E94D32380E32AE01A
S1133750C216D1042CF08F5FFAE0CF1AD108F7CF4C
S1133760B70190E00E94D323B701C601C0960E941E
S1133770D32354C1833631F0833779F0833509F08C
S113378056C020C0560132E0A30EB11CF601808160
S1133790898301E010E0630112C05601F2E0AF0E2C
S11337A0B11CF601C080D18096FE03C0612F70E089
S11337B002C06FEF7FEFC6010E94C8238C01F92D70
S11337C0FF7714C0560122E0A20EB11CF601C0809E
S11337D0D18096FE03C0612F70E002C06FEF7FEFCF
S11337E0C6010E94BD238C01F92DF0689F2EF3FDC4
S11337F01AC0852D90E008171907A8F4B70180E2D4
S113380090E00E94D3235A94F4CFF60197FC85915B
S113381097FE81916F01B70190E00E94D32351106C
S11338205A94015011090115110579F7F7C084362E
S113383011F0893661F5560197FE09C024E0A20E05
S1133840B11CF60160817181828193810AC0F2E02A
S1133850AF0EB11CF60160817181072E000C880B3C
S1133860990BF92DFF769F2E97FF09C090958095AF
S1133870709561957F4F8F4F9F4FF0689F2E2AE080
S113388030E0A3010E945524C82EC6183FC0092D5C
S1133890853721F40F7E2AE030E01DC0097F8F3682
S11338A091F018F4883559F0C3C0803719F088377F
S11338B011F0BEC0006104FF09C0046007C094FE9B
S11338C008C0066006C028E030E005C020E130E012
S11338D002C020E132E0560107FF09C084E0A80ECF
S11338E0B11CF601608171818281938108C0F2E08C
S11338F0AF0EB11CF6016081718180E090E0A301FC
S11339000E945524C82EC6180F77902E96FE0BC021
S1133910092D0E7FC11650F494FE0AC092FC08C013
S1133920092D0E7E05C0DC2C092D03C0DC2C01C042
S1133930D12E04FF0DC0FE01EC0DF11D80818033FA
S113394011F4097E09C002FF06C0D394D39404C0C5
S1133950802F867809F0D39403FD11C000FF06C0C0
S11339601C2DD51480F4150D1D190DC0D51458F453
S1133970B70180E290E00E94D323D394F7CFD5140B
S113398010F45D1801C0512C04FF10C0B70180E38E
S113399090E00E94D32302FF17C001FD03C088E713
S11339A090E002C088E590E0B7010CC0802F8678D3
S11339B059F001FF02C08BE201C080E207FD8DE2F5
S11339C0B70190E00E94D323C11638F4B70180E315
S11339D090E00E94D3231150F7CFCA94F301EC0D69
S11339E0F11D8081B70190E00E94D323C110F5CF6F
S11339F015C0F4E0F51560F584E0581A93FE1FC075
S1133A00011127C02C8523FF2AC00EEF10E0392DA9
S1133A103071932EF8018491811124C0552009F44A
S1133A20E4CCB70180E290E00E94D3235A94F6CF0D
S1133A30F7018681978126C08FEF9FEF23C0B701DE
S1133A4080E290E00E94D3235A945110F8CFD8CF4B
S1133A50512CB701802F90E00E94D323D3CF02E0F2
S1133A6011E0D5CF91108052B70190E00E94D3238A
S1133A700F5F1F4FCFCF23E0251510F483E0BDCF98
S1133A80512CC0CF6096E2E10C94A9215058BB2779
S1133A90AA270E945E1D0C94AF1E0E94A11E38F03E
S1133AA00E94A81E20F039F49F3F19F426F40C94C8
S1133AB09E1E0EF4E095E7FB0C94981EE92F0E94DD
S1133AC0C01E58F3BA17620773078407950720F0DE
S1133AD079F4A6F50C94E21E0EF4E0950B2EBA2FA1
S1133AE0A02D0B01B90190010C01CA01A001112400
S1133AF0FF27591B99F0593F50F4503E68F11A16AC
S1133B00F040A22F232F342F4427585FF3CF46953C
S1133B1037952795A795F0405395C9F77EF41F165E
S1133B20BA0B620B730B840BBAF09150A1F0FF0F28
S1133B30BB1F661F771F881FC2F70EC0BA0F621F14
S1133B40731F841F48F4879577956795B795F79504
S1133B509E3F08F0B0CF9395880F08F09927EE0F99
S1133B609795879508950E94C71D0C94AF1E0E94D7
S1133B70A81E58F00E94A11E40F029F45F3F29F0CE
S1133B800C94981E51110C94E31E0C949E1E0E94DA
S1133B90C01E68F39923B1F3552391F3951B550B7C
S1133BA0BB27AA2762177307840738F09F5F5F4F0C
S1133BB0220F331F441FAA1FA9F335D00E2E3AF04B
S1133BC0E0E832D091505040E695001CCAF72BD063
S1133BD0FE2F29D0660F771F881FBB1F26173707B4
S1133BE04807AB07B0E809F0BB0B802DBF01FF27E6
S1133BF093585F4F3AF09E3F510578F00C94981E0D
S1133C000C94E31E5F3FE4F3983ED4F386957795D6
S1133C106795B795F7959F5FC9F7880F911D96959E
S1133C20879597F90895E1E0660F771F881FBB1FFA
S1133C30621773078407BA0720F0621B730B840BA7
S1133C40BA0BEE1F88F7E09508950E942C1E689425
S1133C50B1110C94E31E08950E94C81E88F09F576A
S1133C6098F0B92F9927B751B0F0E1F0660F771F9C
S1133C70881F991F1AF0BA95C9F714C0B13091F092
S1133C800E94E21EB1E008950C94E21E672F782F83
S1133C908827B85F39F0B93FCCF386957795679557
S1133CA0B395D9F73EF490958095709561957F4FC3
S1133CB08F4F9F4F0895E89409C097FB3EF4909569
S1133CC08095709561957F4F8F4F9F4F9923A9F0F1
S1133CD0F92F96E9BB279395F69587957795679580
S1133CE0B795F111F8CFFAF4BB0F11F460FF1BC0C4
S1133CF06F5F7F4F8F4F9F4F16C0882311F096E957
S1133D0011C0772321F09EE8872F762F05C0662304
S1133D1071F096E8862F70E060E02AF09A95660FBD
S1133D20771F881FDAF7880F9695879597F9089576
S1133D3097F99F6780E870E060E008959FEF80EC5A
S1133D40089500240A9416161706180609060895FD
S1133D5000240A9412161306140605060895092E63
S1133D600394000C11F4882352F0BB0F40F4BF2BD2
S1133D7011F460FF04C06F5F7F4F8F4F9F4F089512
S1133D8057FD9058440F551F59F05F3F71F0479508
S1133D90880F97FB991F61F09F3F79F087950895ED
S1133DA0121613061406551FF2CF4695F1DF08C00C
S1133DB0161617061806991FF1CF86957105610529
S1133DC008940895E894BB2766277727CB0197F9D1
S1133DD008950E94222008F48FEF08950E94C81EBF
S1133DE0A8F19E57B0F1985160F039F1983070F510
S1133DF0092E9927660F771F881F991F0A94D1F7F8
S1133E001CC0BB27993F4CF4B111B1E0B62B672F0E
S1133E10782F8827985FB1F708C0869577956795BE
S1133E20B79508F4B1609395C1F7BB0F30F411F462
S1133E3060FF03C06F5F7F4F8F4F3EF49095809576
S1133E40709561957F4F8F4F9F4F089568940C94A0
S1133E50E31E0C94E21E0E943E1F0C94AF1E0E94AF
S1133E60A11E38F00E94A81E20F0952311F00C9496
S1133E70981E0C949E1E11240C94E31E0E94C01ED6
S1133E8070F3959FC1F3950F50E0551F629FF001A9
S1133E90729FBB27F00DB11D639FAA27F00DB11DC2
S1133EA0AA1F649F6627B00DA11D661F829F22274B
S1133EB0B00DA11D621F739FB00DA11D621F839FD2
S1133EC0A00D611D221F749F3327A00D611D231FA8
S1133ED0849F600D211D822F762F6A2F11249F57F6
S1133EE050409AF0F1F088234AF0EE0FFF1FBB1FF9
S1133EF0661F771F881F91505040A9F79E3F5105B8
S1133F0080F00C94981E0C94E31E5F3FE4F3983EFB
S1133F10D4F3869577956795B795F795E7959F5F61
S1133F20C1F7FE2B880F911D9695879597F90895F3
S1133F30FA01EE0FFF1F309621053105A1F161153D
S1133F40710561F48038BFE39B0749F168949038A8
S1133F50810561F08038BFEF9B0741F099234AF552
S1133F60FF3FE1053105210519F1E8940894E7952F
S1133F70D901AA2329F4AB2FBE2FF85FD0F310C0C8
S1133F80FF5F70F4A695E0F7F73950F019F0FF3AA7
S1133F9038F49F779F930DD00F9007FC90580895A5
S1133FA046F00C949E1E60E070E080E89FE3089564
S1133FB04FE79F775F934F933F932F930E94B720D0
S1133FC02F913F914F915F910E942B1F0C94F01FF2
S1133FD029F416F00C94981E0C94E21E0C949E1E68
S1133FE00E94C81EA8F39638A0F707F80F92E89429
S1133FF02BE33AEA48EB5FE70E94411F0F920F92CE
S11340000F924DB75EB70F920E94FF20ECE7F0E0ED
S11340100E9446204F915F91EF91FF91E595EE1F2D
S1134020FF1F49F0FE57E0684427EE0F441FFA953E
S1134030E1F74195550B0E9479200F9007FE0C94EF
S11340406D200895990F0008550FAA0BE0E8FEEFC4
S113405016161706E807F907C0F012161306E40748
S1134060F50798F0621B730B840B950B39F40A2641
S113407061F0232B242B252B21F408950A2609F41F
S1134080A140A6958FEF811D811D0895DF93CF93E5
S11340901F930F93FF92EF92DF927B018C01689440
S11340A006C0DA2EEF010E943E1FFE01E894A5919E
S11340B02591359145915591A6F3EF010E945E1D1E
S11340C0FE019701A801DA9469F7DF90EF90FF9061
S11340D00F911F91CF91DF9108959B01AC0160E096
S11340E070E080E89FE30C94B31D0C94981E0C942C
S11340F033210E94C81ED8F39923C9F3940F511D8C
S1134100A3F39150504094F059F0882332F0660F95
S1134110771F881F91505040C1F79E3F51052CF7DF
S1134120880F911D9695879597F908955F3FACF098
S1134130983E9CF0BB27869577956795B79508F4CC
S1134140B1609395C1F7BB0F58F711F460FFE8CF46
S11341506F5F7F4F8F4F9F4FE3CF0C94E31E16F09A
S11341600C9433210C949E1E68940C94981E0E9407
S1134170C81EA8F39923C1F3AEF3DF93CF931F9323
S11341800F93FF92C92FDD2788232AF02197660F0A
S1134190771F881FDAF720E030E040E85FEB9FE309
S11341A0883920F0803E38F021968F770E94471D91
S11341B0E4EAF0E004C00E94471DE1EDF0E00E9453
S11341C046208B01BE01EC01FB2E6F5771097595DA
S11341D0771F880B990B0E945D1E28E132E741E3AB
S11341E05FE30E943E1FAF2D9801AE01FF900F9137
S11341F01F91CF91DF910E945E1D0C94AF1EFA01B6
S1134200DC01AA0FBB1F9B01AC01BF5728F4222776
S113421033274427507820C0B75190F4AB2F0024A3
S1134220469537952795011CA395D2F3002071F08C
S1134230220F331F441FB395DAF30ED00C94461D9E
S113424061307105A0E88A07B94630F49B01AC01DE
S11342506627772788279078309621F0208331834A
S11342604283538308959F3F31F0915020F4879502
S113427077956795B795880F911D9695879597F9CA
S11342800895DB018F939F930E948221BF91AF9188
S1134290A29F800D911DA39F900DB29F900D11249C
S11342A00895A1E21A2EAA1BBB1BFD010DC0AA1F73
S11342B0BB1FEE1FFF1FA217B307E407F50720F08B
S11342C0A21BB30BE40BF50B661F771F881F991F06
S11342D01A9469F760957095809590959B01AC014F
S11342E0BD01CF010895A29FB001B39FC001A39F58
S11342F0700D811D1124911DB29F700D811D11241B
S1134300911D08950E947321A59F900DB49F900D57
S1134310A49F800D911D112408952F923F924F92D6
S11343205F926F927F928F929F92AF92BF92CF9241
S1134330DF92EF92FF920F931F93CF93DF93CDB74A
S1134340DEB7CA1BDB0B0FB6F894DEBF0FBECDBFC2
S113435009942A88398848885F846E847D848C8493
S11343609B84AA84B984C884DF80EE80FD800C819C
S11343701B81AA81B981CE0FD11D0FB6F894DEBF7F
S11343800FBECDBFED0108950F931F93CF93DF931D
S11343908230910510F482E090E0E0919A02F0916D
S11343A09B0220E030E0A0E0B0E0309719F14081BA
S11343B051810281138148175907C8F08417950762
S11343C069F4109731F012960C93129713961C937C
S11343D027C000939A0210939B0222C02115310535
S11343E019F04217530718F49A01BD01EF01DF01D8
S11343F0F801DBCF21153105F9F0281B390B2430E6
S1134400310580F48A819B816115710521F0FB01DE
S11344109383828304C090939B0280939A02FE014B
S1134420329644C0FE01E20FF31F81939193225010
S11344303109398328833AC0209198023091990236
S1134440232B41F420911D0130911E0130939902D8
S11344502093980220911B0130911C0121153105F4
S113446041F42DB73EB740911F0150912001241B08
S1134470350BE0919802F0919902E217F307A0F44A
S11344802E1B3F0B2817390778F0AC014E5F5F4FA6
S11344902417350748F04E0F5F1F5093990240933D
S11344A098028193919302C0E0E0F0E0CF01DF91A4
S11344B0CF911F910F910895CF93DF93009709F443
S11344C081C0FC01329713821282A0919A02B091AA
S11344D09B02109781F420813181820F931F2091D8
S11344E09802309199022817390751F5F0939902EF
S11344F0E093980267C0ED0120E030E0CE17DF07BB
S113450040F44A815B819E0141155105F1F0EA01B5
S1134510F5CFD383C28340815181840F951FC8177F
S1134520D90759F488819981840F951F0296918344
S113453080838A819B81938382832115310529F4A9
S1134540F0939B02E0939A023DC0E901FB83EA8366
S113455049915991C40FD51FEC17FD0761F480816F
S11345609181840F951F0296E90199838883828142
S113457093819B838A83E0E0F0E012968D919C9175
S11345801397009719F0FD01DC01F7CF8D919C91F1
S113459011979D012E5F3F4F820F931F2091980228
S11345A0309199022817390769F4309729F4109249
S11345B09B0210929A0202C013821282B093990253
S11345C0A0939802DF91CF910895283008F027E056
S11345D03327DA01990F311D87FD9160009661053B
S11345E0710539F432602E5F3D9330E32A95E1F78B
S11345F008959F3F30F080387105610509F03C5FF4
S11346003C5F3D93913008F08068911DDF93CF9318
S11346101F930F93FF92EF92192F987F9695E92F8E
S113462096959695E90FFF27E05AFE4F9927332771
S1134630EE24FF24A701E70105900894079428F4C9
S1134640360FE71EF81E491F511D660F771F881F7E
S1134650991F0694A1F70590079428F4E70EF81E15
S1134660491F561FC11D770F881F991F661F069487
S1134670A1F70590079428F4F80E491F561FC71F89
S1134680D11D880F991F661F771F0694A1F7059007
S1134690079420F4490F561FC71FD81F990F661F90
S11346A0771F881F0694A9F784911095177041F01D
S11346B0D695C79557954795F794E7941A95C1F7FA
S11346C0E6E0F1E068941590159135916591959126
S11346D005907FE27395E118F10A430B560BC90B61
S11346E0D009C0F7E10CF11E431F561FC91FD01D8E
S11346F07EF4703311F48A95E6CFE894015030F0DB
S1134700080F0AF40027021708F4202F2395022F1C
S11347107A3328F079E37D932A95E9F710C07D93E5
S11347202A9589F606949795679537951795179462
S1134730E118F10A430B560BC90BD00998F02395E5
S11347407E9173957A3308F070E37C932013B8F765
S11347507E9170617D9330F0839571E37D9370E376
S11347602A95E1F71124EF90FF900F911F91CF91BB
S1134770DF91992787FD90950895FC01059061507C
S113478070400110D8F7809590958E0F9F1F089563
S1134790FC016150704001900110D8F7809590950C
S11347A08E0F9F1F08950F931F93CF93DF93FB01E9
S11347B0238121FD03C08FEF9FEF2CC022FF16C081
S11347C046815781248135814217530744F4A081DF
S11347D0B1819D012F5F3F4F318320838C932681CC
S11347E037812F5F3F4F3783268314C08B01EC0141
S11347F0FB010084F185E02D0995892BE1F6D801B0
S113480016968D919C911797019617969C938E936B
S11348101697CE01DF91CF911F910F910895A0E0DB
S1134820B0E0E5E1F4E20C949D21AE014B5F5F4FF3
S1134830FA0161917191AF0180919E0290919F0262
S11348400E94C919E2E00C94B9210F931F93CF93EE
S1134850DF93E0919E02F0919F02238121FF1BC010
S11348608C01D0E0C0E0F80181918F0160919E023B
S113487070919F02DB011896ED91FC9119978823A2
S113488031F00995892B79F3DFEFCFEFECCF8AE094
S11348900995892B19F08FEF9FEF02C08D2F9C2F64
S11348A0DF91CF911F910F910895FA01AA27283023
S11348B051F1203181F1E8946F936E7F6E5F7F4FE9
S11348C08F4F9F4FAF4FB1E03ED0B4E03CD0670F65
S11348D0781F891F9A1FA11D680F791F8A1F911DB8
S11348E0A11D6A0F711D811D911DA11D20D009F408
S11348F068943F912AE0269F11243019305D31934A
S1134900DEF6CF010895462F4770405D4193B3E032
S11349100FD0C9F7F6CF462F4F70405D4A3318F0D9
S1134920495D31FD4052419302D0A9F7EACFB4E08A
S1134930A6959795879577956795BA95C9F7009742
S11349406105710508959B01AC010A2E06945795E3
S1134950479537952795BA95C9F7620F731F841F3A
S10D4960951FA01D0895F894FFCFE1
S113496A1F020103030000000200000000730E008E
S113497A000000180C041060C080200000A202206D
S113498A004578706C6F72696E672E2E2E006C6506
S113499A66743A2025662072696768743A20256627
S11349AA2073756D3A2025660041766F6964696ED5
S11349BA672E2E2E006C6566743A2025662072696D
S11349CA6768743A20256600486F6D696E672E2EF3
S11349DA2E00556E6B6E6F776E2073746174652149
S11149EA005374617274696E672E2E2E0000E5
S9030000FC
